:020000040800F2
:10F0000003000000030000000300000003000000F4
:10F0100003000000050000000500000005000000DE
:10F020000500000005000000050000000A000000C7
:10F03000140000001E000000000001001E0000007F
:10F040001E0000001E000000000000000000000084
:10F0500000000000000000000000000000000000B0
:10F0600000000000000000000000000000000000A0
:10F070000000000000000000000000000000000090
:10F080000000000000000000000000000000000080
:020000040801F1
:1000000048740020C9190108D5050108F504010844
:10001000D7050108DB050108DF0501080000000025
:1000200000000000000000000000000005030108BF
:10003000E30501080000000059030108F507010865
:10004000E3190108E3190108E3190108E31901089C
:10005000E3190108E3190108E3190108E31901088C
:10006000E3190108E3190108E3190108E31901087C
:10007000E3190108E3190108E3190108E31901086C
:10008000E3190108E3190108E3190108E31901085C
:10009000E3190108E3190108E3190108E31901084C
:1000A000E3190108E3190108E3190108E31901083C
:1000B000E319010819800108E3190108E31901088F
:1000C000E3190108E3190108E3190108E31901081C
:1000D000E3190108EF16010849170108F71701088D
:1000E000E3190108E3190108E3190108E3190108FC
:1000F000E3190108E3190108E3190108E3190108EC
:10010000E3190108CD7A0108E3190108E319010890
:1001100053180108E3190108E3190108E31901085C
:10012000E3190108E3190108E3190108E3190108BB
:10013000E3190108E3190108E3190108E3190108AB
:10014000E3190108E3190108E3190108E31901089B
:10015000E3190108E3190108E3190108AF180108C0
:10016000E3190108E3190108E3190108E31901087B
:10017000E3190108E3190108E3190108E31901086B
:10018000E3190108E319010800F002F800F0A2F8F1
:100190000AA090E8000C82448344AAF10107DA45E2
:1001A00001D100F097F8AFF2090EBAE80F0013F092
:1001B000010F18BFFB1A43F001031847B4AC01004C
:1001C000E4AC01000A4410F8014B14F00F0508BF1D
:1001D00010F8015B240908BF10F8014B6D1E05D013
:1001E00010F8013B6D1E01F8013BF9D1641E03D0EC
:1001F000641E01F8015BFBD19142E4D3704700001B
:100200000023002400250026103A28BF78C1FBD81F
:10021000520728BF30C148BF0B6070476E2912F0EB
:100220005A87702912F09B83662914F0328765295A
:1002300014F02F87672914F02C87612914F02B877D
:1002400003681B0A28BF41F08001692912F00C8362
:10025000642912F00983752912F006836F2913F0BF
:100260006882782912F06783E92913F00382E42970
:1002700013F00082F52913F0FD81EF2913F0658258
:10028000F82912F066830368DB0928BF41F080017A
:10029000632913F07281732913F07781E32913F036
:1002A000C584F32913F0CA84002070471FB514F0E9
:1002B000E6FE13F0A1FA04000020002114F082FBF6
:1002C000401C60600020002114F066FBE0601FBD50
:1002D00010B510BD13F00AFF1146FFF7E7FF00F05D
:1002E000D6F813F028FF03B4FFF7F2FF03BC00F0C9
:1002F0001DFB000030BF72B6704762B6704780F3D6
:10030000088870472A4B19680868B0E8F04F80F3F6
:100310000988BFF36F8F4FF0000080F3118870479A
:100320000000000006480068006880F3088862B694
:1003300061B6BFF34F8FBFF36F8F00DF00BF00BF09
:1003400008ED00E0DFF80C00016841F47001016085
:10035000704700BF88ED00E0EFF30980BFF36F8FB7
:10036000134B1A681EF0100F08BF20ED108A20E909
:10037000F04F106008B44FF0500080F31188BFF3C5
:100380004F8FBFF36F8F03F0EDFA4FF0000080F353
:10039000118808BC19680868B0E8F04F1EF0100F0B
:1003A00008BFB0EC108A80F30988BFF36F8F7047E5
:1003B00048000020EFF305807047000005F0D8F8F2
:1003C00009F04CFB09F090FA0AF056F809F063FCCA
:1003D0000AF0AFFD0AF0DBFC0AF0B0FE0AF04EFEB8
:1003E00009F032F90AF084FB0BF030FB0BF077FBDD
:1003F0000BF0C0FB05F0E8F80CE04848007828B1A5
:100400004FF47A7003F067F900F06AFA4FF47A70EB
:1004100003F061F9F1E710B5012108050CF000FFC8
:1004200007F026FD5421642007F0CAFD0AF07DF98B
:1004300005F0F8FB05F0DFFB08F0F2FC09F02AFEFE
:1004400008F035FC0AF0EEFD10BD10B50121881E44
:100450000CF051FF0121881E0CF05EFF0121881E67
:100460000CF07CFF0121881E0CF089FF0021481E42
:100470000CF041FF0021481E0CF04EFF0021481EE9
:100480000CF06CFF0021481E0CF079FF10BD1CB56C
:10049000234824490860012023490880FFF7D5FF3D
:1004A0004FF440700BF086FBA82000F0ABF96420FD
:1004B00000F0E7F901F054F81CA012F047F91DA074
:1004C00012F044F924A12CA012F040F92FA012F050
:1004D0003DF9FFF7A0FF3648012100230A02CDE9CC
:1004E000001034A1AFF22B1002F03EFE03F026FC08
:1004F00000201CBD01200C49088031A012F026F913
:100500002FA012F023F92EA012F020F92CA012F047
:100510001DF92BA012F01AF900BFFEE7F000002031
:100520000000010808ED00E0DC0000200D0A0D0AC3
:10053000000000002D2D2D2D2D2D2D2D20537973F4
:1005400074656D205265626F6F74202D2D2D2D2DD9
:100550002D2D2D0D0A000000504C433253544D2DCB
:100560004D61696E2D56312E30302D323032322DA4
:1005700031312D32390000004150502056657273E0
:10058000696F6E3A2025730D0A0000002D2D2D2D68
:100590002D2D2D2D2D2D2D2D2D2D2D2D2D2D2D2D8B
:1005A0002D2D2D2D2D2D2D2D2D2D2D0D0A00000045
:1005B0000000002073746172745F7461736B0000DB
:1005C000486172644661756C745F48616E646C6505
:1005D000720D0A00704700BFFEE700BFFEE700BFD4
:1005E000FEE770470CB50020019000907648006847
:1005F00040F480307449086000BF7348006800F41C
:10060000003000900198401C0190009818B90198A2
:10061000B0F5A04FF1D16C48006800F4003010B183
:100620000120009001E0002000900098012846D1B0
:1006300065484030006840F08050634940310860B0
:100640006248006840F44040604908605E480830F5
:1006500000685D49083108600846006840F40040C1
:1006600008600846006840F4A05008605848091F18
:100670000860081F006840F08070091F086000BF14
:100680005148006800F000700028F9D040F2057071
:10069000504908604C480830006820F003004A497F
:1006A000083108600846006840F00200086000BF9A
:1006B00045480830006800F00C000828F8D10CBD4F
:1006C00010B54548006840F47000434908603E4852
:1006D000006840F001003C49086000203A490831B8
:1006E0000860394800683D490840374908603C487F
:1006F000091D0860081F006820F48020091F086099
:10070000002031490C310860FFF76CFF4FF00060AA
:1007100031498039086010BD70B5002000220223E5
:1007200000240221284D08352D6805F00C0020B169
:10073000042806D0082834D107E02A4D2A4E356017
:1007400033E02A4D284E35602FE01F4D2D1D2D68BA
:10075000C5F380541C4D2D1D2D6805F03F0154B18B
:10076000224DB5FBF1F5184E361D3668C6F38816D6
:1007700005FB06F209E01B4DB5FBF1F5124E361DE7
:100780003668C6F3881605FB06F20F4D2D1D2D6841
:10079000C5F301456D1C6B00B2FBF3F5124E3560DD
:1007A00003E0104D104E356000BF00BF064D083508
:1007B0002D68C5F303150E4E705D0B4D2D68C540B9
:1007C000094E356070BD00000038024000700040E6
:1007D00008544007003C024088ED00E0FFFFF6FEB1
:1007E000103000240024F4000400002000127A00DD
:1007F0000800002010B503F0B5FD012801D004F079
:1008000004FF10BD70B5044604200BF025FA3248F1
:10081000047025464FF47A70454301202F49088023
:100820004FF0E020006940F002004FF0E021086145
:1008300008464561006940F00100086170BD70B56F
:10084000034600224FF0E0267569234E367803FBFD
:1008500006F44FF0E026B16910E04FF0E026B069F1
:1008600088420BD0884202D20E1A324402E02E1A7D
:100870000E4432440146A24200D300E0EDE700BF3F
:1008800070BD70B5044603F06DFD012810D013480B
:100890000088844206D311480088B4FBF0F528464E
:1008A00002F019FF0D480088B4FBF0F100FB114481
:1008B0004FF47A7104FB01F0FFF7C1FF70BD30B552
:1008C0000446002504E04FF47A70FFF7B8FF6D1C72
:1008D000A542F8D330BD0000180000201A00002007
:1008E000012080F3138800BF00BF00BF00BF00BF1E
:1008F00000BFBFF34F8F00BF00BF00BF09480068B3
:1009000000F4E06008490843001D0649086000BF84
:1009100000BF00BFBFF34F8F00BF00BF00BF00E0AC
:1009200000BFFDE70CED00E00000FA0500BF7047D6
:1009300000BF704770B504460D46FE480088012888
:100940000AD100BF8021FC480DF0C8FE0028F9D074
:10095000A1B2F9480DF012FE204670BD10B588B066
:100960000446012108460CF05BFC012110200CF02C
:10097000B1FC07220921F1480CF01FFA07220A21D5
:10098000EE480CF01AFA4FF4C060069002208DF881
:100990001C008DF81D0000208DF81E0001208DF830
:1009A0001F0006A9E5480CF07DF902940020ADF87F
:1009B0000C00ADF80E00ADF81000ADF814000C20DE
:1009C000ADF8120002A9DE480DF025FD012240F22B
:1009D0002441DB480DF05DFE012240F22661D8483B
:1009E0000DF057FE0122C021D5480DF049FE01212E
:1009F000D3480DF098FD25208DF8040005208DF8D2
:100A0000050000208DF8060001208DF8070001A8E0
:100A10000BF0D5F808B010BD10B588B00446012120
:100A200008460CF0FDFB012148040CF042FC0722B3
:100A30000221C2480CF0C1F907220321BF480CF083
:100A4000BCF90C20069002208DF81C0003208DF8C4
:100A50001D0000208DF81E0001208DF81F0006A942
:100A6000B6480CF01FF902940020ADF80C00ADF868
:100A70000E00ADF81000ADF814000C20ADF8120017
:100A800002A9AD480DF0C7FC012240F22441AA485A
:100A90000DF0FFFD012240F22661A7480DF0F9FD9F
:100AA0000122C021A4480DF0EBFD0121A2480DF068
:100AB0003AFD26208DF8040006208DF80500002060
:100AC0008DF8060001208DF8070001A80BF077F8DB
:100AD00008B010BD10B588B00446012102200CF00A
:100AE0009FFB012188040CF0E4FB07220A219548B2
:100AF0000CF063F907220B2192480CF05EF94FF4D9
:100B00004060069002208DF81C0003208DF81D0027
:100B100000208DF81E0001208DF81F0006A98948CD
:100B20000CF0C0F802940020ADF80C00ADF80E00F7
:100B3000ADF81000ADF814000C20ADF8120002A9B9
:100B400081480DF068FC012240F224417E480DF0FE
:100B5000A0FD012240F226617B480DF09AFD0122A2
:100B6000C02179480DF08CFD012177480DF0DBFCA8
:100B700027208DF8040006208DF8050000208DF850
:100B8000060001208DF8070001A80BF018F808B046
:100B900010BD10B588B00446012108460CF040FB9A
:100BA0000121C8040CF085FB0822002163480CF0E9
:100BB00004F90822012161480CF0FFF80320069097
:100BC00002208DF81C008DF81D0000208DF81E00FD
:100BD00001208DF81F0006A958480CF063F8029414
:100BE0000020ADF80C00ADF80E00ADF81000ADF827
:100BF00014000C20ADF8120002A954480DF00BFCB3
:100C0000012240F2244151480DF043FD012240F2FF
:100C100026614E480DF03DFD0122C0214B480DF0EC
:100C20002FFD012149480DF07EFC34208DF8040091
:100C300006208DF8050000208DF8060001208DF8B3
:100C4000070001A80AF0BBFF08B010BD10B588B0BE
:100C50000446012104200CF0E3FA012120200CF0CD
:100C600039FB082206213A480CF0A7F80822072190
:100C700037480CF0A2F8C020069002208DF81C0026
:100C800003208DF81D0000208DF81E0001208DF836
:100C90001F0006A92E480CF005F8012108200CF0D1
:100CA000BFFA0820069001208DF81C0003208DF863
:100CB0001D0000208DF81E0001208DF81F0006A9E0
:100CC00024480BF0EFFF00BF00202349086000BF5D
:100CD0000294ADF80C00ADF80E00ADF81000ADF8C0
:100CE00014000C20ADF8120002A91C480DF093FB73
:100CF000012240F2244119480DF0CBFC012240F2C0
:100D0000266116480DF0C5FC0122C02113480DF0E4
:100D1000B7FC012111480DF006FC47208DF80400B6
:100D200006208DF8050000208DF8060001208DF8C2
:100D3000070015E0DC0000200044004000000240F5
:100D4000001001400004024000480040004C0040F8
:100D500000080240000C02408C8241420014014015
:100D600001A80AF02CFF08B010BD2DE9F04190B0A9
:100D700004460D4617461E46DDF85880FE4884425C
:100D800004D9012188050CF04BFA03E00121480544
:100D90000CF046FA20460BF0E1F900BF20460BF0BC
:100DA00006FB0028FAD10195029703960490CDF82E
:100DB000148006904FF480600790002008900990FE
:100DC0004FF480700A9000020B9000200C900320DA
:100DD0000D9000200E900F9001A920460BF060FAB4
:100DE000012120460BF096FA10B0BDE8F0812DE904
:100DF000F04190B004460D4617461E46DDF8588077
:100E0000DD48844204D9012188050CF009FA03E089
:100E1000012148050CF004FA20460BF09FF900BFB1
:100E200020460BF0C4FA0028FAD1019502970396E8
:100E300040200490CDF81480002006904FF480608C
:100E400007900020089009900A904FF480300B9092
:100E500000200C9003200D9000200E900F9001A90F
:100E600020460BF01DFA002120460BF053FA10B07B
:100E7000BDE8F08108B54FF4E130FFF76FFD0020C9
:100E8000BE4BBF4A51060090BB48B830FFF7AFFFDA
:100E90004FF40070BB4BBA4A81040090B6488830CA
:100EA000FFF763FF4FF40072B649B74804F0BCFD8A
:100EB00003220021012001F00DF9B449086000234C
:100EC0001A461946B148006801F01CFA03220021B5
:100ED000012001F0FFF8AE49086008BD08B54FF4E5
:100EE000E130FFF799FD0020AA4BAB4A5106009074
:100EF000AA48FFF77CFF4FF48060A94BA64A410443
:100F00000090A6481838FFF730FF4FF48062A449DC
:100F1000A44804F089FD03220021012001F0DAF841
:100F2000A149086000231A4619469F48006801F04D
:100F3000E9F903220021012001F0CCF89B49086067
:100F400008BD08B54FF4E130FFF7C4FD0020984B11
:100F5000984A5106009091484838FFF748FF4FF4EF
:100F60000070954B934A810400908C487838FFF7C5
:100F7000FCFE4FF400729049904804F055FD0322A6
:100F80000021012001F0A6F88D49086000231A46CF
:100F900019468B48006801F0B5F9032200210120B1
:100FA00001F098F88749086008BD08B54FF4E130B2
:100FB000FFF7EFFD0020844B844A510600907748EC
:100FC0003038FFF714FF4FF40070814B7F4A8104E3
:100FD000009072486038FFF7C8FE4FF400727C49F9
:100FE0007C4804F021FD03220021012001F072F869
:100FF0007949086000231A4619467748006801F0CD
:1010000081F903220021012001F064F8734908608E
:1010100008BD08B54FF41650FFF718FE0020704BBE
:10102000704A4FF0206100905348A030FFF7DFFE78
:1010300040F6FC706C4B6B4A4FF0206100904E48BC
:101040004030FFF792FE40F6FC726749674804F0B3
:10105000EBFC03220021012001F03CF86449086008
:1010600000231A4619466248006801F04BF9032232
:101070000021012001F02EF85E49086008BD70B51E
:1010800004460D4605B970BD002340F6B832194636
:101090003E48006801F0B5FA00231A4619463C485C
:1010A000006801F0AEFA00213348B8300BF032F995
:1010B00000BF3148B8300BF07AF90028F9D1294641
:1010C0002D48B8300BF047F92B48C430046001219B
:1010D0002948B8300BF01EF9002340F6B832194603
:1010E0002B48006801F08DFA4FF020512248B830AB
:1010F0000BF089F900212048B8300BF00BF90023E0
:101100001A4619462148006801F0FCF800BFBAE70A
:1011100070B504460D4605B970BD002340F6B832DF
:1011200019462148006801F06CFA00231A46194656
:101130001E48006801F065FA002118480BF0EAF833
:1011400000BF16480BF033F90028FAD1294613489E
:101150000BF001F911480C30046001210F480BF02D
:10116000D9F8002340F6B83219461048006801F05B
:1011700048FA2149094841E000640240A8030020E0
:1011800004100140A8010020F41B00201C000020D6
:1011900020000020B807002004440040A060024066
:1011A000B8030020001C002024000020280000209C
:1011B000C809002004480040C80700200C1C00207B
:1011C0002C00002030000020D80B0020044C0040F0
:1011D000D8090020181C002034000020380000200E
:1011E000E41B002004140140E80B0020241C002014
:1011F0003C00002040000020000020200BF003F9FC
:101200000021FB480BF086F800231A461946F948DE
:10121000006801F077F800BF7EE770B504460D4620
:1012200005B970BD002340F6B8321946F24800688F
:1012300001F0E7F900231A461946F048006801F06A
:10124000E0F90021EA4848380BF064F800BFE848AC
:1012500048380BF0ACF80028F9D12946E448483862
:101260000BF079F8E248A03844660121E04848389C
:101270000BF050F8002340F6B8321946DF480068FA
:1012800001F0BFF94FF0C051D94848380BF0BBF816
:101290000021D74848380BF03DF800231A4619467C
:1012A000D548006801F02EF800BFBAE770B50446D3
:1012B0000D4605B970BD002340F6B8321946D04836
:1012C000006801F09EF900231A461946CD480068CF
:1012D00001F097F90021C64830380BF01BF800BF29
:1012E000C34830380BF063F80028F9D12946C048CC
:1012F00030380BF030F8BE48A038C4670121BC4834
:1013000030380BF007F8002340F6B8321946BD48D4
:10131000006801F076F9BC49B54830380BF073F835
:101320000021B34830380AF0F5FF00231A46194669
:10133000B348006800F0E6FF00BFBBE770B50446A5
:101340000D4605B970BD002340F6B8321946AF48C6
:10135000006801F056F900231A461946AC480068A7
:1013600001F04FF900BF0120AA49086000BFFFF754
:1013700088FA0021A8480AF0CDFF00BFA6480BF06C
:1013800016F80028FAD12946A3480AF0E4FFA2483B
:101390000C3004600121A0480AF0BCFF002340F695
:1013A000B83219469A48006801F02BF99B499A48CF
:1013B0000BF029F8002198480AF0ACFF00BF00208C
:1013C0009449086000BF00231A4619468F480068F8
:1013D00000F098FF00BFB5E770B504460026002571
:1013E00014E00A20FFF74DFA06F10A0086B28A4897
:1013F00018380AF0B2FFC0F50070894988800846A5
:1014000004F06DFB05460DB1284670BDA642E8DB31
:101410002846FAE770B504460026002514E00A20A5
:10142000FFF72FFA06F10A0086B2714818380AF061
:1014300094FFC0F580607B498880084604F04FFB2C
:1014400005460DB1284670BDA642E8DB2846FAE7FE
:1014500070B504460026002514E00A20FFF711FAB3
:1014600006F10A0086B2624878380AF076FFC0F5C5
:1014700000706D498880084604F031FB05460DB1C7
:10148000284670BDA642E8DB2846FAE770B5044658
:101490000026002514E00A20FFF7F3F906F10A0000
:1014A00086B2534860380AF058FFC0F500705F49B3
:1014B0008880084604F013FB05460DB1284670BD30
:1014C000A642E8DB2846FAE770B504460026002568
:1014D00015E00A20FFF7D5F906F10A0086B24E485A
:1014E00060380AF03AFF40F6FC71081A50498880CB
:1014F000084604F0F4FA05460DB1284670BDA64230
:10150000E7DB2846FAE770B504460D462A46214631
:10151000434804F08FFA70BD70B504460D462A4664
:101520002146404804F086FA70BD70B504460D4669
:101530002A4621463C4804F07DFA70BD70B5044649
:101540000D462A462146394804F074FA70BD70B53C
:1015500004460D462A462146354804F06BFA70BD14
:1015600010B5FFF787FCFFF7B9FCFFF7EAFCFFF7C0
:101570001CFDFFF74EFD10BD70B504460D46164626
:101580002C48844204D131462846FFF778FD1EE0FE
:101590002948844204D131462846FFF7B9FD16E0B8
:1015A0002648844204D131462846FFF736FE0EE035
:1015B0002348844204D131462846FFF777FE06E0EF
:1015C0002048844203D131462846FFF7B7FE70BD5C
:1015D0002DE9F04104460D46164600271548844281
:1015E00032D131462846FFF78EFF07464FE0000014
:1015F000A0600240240000202C00002030000020C9
:101600003400002038000020200000203C00002092
:10161000400000208C824142A06402400000202053
:10162000F41B0020001C00200C1C0020181C0020B3
:10163000241C0020001001400044004000480040ED
:10164000004C004000140140C848844205D1314696
:101650002846FFF761FF074619E0C548844205D1D7
:1016600031462846FFF761FF074610E0C148844233
:1016700005D131462846FFF761FF074607E0BE481F
:10168000844204D131462846FFF761FF07463846B9
:10169000BDE8F08170B504460D460026B748844287
:1016A00004D12846FFF798FE06461EE0AF48844264
:1016B00004D12846FFF7AEFE064616E0AC48844249
:1016C00004D12846FFF7C4FE06460EE0A94884422E
:1016D00004D12846FFF7DAFE064606E0A648844213
:1016E00003D12846FFF7F0FE0646304670BD08B528
:1016F0000020009040F22441A0480DF005F878B198
:101700009E480CF03FFF9E480AF027FEC0F500708F
:101710009C49888040F2244198480DF030F812E04E
:1017200040F2266195480CF0EFFF60B140F226616F
:1017300092480DF024F89448006820B16946924818
:10174000006801F063F908BD08B50020009040F280
:10175000244186480CF0D8FFC0B384480CF012FF37
:101760008A480AF0FAFDC0F580608949888040F215
:1017700024417E480DF003F886480088012812D1E4
:101780008548006808B369468348006801F03EF95F
:101790000098D0B14FF0805080490860BFF34F8F60
:1017A000BFF36F8F26E07E48006870B169467C48C1
:1017B000006801F02BF9009838B14FF0805077495C
:1017C0000860BFF34F8FBFF36F8F13E0FFE740F266
:1017D000266166480CF098FF60B140F226616348CC
:1017E0000CF0CDFF6F48006820B169466D48006875
:1017F00001F00CF908BD08B50020009040F224412A
:101800005B480CF081FF80B159480CF0BBFE5F488B
:1018100060380AF0A2FDC0F500706349888040F28C
:10182000244153480CF0ABFF12E040F226615048CF
:101830000CF06AFF60B140F226614D480CF09FFF4A
:101840005A48006820B169465848006801F0DEF83F
:1018500008BD08B50020009040F2244145480CF036
:1018600053FF80B143480CF08DFE484848380AF0D9
:1018700074FDC0F500704E49888040F224413D4817
:101880000CF07DFF12E040F226613A480CF03CFF7C
:1018900060B140F2266137480CF071FF454800689E
:1018A00020B169464348006801F0B0F808BD08B5AA
:1018B0000020009040F224412F480CF025FF18B37F
:1018C0002D480CF05FFE2E4848380AF046FD40F6E1
:1018D000FC71081A3849888040F2244126480CF0EF
:1018E0004EFF3648006838B369463448006801F056
:1018F0008DF8009800B34FF0805028490860BFF37E
:101900004F8FBFF36F8F17E040F226611A480CF03B
:10191000FBFE88B140F2266117480CF030FF00BF93
:1019200000202749086000BF2648006820B16946AA
:101930002448006801F06AF808BD70B505460C46F9
:101940001646002120460AF0E5FC00BF20460AF0BA
:101950002EFD0028FAD1314620460AF0FCFCE56055
:10196000012120460AF0D6FC70BD00000044004072
:1019700000480040004C00400014014000100140AD
:1019800088640240F41B0020200000208860024090
:10199000001C0020DC000020F800002004ED00E026
:1019A000EC000020280000200C1C0020300000204B
:1019B000181C002038000020241C00202C010020CE
:1019C0008C82414240000020094880470948004776
:1019D000FEE7FEE7FEE7FEE7FEE7FEE7FEE7FEE7DF
:1019E000FEE7FEE704480549054A064B704700003C
:1019F000C106010889010108486E002048740020D2
:101A0000487000204870002010B51C2003F0E7FE4D
:101A1000044624B100202060201D00F0ABFA2046CF
:101A200010BD2DE9FF5F07468846002002903C4626
:101A3000019087B900BFFB48008800900120F94958
:101A4000088040F21D22F8A1FEA010F07FFEF549AB
:101A50000098088000BF08F07F4008B9012000E02E
:101A6000002080B900BFEF48008800900120ED49B8
:101A7000088040F21E22ECA1F2A010F067FEE949B6
:101A80000098088000BF04F1040909F108000390E0
:101A900001F0A5FDD9F80C60206840EA080020603C
:101AA00026E0D6F804B035680020019005F07F4AA2
:101AB00025F07F450AF0806028B92068284040B1B1
:101AC0000120019005E020682840A84201D10120B2
:101AD0000190019858B10AF0807010B10298284323
:101AE0000290206840F00071304602F061FB5E46D3
:101AF00003988642D5D1206802998843206001F07E
:101B0000BAFC206804B0BDE8F09F2DE9FC5F834675
:101B1000884614461F465D460020019004F07F4031
:101B200008B9012000E0002078B900BFBD48008856
:101B300000900120BB490880D722BBA1C1A010F0B2
:101B400005FEB8490098088000BF0CB1012000E0F4
:101B5000002078B900BFB348008800900120B14947
:101B60000880D822B0A1B7A010F0F0FDAD490098D0
:101B7000088000BF02F0F6FB00B90FB9012000E0B9
:101B8000002078B900BFA748008800900120A5492F
:101B90000880DB22A4A1ABA010F0D8FDA1490098D9
:101BA000088000BF01F01BFDD5F800904146584663
:101BB000FFF737FF49EA08002040A04206D149EA72
:101BC00008062868A0432860002709E03FB144F0D8
:101BD000A0613A46281D02F015FA002600E02E68A2
:101BE00001F049FC824607B3BAF1000F07D14FF06C
:101BF000805098490860BFF34F8FBFF36F8F02F09A
:101C000067FD064606F0007068B903F0B1FC2E6867
:101C100006EA0400A04202D12868A043286003F02D
:101C2000D3FC0120019026F07F463046BDE8FC9FA2
:101C300010B50346002022B903EA010434B10120A3
:101C400004E003EA01048C4200D1012010BD2DE91B
:101C5000FF5F81460D4617469A46DDF838804C46B0
:101C60004FF0000B00200190B9F1000F10D100BF20
:101C70006C480088009001206A49088040F24D12AB
:101C800069A170A010F062FD66490098088000BF4D
:101C900005F07F4008B9012000E0002080B900BFB6
:101CA00060480088009001205E4908804FF4A772C8
:101CB0005DA164A010F04AFD5A490098088000BF59
:101CC0000DB1012000E0002080B900BF5548008818
:101CD000009001205349088040F24F1252A159A0B0
:101CE00010F034FD4F490098088000BF02F03AFB25
:101CF00010B9B8F1000F01D1012000E0002080B937
:101D000000BF4848008800900120464908804FF4F1
:101D1000A97245A14BA010F019FD42490098088016
:101D200000BF01F05CFC20680090524629460098F4
:101D3000FFF77EFF0390039838B1009E4FF0000834
:101D4000BFB12068A843206013E0B8F1000F01D1B3
:101D5000009E0EE00FB14BF0807BBAF1000F01D076
:101D60004BF0806B45EA0B014246201D02F04AF918
:101D7000002601F080FB0290B8F1000F22D00298FB
:101D800038B94FF0805033490860BFF34F8FBFF32D
:101D90006F8F02F09DFC064606F0007080B903F0DC
:101DA000E7FB2668524629463046FFF741FF18B147
:101DB00017B12068A843206003F006FC00200190C2
:101DC00026F07F46304604B0BDE8F09F2DE9F04193
:101DD00005460E462C4685B900BF1248B0F8008073
:101DE00001201049088040F2DF120FA115A010F069
:101DF000ADFC0C48A0F8008000BF06F07F4008B999
:101E0000012000E0002038BB00BF0648B0F8008089
:101E10000120044908804FF4F07203A109A010F0DA
:101E200095FC1AE0DC0000202E2E5C46726565529F
:101E3000544F535C6576656E745F67726F7570732F
:101E40002E6300004572726F723A25732C25640D63
:101E50000A00000004ED00E003E04548A0F800801F
:101E600000BF03F085FB27682068B043206003F0C3
:101E7000ABFB3846BDE8F08170B504460D462946F7
:101E80002046FFF7A3FF70BD70B504460D46002342
:101E90002A462146AFF21F0003F01BFA06463046E1
:101EA00070BD70B501460B4600BF5025EFF31180A1
:101EB00085F31188BFF34F8FBFF36F8F00BF0246CA
:101EC0001C68104680F3118800BF204670BD2DE9C4
:101ED000F04105462E46341D01F081FB1EE004F161
:101EE0000800E168814201D0012000E0002080B9B3
:101EF00000BF1F48078801201D49088040F27D224D
:101F0000AFF2DC01AFF2C40010F020FC18480780EB
:101F100000BF4FF00071E06802F04AF92068002825
:101F2000DDD1304603F0FFFC01F0A5FABDE8F081F9
:101F300070B504460D4629462046FFF772FD70BD78
:101F40002DE9F04104460D46164633462A46214601
:101F5000AFF2230003F0BDF907463846BDE8F08133
:101F600001460A4609B9002000E090697047000068
:101F7000DC00002000F1080141604FF0FF3181607A
:101F800000F10801C160016100210160704700217A
:101F90000161704742684A6093688B60936859603A
:101FA0009160086103685B1C0360704710B50246CE
:101FB0000B685C1C0CB9106907E002F1080000E036
:101FC0004068446824689C42FAD944684C604C6874
:101FD000A160886041600A611468641C146010BDCF
:101FE00001460A69D1E901309860D1E901035860DE
:101FF0005068884201D188685060002008611068EC
:10200000401E1060106870472DE9F04105460E46ED
:102010002C4674B900BFFC4807880120FA490880A3
:1020200040F21B12F9A1FEA010F090FBF6480780C9
:1020300000BF03F09DFAD4E90F12206801FB0200F3
:1020400060600020A0632068A060E06B401E226CEE
:10205000216800FB0210E060FF2084F8440084F84F
:1020600045009EB9206908B9012000E00020A8B908
:1020700004F1100002F054F880B14FF08050EC49A8
:102080000860BFF34F8FBFF36F8F07E004F11000BC
:10209000FFF770FF04F12400FFF76CFF03F094FAE0
:1020A0000120BDE8F0812DE9F04106460D461746B6
:1020B0009846069C0DB9246000E02760E66325641D
:1020C00001212046FFF7A0FF84F850800020A06483
:1020D000BDE8F0812DE9F84F05460E4690460DB15A
:1020E000012000E0002080B900BFC748B0F800A080
:1020F0000120C54908804FF4C472C4A1C8A010F0E3
:1021000025FBC148A0F800A000BF0EB9002701E0E0
:1021100005FB06F707F1540003F061FB044644B1E8
:1021200004F1540943464A46314628460094FFF7D5
:10213000BAFF2046BDE8F88F2DE9F04104460F466E
:1021400015464FF00008A66B206C40B9206860BBB4
:10215000606802F065F980460020606025E07DB986
:102160003946226CA06810F072FE216CA068084409
:10217000A060D4E90110884217D32068A06014E061
:102180003946226CE06810F062FE216CE068401A6B
:10219000E0602168E068884203D2216C6068401AE0
:1021A000E060022D01D106B1761E701CA06340468E
:1021B000BDE8F0812DE9F3410D460098846C0027BD
:1021C00074B900BF9048068801208F49088040F606
:1021D000CE128EA192A010F0B9FA8B48068000BFF3
:1021E000A06BE16B884201D2012000E0002070B9B1
:1021F00000BF8548068801208349088040F6CF1239
:1022000082A187A010F0A2FA7F48068000BFA06BD1
:10221000E16B88421BD294F945602A466946204604
:10222000FFF78AFF0746701C60B9606A08B9012091
:1022300000E0002050B904F1240001F071FF28B142
:10224000012703E0701C40B284F8450000BF384607
:10225000BDE8FC8170B5044603F08AF994F9455055
:102260001AE0A06C38B100212046FFF7A3FF88B127
:1022700002F066F80EE0606A08B9012000E0002074
:1022800038B904F1240001F04BFF18B102F058F8FE
:1022900000E003E0681E45B2002DE2DC00BFFF2035
:1022A00084F8450003F090F903F062F994F9445082
:1022B00010E0206908B9012000E0002048B904F1CD
:1022C000100001F02DFF08B102F03AF8681E45B287
:1022D00000E001E0002DECDC00BFFF2084F84400AA
:1022E00003F072F970BD70B5054603F041F9A86BB3
:1022F000E96B884201D1012400E0002403F064F975
:10230000204670BD2DE9FF4782B0064688461D462F
:102310004FF00009344684B900BF3B48B0F800A034
:1023200001203949088040F2D92238A13CA010F0A0
:102330000DFA3548A0F800A000BFB8F1000F01D198
:10234000206C08B9012000E0002080B900BF2E48B1
:10235000B0F800A001202C49088040F2DA222BA11D
:102360002FA010F0F3F92848A0F800A000BF022D1C
:1023700002D1E06B012801D1012000E0002080B9EA
:1023800000BF2148B0F800A001201F49088040F29A
:10239000DB221EA122A010F0D9F91B48A0F800A052
:1023A00000BF01F0DFFF08B9049808B9012000E080
:1023B000002080B900BF1448B0F800A001201249E5
:1023C000088040F2DE2211A115A010F0BFF90E48DE
:1023D000A0F800A000BF00BF03F0CAF8A06BE16B3B
:1023E000884201D3022D4FD12A4641462046FFF7AD
:1023F000A3FE0746A06C20B329462046FFF7DAFE6D
:1024000090B34FF0805015E0DC0000202E2E5C468B
:1024100072656552544F535C71756575652E630026
:102420004572726F723A25732C25640D0A00000004
:1024300004ED00E0FE490860BFF34F8FBFF36F8FDC
:102440001CE0606A08B9012000E0002068B904F1CE
:10245000240001F065FE38B14FF08050F449086067
:10246000BFF34F8FBFF36F8F08E03FB14FF0805045
:10247000EF490860BFF34F8FBFF36F8F03F0A4F8ED
:10248000012006B0BDE8F087049818B903F09CF865
:102490000020F6E7B9F1000F04D1684601F0E5FE2F
:1024A0004FF0010903F090F801F099F803F060F89B
:1024B00094F94400401C10B9002084F8440094F9B9
:1024C0004500401C10B9002084F8450003F07CF85A
:1024D00004A9684601F0E4FEF8B92046FFF703FFBF
:1024E000A8B104F11000049901F06CFD2046FFF73B
:1024F000B1FE00F0C0FF00287FF46EAF4FF08050B7
:10250000CB490860BFF34F8FBFF36F8F64E720465E
:10251000FFF7A0FE00F0AFFF5EE72046FFF79AFE50
:1025200000F0A9FF0020ACE710B504464CB1002034
:1025300060602060E06000231A4619462046FFF7DD
:10254000E1FE10BD2DE9F041044601260027224698
:1025500000210120FFF7BEFD05462846FFF7E4FFF6
:102560002846BDE8F0812DE9F04105462C4684B9A6
:1025700000BFB04807880120AE49088040F24122E0
:10258000AFF27811AFF2681010F0E0F8A9480780B8
:1025900000BF01F0E4FE616888420CD1E068401E93
:1025A000E060E06828B900231A4619462046FFF784
:1025B000A9FE012600E000263046BDE8F08170B596
:1025C000054602F0D5FFA86B08B9012400E00024FD
:1025D00002F0FAFF204670BD70B504460D46206C2F
:1025E00070B1216CE0680844E0606168E06888428E
:1025F00001D32068E0602846226CE16810F027FCD7
:1026000070BD2DE9FF4782B005460E461F464FF0CC
:10261000000A2C4694B900BF8648B0F8009001200B
:102620008449088040F2DC42AFF22021AFF2102052
:1026300010F08CF87F48A0F8009000BF0EB9206C15
:1026400008B9012000E0002090B900BF7948B0F837
:10265000009001207749088040F2DD42AFF254211A
:10266000AFF2442010F072F87248A0F8009000BF5A
:1026700001F078FE08B9049808B9012000E00020B4
:1026800090B900BF6B48B0F80090012069490880FC
:102690004FF49C62AFF28C21AFF27C2010F056F820
:1026A0006448A0F8009000BF00BF02F061FFD4F8BA
:1026B0003890B9F1000F3DD0D4F80C803146204657
:1026C000FFF78AFFDFB9A9F10100A063206810B904
:1026D00002F00AF86060206908B9012000E00020DB
:1026E00010BB04F1100001F01BFDE8B14FF0805069
:1026F0004F490860BFF34F8FBFF36F8F14E0C4F8EA
:102700000C80606A08B9012000E0002060B904F183
:10271000240001F005FD38B14FF0805044490860B5
:10272000BFF34F8FBFF36F8F02F04EFF012006B053
:10273000BDE8F087049818B902F046FF0020F6E7DC
:10274000BAF1000F04D1684601F08FFD4FF0010A85
:1027500002F03AFF00F043FF02F00AFF94F9440050
:10276000401C10B9002084F8440094F94500401C36
:1027700010B9002084F8450002F026FF04A968463D
:1027800001F08EFD40BB2046FFF719FFF0B1206835
:1027900030B902F0EDFE606801F0F0FD02F014FFC8
:1027A00004F12400049901F00DFC2046FFF752FDCE
:1027B00000F061FE00287FF478AF4FF080501C4994
:1027C0000860BFF34F8FBFF36F8F6EE72046FFF7B0
:1027D00041FD00F050FE68E72046FFF73BFD00F0AA
:1027E0004AFE2046FFF7EBFE0028EED000209EE7D1
:1027F0002DE9F04106460F46344694B900BF0D4816
:10280000B0F8008001200B4908804FF41E72AFF22F
:102810000441AFF2F4300FF099FF0648A0F80080B1
:1028200000BF01F09CFD6168884209D1E06803E0C7
:1028300004ED00E0DC000020401CE06001250AE01F
:1028400000233A4619462046FFF7DBFE054615B140
:10285000E068401CE0602846BDE8F0812DE9F041C9
:1028600005460E460DB1012000E0002080B900BFF2
:10287000FA4807880120F949088040F2BD22AFF2EA
:102880007441AFF264400FF061FFF448078000BF6D
:10289000AE4201D8012000E0002080B900BFEF481F
:1028A00007880120ED49088040F2BE22AFF2A44122
:1028B000AFF294400FF04AFFE848078000BF0222C1
:1028C00000212846FFF706FC044604B1A663204613
:1028D000BDE8F0812DE9F05F80468A4615461E4628
:1028E000444694B900BFDD48B0F800B00120DB4990
:1028F000088040F29F32AFF2EC41AFF2DC400FF0C3
:1029000025FFD648A0F800B000BFBAF1000F01D1F2
:10291000206C08B9012000E0002090B900BFCF482A
:10292000B0F800B00120CD4908804FF46872AFF2D2
:102930002451AFF214500FF009FFC848A0F800B0BE
:1029400000BF022E02D1E06B012801D1012000E07E
:10295000002090B900BFC148B0F800B00120BF49C5
:10296000088040F2A132AFF25C51AFF24C500FF050
:10297000EDFEBA48A0F800B000BF02F05EFE00BF56
:102980005021EFF3118081F31188BFF34F8FBFF314
:102990006F8F00BF0746A06BE16B884201D3022E08
:1029A0002BD194F945B0324651462046FFF7C4FB7F
:1029B0000BF10100C8B9A06C40B131462046FFF7C9
:1029C000F9FBB8B1B5B10120286013E0606A08B91D
:1029D000012000E0002068B904F1240001F0A0FB10
:1029E00040B13DB10120286004E00BF1010040B28C
:1029F00084F845004FF0010901E04FF0000900BFE5
:102A000087F3118800BF4846BDE8F09F2DE9F047E5
:102A100007460D463C4694B900BF9048B0F8009078
:102A200001208E49088040F23C42AFF22061AFF2B3
:102A300010600FF08BFE8948A0F8009000BF206C5A
:102A400008B9012000E0002090B900BF8348B0F829
:102A500000900120814908804FF48862AFF25461F0
:102A6000AFF244600FF072FE7C48A0F8009000BF07
:102A7000206808B9606808B9012000E0002090B91A
:102A800000BF7648B0F8009001207449088040F2F9
:102A90004542AFF28861AFF278600FF057FE6F48A1
:102AA000A0F8009000BF02F0C8FD00BF5021EFF376
:102AB000118081F31188BFF34F8FBFF36F8F00BF79
:102AC0000646D4F83890E06B484529D994F945A0DA
:102AD00009F10100A0630AF10100C8B9A06C40B17E
:102AE00000212046FFF766FBB8B1B5B10120286090
:102AF00013E0606A08B9012000E0002068B904F121
:102B0000240001F00DFB40B13DB10120286004E03C
:102B10000AF1010040B284F845004FF0010801E0DD
:102B20004FF0000800BF86F3118800BF4046BDE8A3
:102B3000F0872DE9F05F064689461746344694B97A
:102B400000BF4648B0F800A00120444908804FF477
:102B5000B462AFF24871AFF238700FF0F7FD3F4842
:102B6000A0F800A000BFB9F1000F01D1206C08B996
:102B7000012000E0002090B900BF3848B0F800A064
:102B800001203649088040F2A152AFF28071AFF2C5
:102B900070700FF0DBFD3148A0F800A000BF02F01C
:102BA0004CFD00BF5021EFF3118081F31188BFF37A
:102BB0004F8FBFF36F8F00BF0546D4F838A0BAF12E
:102BC000000F22D094F944B049462046FFF704FD97
:102BD000AAF10100A0630BF1010070B9206908B9E6
:102BE000012000E0002068B904F1100001F098FA1B
:102BF00040B13FB10120386004E00BF1010040B268
:102C000084F844004FF0010801E04FF0000800BFD5
:102C100085F3118800BF4046BDE8F09F2DE9F047DD
:102C200006468846344694B900BF0C48B0F800A068
:102C300001200A49088040F2FC52AFF63001AFF69D
:102C400020000FF083FD0548A0F800A000BFB8F1F8
:102C5000000F01D1206C18B9012002E0DC00002037
:102C6000002090B900BFD548B0F800A00120D3499A
:102C7000088040F2FD52AFF66C01AFF65C000FF039
:102C800065FDCE48A0F800A000BF206C08B101206F
:102C900000E0002090B900BFC848B0F800A00120B3
:102CA000C649088040F2FE52AFF6A001AFF6900090
:102CB0000FF04CFDC148A0F800A000BF02F0BDFC21
:102CC00000BF5021EFF3118081F31188BFF34F8FC4
:102CD000BFF36F8F00BF0546A06B48B1D4F80C90CE
:102CE00041462046FFF778FCC4F80C90012700E02D
:102CF000002700BF85F3118800BF3846BDE8F08784
:102D000070B5044684B900BFAC4806880120AB49C1
:102D1000088040F22F62AFF60C11AFF6FC000FF006
:102D200015FDA648068000BF02F022FCA56B02F04C
:102D30004BFC284670BD2DE9F0410446254685B977
:102D400000BF9E48078801209C49088040F24162EC
:102D5000AFF64811AFF638100FF0F8FC974807802F
:102D600000BF02F005FCD5E90E10461A02F02CFC5B
:102D70003046BDE8F08170B5044684B900BF8F4885
:102D8000068801208D49088040F25162AFF6841117
:102D9000AFF674100FF0DAFC8848068000BFA56B10
:102DA000284670BD014600200EE0854A02EBC002B5
:102DB00052688A4207D10022814B43F8302003EB4E
:102DC000C0035A6002E0401C0828EED300BF7047E1
:102DD00070B50446254685B900BF784806880120AD
:102DE0007649088040F25D62AFF6E011AFF6D01090
:102DF0000FF0ACFC7148068000BF2846FFF7D2FFF9
:102E0000284602F090FD70BD0146C86C7047C16451
:102E10007047014691F85000704770B5044684B978
:102E200000BF6648068801206449088040F293721A
:102E3000AFF62821AFF618200FF088FC5F48068017
:102E400000BFA06B08B9012500E00025284670BD31
:102E500070B5044684B900BF584806880120574918
:102E6000088040F2BA72AFF65C21AFF64C200FF04A
:102E70006DFC5248068000BFA06BE16B884201D117
:102E8000012500E00025284670BD024600200BE029
:102E90004B4B53F8303033B9494B43F8301003EB08
:102EA000C0035A6002E0401C0828F1D300BF7047FD
:102EB0000246002000210AE0414B03EBC1035B689E
:102EC000934203D13E4B53F8310002E0491C0829DC
:102ED000F2D300BF70472DE9F04105460E46174674
:102EE0002C4602F045FB94F94400401C10B9002028
:102EF00084F8440094F94500401C10B9002084F87F
:102F0000450002F061FBA06B28B93A46314604F156
:102F1000240001F0DFF82046FFF79CF9BDE8F081BE
:102F200070B50446002204212046FFF7D3F8054679
:102F3000284670BD70B504460E4602F019FBA06C21
:102F400008B1002505E0A06B08B1002501E0A664EA
:102F5000012502F039FB284670BD2DE9F0410546F8
:102F60000F462E46B06CB84201D000240AE0B06B88
:102F700008B1002406E002F0FBFA0020B06402F081
:102F800023FB01242046BDE8F08138B505460C46F8
:102F9000002000900023224669462846FFF731FBB7
:102FA000009838BD38B504460020009000226946DC
:102FB0002046FFF7BEFD009838BD0000DC00002071
:102FC000301C002010B5002407E004EB8401FD4A0A
:102FD00002EB8100FEF7CEFF641C202CF5D3FA48EB
:102FE000FEF7C8FFF948FEF7C5FFF948FEF7C2FF34
:102FF000F848FEF7BFFFF848FEF7BCFFF248F74974
:103000000860F248F649086010BD10B5044602F0A9
:10301000AFFAF4480068401CF2490860F2480068C2
:1030200040B9F14804600846006801280DD1FFF757
:10303000C9FF0AE0ED48006838B9EB480068C06A8B
:10304000E16A884201D8E8480460E9480068401C09
:10305000E749086008460068606494F82C10012075
:103060008840E44909680843E2490860E16A01EBE5
:103070008101D44A02EB8100211DFEF78BFF02F093
:10308000A3FADA48006868B1D7480068C06AE16A04
:10309000884207D24FF08050D7490860BFF34F8F66
:1030A000BFF36F8F10BD2DE9F84F82460F46904653
:1030B0009B460A9E0C9C4FEA8801A522206B0FF0CC
:1030C0003DFFA8F10100216B01EB800929F0070900
:1030D00009F0070008B9012000E0002080B900BF16
:1030E000C648008800900120C449088040F22B3275
:1030F000C3A1C8A00FF02AFBC0490098088000BFF8
:10310000002507E0795D04F134004155785D00B990
:1031100002E06D1C102DF5D300BF002143200155A6
:10312000202E00D31F26E662E66400202065201DC5
:10313000FEF72DFF04F11800FEF729FF2461C6F108
:103140002000A061646200206065A06584F85C00D6
:103150005A465146484602F035F920600B9808B1AE
:103160000B980460BDE8F88F2DE9FF4F85B08046CD
:1031700089461746DDE912ABB80002F030FB06467F
:1031800056B1602002F02BFB04460CB1266304E02C
:10319000304602F0C8FB00E000247CB10020CDE9FD
:1031A00000ABCDE902403A4649464046089BFFF74E
:1031B0007AFF2046FFF729FF012501E04FF0FF3598
:1031C000284609B0BDE8F08F84490968096809B943
:1031D000012100E0002121B14FF0FF31914A11603F
:1031E00006E07E490968C968C8688E4A416811606E
:1031F000704710B50446206B02F095FB204602F0A4
:1032000092FB10BD70B5054602F0B2F915B97648CB
:10321000006800E028460446201DFEF7E1FE78B96C
:10322000E06A00EB8000674951F8200040B994F84B
:103230002C10012088406F49096881436D48016066
:10324000A06A18B104F11800FEF7CAFE68480068C9
:10325000401C6749086064480068844209D1211D08
:103260005C48FEF797FE70480068401C6E49086095
:1032700009E05C480068401E5A4908602046FFF794
:10328000B8FFFFF7A1FF02F09FF95848006808B3A4
:103290005548006884421DD16448006808B901207F
:1032A00000E0002070B900BF54480688012053494F
:1032B000088040F2654252A156A00FF047FA4F48ED
:1032C000068000BF4FF080504B490860BFF34F8F1E
:1032D000BFF36F8F70BD2DE9F0474FF000085348E2
:1032E000006800286DD152480068451C50480560B0
:1032F000002D28D139480068006808B9012000E095
:10330000002080B900BF3D48B0F8009001203B4943
:10331000088040F6D9123AA13EA00FF017FA3748BC
:10332000A0F8009000BF2D4807682D4800682B4981
:1033300008602B4807603F480068401C3D49086012
:10334000FFF742FF00BF37480068854279D300BFCE
:1033500022480068006808B9012000E0002020B180
:103360004FF0FF302F4908606AE01C480068C068D1
:10337000C4686668B54202D22A48066060E0201D33
:10338000FEF72EFEA06A18B104F11800FEF728FE21
:1033900094F82C1001208840164909680843154903
:1033A0000860E16A01EB8101064A02EB8100211D00
:1033B000FEF7F0FD0C49E06A0968C96A8842C7D384
:1033C0003BE04BE0701C0020F01E0020041F00209A
:1033D000181F00202C1F0020401F00204C00002040
:1033E0005000002058000020480000206400002009
:1033F000740000206000002004ED00E0DC000020EC
:103400002E2E5C4672656552544F535C7461736B2B
:10341000732E63004572726F723A25732C25640D0A
:103420000A000000780000205400002080000020E6
:103430005C0000207000002003E04FF0010887E7E7
:1034400000BFF8480068C06A00EB8000F64951F8F8
:103450002000012801D94FF0010804E0F34800687A
:10346000401CF2490860F248006808B14FF00108BA
:103470004046BDE8F08770B500240026ED4800689E
:1034800080B900BFEC4805880120EB4908804FF463
:10349000FD62AFF29401AFF284000FF057F9E648F5
:1034A000058000BF02F064F8E2480068401EE14970
:1034B00008600846006800284FD1E04800680028EE
:1034C0004BD024E0DE48C068C46804F11800FEF761
:1034D00087FD201DFEF784FD94F82C100120884004
:1034E000D84909680843D7490860E16A01EB8101BE
:1034F000CD4A02EB8100211DFEF74CFDC949E06A6F
:103500000968C96A884202D30120C9490860CC48C9
:10351000006808B9012000E000200028D2D00CB1DA
:10352000FFF752FEC148056865B100BFFFF7D3FE43
:1035300010B10120BE4908606D1E002DF6D100209B
:10354000BA490860BA48006838B101263007BE4958
:103550000860BFF34F8FBFF36F8F02F035F830462E
:1035600070BD2DE9F04105460E46B8480768AD48E4
:103570000068001DFEF734FD50B9AA48006890F8B5
:103580002C1001208840AF4909688143AD48016093
:10359000681C38B936B1A3480168091DAC48FEF76C
:1035A000F9FC1AE07C199F4800684460BC4207D2CD
:1035B0009C480168091DA7480068FEF7F7FC0CE06D
:1035C00098480168091DA4480068FEF7EFFCA3486D
:1035D0000068844201D2A1480460BDE8F0819548AA
:1035E0000068401C9349086070472DE9F047044685
:1035F0000F464FF0000984B900BF8F4806880120AC
:103600008D49088040F27942AFF20C21AFF2FC10F4
:103610000FF09CF88848068000BF0FB1012000E041
:10362000002080B900BF84480688012082490880B4
:1036300040F27A42AFF23821AFF228200FF086F83C
:103640007D48068000BF7B48006808B9012000E083
:10365000002080B900BF784806880120764908809C
:1036600040F27B42AFF26821AFF258200FF06EF8C3
:103670007148068000BFFFF7B2FF744806682068F3
:10368000C5192068B04207D92068A8420BD9B542B5
:1036900009D94FF0010906E02068A84201D8B542D7
:1036A00001D94FF001092560B9F1000F03D0A81B23
:1036B0000021FFF756FFFFF7DEFE8046B8F1000F4E
:1036C00007D14FF0805060490860BFF34F8FBFF3C0
:1036D0006F8FBDE8F08770B50446002504B35548E8
:1036E000006808B9012000E0002080B900BF5248FE
:1036F000068801205049088040F2CF42AFF20031E5
:10370000AFF2F0200FF022F84B48068000BFFFF721
:1037100066FF00212046FFF724FFFFF7ACFE0546B9
:103720003DB94FF0805048490860BFF34F8FBFF359
:103730006F8F70BD2DE9F04107463E4696B900BF38
:103740003D48B0F8008001203B49088040F2FB4230
:10375000AFF25431AFF244300EF0F8FF3648A0F823
:10376000008000BF2F480068864201D100241EE07F
:1037700001F0FEFE756901F027FF374800688542B9
:1037800003D034480068854201D102240FE030485C
:10379000854205D1B06A08B9032408E0022406E096
:1037A0002F48854200D00DB9042400E001242046B2
:1037B000BDE8F08170B5044601F0DAFE14B919488D
:1037C000006800E020460646F56A01F0FDFE284646
:1037D00070BD2DE9F041054601F02FFF00BF5021DB
:1037E000EFF3118081F31188BFF34F8FBFF36F8F19
:1037F00000BF044615B90B48006800E0284607469C
:10380000FE6A00BF84F3118800BF3046BDE8F08136
:103810002DE9F04780460D464FF00009202D21D2BA
:10382000012020E048000020701C002068000020DB
:103830006C00002080000020DC00002058000020E8
:10384000181F00206000002004ED00E05C00002054
:10385000401F0020500000204C0000207800002075
:103860002C1F0020002090B900BFFE48B0F800A037
:103870000120FC4908804FF4B062AFF27C41AFF206
:103880006C400EF063FFF748A0F800A000BF202DA9
:1038900000D31F2501F06CFEB8F1000F02D1F248F1
:1038A000006800E040460446E66CAE4256D0B542A1
:1038B0000BD9ED48006884420DD0EB480068C06A1F
:1038C000A84208D84FF0010905E0E74800688442A3
:1038D00001D14FF00109E76AE16AE06C884200D14A
:1038E000E562E564A06900F0004010B9C5F1200070
:1038F000A06107EB8701DD4A02EB81016069884224
:1039000001D1012000E00020E0B1201DFEF768FB9E
:1039100030B90120B840D64909688143D4480160D4
:1039200094F82C1001208840D14909680843D049F7
:103930000860E16A01EB8101CC4A02EB8100211DA4
:10394000FEF728FBB9F1000F07D04FF08050C949AE
:103950000860BFF34F8FBFF36F8F00BF01F034FEDD
:10396000BDE8F08770B5C448006818B10120C349AC
:10397000086052E00020C1490860C1480068C149A0
:10398000086008460068C049096888420BD9B649F2
:10399000096801F15400496DBA4A1268BA4B1B68B4
:1039A000D21A11440160B7480068B7490860B048AE
:1039B0000068B0FA80F0C0F11F0404EB8400AB494A
:1039C00051F8200008B1012000E0002080B900BFBC
:1039D000A44805880120A349088040F6F622AFF2EA
:1039E000E051AFF2D0500EF0B1FE9E48058000BF0E
:1039F00004EB84019D4A02EB810041684968416003
:103A000000F1080142688A4202D141684968416078
:103A10004168C968944A116000BF70BD70B5054621
:103A200001F0A6FD15B99048006800E0284604465C
:103A3000201DFEF7D5FA78B9E06A00EB80008B49CB
:103A400051F8200040B994F82C1001208840884992
:103A50000968814386480160A06A18B104F1180022
:103A6000FEF7BEFA211D8948FEF794FA01F0ACFD7D
:103A70008748006828B101F07BFDFFF7A5FB01F046
:103A8000A3FD7948006884422FD18148006800B3C3
:103A90007948006808B9012000E0002080B900BF23
:103AA0007048068801206F49088040F25762AFF2E3
:103AB000B061AFF2A0600EF049FE6A48068000BF18
:103AC0004FF080506B490860BFF34F8FBFF36F8F8B
:103AD0000BE06E4800686F490968884203D10020F6
:103AE0006149086001E0FFF73DFF70BD2DE9F0413D
:103AF000054600262C4685B900BF5A480788012094
:103B00005849088040F28162AFF20C71AFF2FC605C
:103B10000EF01CFE5348078000BF5C496069884274
:103B200001D1012000E0002070B15B49A06A884209
:103B300001D1012000E0002030B9A06A08B90120BD
:103B400000E0002000B101263046BDE8F08170B5EC
:103B500005462C4685B900BF4248068801204149E8
:103B6000088040F2AB62AFF26871AFF258700EF0AD
:103B7000EDFD3C48068000BF74B33B4800688442BA
:103B80002AD001F0F5FC2046FFF7B0FF10B3201D4E
:103B9000FEF726FA94F82C10012088403449096871
:103BA000084333490860E16A01EB81012F4A02EBC7
:103BB0008100211DFEF7EEF92B49E06A0968C96A08
:103BC000884207D34FF080502A490860BFF34F8FD7
:103BD000BFF36F8F01F0F8FC70BD2DE9F041064690
:103BE0000027344696B900BF1E48B0F80080012077
:103BF0001C49088040F2E262AFF2FC71AFF2EC7057
:103C00000EF0A4FD1748A0F8008000BF01F015FDDC
:103C100000BF5021EFF3118081F31188BFF34F8F64
:103C2000BFF36F8F00BF05462046FFF75FFFA8B3C5
:103C30001148006898BB0C49E06A0968C96A884263
:103C400000D30127201DFEF7CBF994F82C1001209A
:103C5000884007490968084305490860E16A01EBA3
:103C600081011DE0DC00002048000020701C0020C5
:103C70006000002004ED00E0800000206C000020C7
:103C8000E00000208800002084000020401F002069
:103C90006400002058000020181F00200CE006E0FF
:103CA000F84A02EB8100211DFEF774F904E004F1EB
:103CB0001801F548FEF76EF900BF85F3118800BFC3
:103CC0003846BDE8F08170B523E0FFF788FCEF4887
:103CD000006808B9012000E000200546FFF7CBFB93
:103CE000BDB901F045FCE948C068C468201DFEF775
:103CF00077F9E7480068401EE5490860E548006834
:103D0000401EE449086001F05FFC2046FFF771FAAD
:103D100000BFE04800680028D7D170BD00BFFFF7A2
:103D2000D2FFD84800680128F9D94FF08050DA490D
:103D30000860BFF34F8FBFF36F8FF0E77CB5D748B4
:103D400000210B468222CDE90010D5A1D648FFF70D
:103D50000BFA0446012C02D101F089F90446012C2A
:103D600017D100BF502080F31188BFF34F8FBFF3EE
:103D70006F8F00BF4FF0FF30CC4908600120CC4965
:103D800008600020CB490860CB49086001F03AFB8D
:103D900016E0601C08B1012000E0002080B900BFDF
:103DA000C64805880120C549088040F28472AFF6F4
:103DB000B011AFF6A0100EF0C9FCC048058000BFDE
:103DC0007CBD10B500BF502080F31188BFF34F8F2A
:103DD000BFF36F8F00BF0020B549086001F0AEFB54
:103DE00010BDB4490868704770B501F026FC002585
:103DF000B0480468204670BDA5480068704770B59B
:103E0000044614B9AE48006800E02046054685B96E
:103E100000BFAA4806880120A849088040F68C0205
:103E2000AFF62421AFF614200EF090FCA3480680D4
:103E300000BF05F1340070BD0246002101E0521CB4
:103E4000491C1078A528FAD0890888B270472DE956
:103E5000F04107460C4690461E4617B99848006840
:103E600000E038460546256005F134006060E86AE8
:103E70002061286BE061686CA060207B032807D17B
:103E8000FFF7ADFBA86A08B102202073FFF7F3FA31
:103E9000E86C6061686DA061052E01D0267303E0B7
:103EA0003846FFF747FC2073B8F1000F04D0286BA9
:103EB000FFF7C2FF208401E000202084BDE8F081EC
:103EC0002DE9F04707460C4690460026206848B387
:103ED000204641684968416000F1080142688A4211
:103EE00002D14168496841604168D1F80C9000BF37
:103EF000204641684968416000F1080142688A42F1
:103F000002D14168496841604168CD6806EBC6004E
:103F100007EB8001434601222846FFF798FF761CF5
:103F20004D45E5D13046BDE8F0872DE9F041054625
:103F30008846164600242027FFF751FB54480068A6
:103F400080453AD300BF7F1E07EB87024D4B03EB42
:103F5000820104EBC40205EB82000122FFF7B0FFEF
:103F60000444002FEFD104EBC40105EB81000222D1
:103F700054490968FFF7A4FF044404EBC40105EBAE
:103F80008100022250490968FFF79AFF044404EBBC
:103F9000C40105EB810004223C49FFF791FF044472
:103FA00004EBC40105EB810003224849FFF788FFB9
:103FB000044416B1404800683060FFF75CFA2046C0
:103FC000BDE8F08170B504460D4684B900BF3B489A
:103FD000068801203949088040F60632AFF6E03104
:103FE000AFF6D0300EF0B2FB3448068000BF344844
:103FF000016818312046FDF7D9FF01212846FFF757
:10400000B0FA70BD2DE9F04104460D46164684B95C
:1040100000BF2A48078801202849088040F6173247
:10402000AFF62441AFF614400EF090FB2348078012
:1040300000BF2748006808B1012000E0002080B9D7
:1040400000BF1E48078801201C49088040F61B322B
:10405000AFF65441AFF644400EF078FB17480780A6
:1040600000BF45F00040164909688861144801689E
:1040700018312046FDF78EFF01213046FFF771FA17
:10408000BDE8F081701C0020181F00202C1F0020AC
:10409000580000205400002004ED00E07C000020C7
:1040A00049444C45000000001D3D010878000020F7
:1040B000640000205C000020E0000020DC00002004
:1040C000480000204C00002050000020401F00202D
:1040D000800000202DE9F04105460E46144685B9C2
:1040E00000BFFE4807880120FC49088040F63132B5
:1040F000AFF6F441AFF6E4400EF028FBF748078036
:1041000000BFF748016818312846FDF743FF0CB19E
:104110004FF0FF3621463046FFF723FABDE8F08125
:104120002DE9F0410646F068C46884B900BFEB4849
:1041300007880120E949088040F66132AFF6405116
:10414000AFF630500EF002FBE448078000BF04F1E8
:104150001800FDF745FFE3480068A8B9201DFDF7EA
:104160003FFF94F82C1001208840DF49096808437C
:10417000DD490860E16A01EB8101DC4A02EB810064
:10418000211DFDF707FF04E004F11801D848FDF7F1
:1041900001FFD349E06A0968C96A884204D9012548
:1041A0000120D449086000E000252846BDE8F081E0
:1041B0002DE9F04105460F46CA48006808B10120C4
:1041C00000E0002090B900BFC448B0F80080012092
:1041D000C249088040F69932AFF6DC51AFF6CC50B8
:1041E0000EF0B4FABD48A0F8008000BF47F00040D0
:1041F0002860EC6894B900BFB848B0F8008001208E
:10420000B649088040F6A132AFF60C61AFF6FC501B
:104210000EF09CFAB148A0F8008000BF2846FDF7D8
:10422000DFFE201DFDF7DCFE94F82C1001208840F5
:10423000AD4909680843AC490860E16A01EB8101B6
:10424000AA4A02EB8100211DFDF7A4FEA449E06A01
:104250000968C96A884204D901260120A549086075
:1042600000E000263046BDE8F08170B5044684B910
:1042700000BF9A48058801209849088040F6C1325D
:10428000AFF68461AFF674600EF060FA9348058073
:1042900000BF99480068206098480068606070BD61
:1042A0002DE9F04104460D4684B900BF8B480788CC
:1042B00001208A49088040F6CB32AFF6BC61AFF6E8
:1042C000AC600EF043FA8548078000BF85B900BF97
:1042D0008248078801208149088040F6CC32AFF639
:1042E000E061AFF6D0600EF031FA7C48078000BF85
:1042F00001F03EF9814807682868401C08B900268B
:1043000019E07D4920680968884204D06068B84295
:1043100001D801260FE06068381A2968884209D25E
:1043200028686168791A401A28602046FFF79DFFC7
:10433000002600E0012601F047F93046BDE8F08193
:1043400001206C4908607047014611B10A46906C23
:1043500000E00020704708B1024691647047604950
:10436000086870476649096809B9012005E05D4998
:10437000096809B9022000E00020704770B50546C1
:104380002C46002D4BD05649E06A0968C96A88421C
:1043900045D2A06900F0004028B951480068C06AC1
:1043A000C0F12000A061E16A01EB81014F4A02EBFC
:1043B00081016069884201D1012000E0002050B3F2
:1043C000201DFDF70DFE78B9E06A00EB800047493B
:1043D00051F8200040B994F82C100120884042493F
:1043E00009688143404801603D480068C06AE06256
:1043F00094F82C10012088403B49096808433A4949
:104400000860E16A01EB8101384A02EB8100211D5D
:10441000FDF7C0FD03E032480068C06AE06270BD8D
:104420002DE9F04105462C460026002D77D02C487A
:104430000068844201D1012000E0002078B900BF6B
:104440002648078801202549088040F6C7622D4983
:1044500001F114000EF07AF92048078000BF206DAA
:1044600078B900BF1D48078801201C49088040F624
:10447000C962244901F114000EF068F91748078059
:1044800000BF206D401E2065E16CE06A884246D086
:10449000206DC8BB201DFDF7A3FD78B9E06A00EBD5
:1044A0008000124951F8200040B994F82C100120E6
:1044B00088400D49096881430B480160E06CE06267
:1044C000E06AC0F12000A06194F82C10012088401F
:1044D0000549096808430449086016E0DC0000202B
:1044E000480000208000002060000020701C002098
:1044F000181F00206C000020700000205C000020CD
:10450000640000200034010809E0E16A01EB810148
:10451000FE4A02EB8100211DFDF73CFD01263046DD
:10452000BDE8F08170B505460E46314628460EF0CE
:10453000DFFB28460EF015FC044602E0202028553B
:10454000641C0F2CFAD300202855281970BD7FB5A4
:10455000054600202870EE4800680390EC49096881
:1045600001EBC101880001F03AF90446002C53D058
:10457000002220460399FFF7D8FC03900020029008
:1045800043E0029800EBC00004EB8000007B0128B0
:1045900006D0022806D0032806D0042808D105E05A
:1045A000522607E0422605E0532603E0442601E0B8
:1045B000002600BF00BF029800EBC00004EB8000A3
:1045C00041682846FFF7AEFF0546029800EBC000A1
:1045D00004EB80008068029901EBC10104EB8101CA
:1045E000098CCDE90010029800EBC00004EB8000BC
:1045F0003246C8A1036928460EF0B4F828460EF0EA
:10460000B0FB05440298401C0290DDE9020188429B
:10461000B7D3204601F087F97FBDFEB505460020DF
:104620002870BB4800680290B949096801EBC101D4
:10463000880001F0D4F80446002C48D06A46204691
:104640000299FFF772FC029064210098B0FBF1F030
:1046500000900098002837D00020019030E00198A9
:1046600000EBC00004EB800080690099B0FBF1F61C
:10467000019800EBC00004EB800041682846FFF77A
:1046800051FF05465EB1019800EBC00004EB8000CD
:104690003346A4A1826928460EF064F809E0019827
:1046A00000EBC00004EB8000A1A1826928460EF057
:1046B00059F828460EF055FB05440198401C01901E
:1046C000DDE901018842CAD3204601F02CF9FEBD84
:1046D0009A490968886999490968C96AC1F120013C
:1046E000964A1268916170479448006830B19349C6
:1046F000096801F15000096D491C01608F4800688C
:10470000704770B506460D4600F032FF8B480068D2
:10471000806D88B901208949096881F85C005DB124
:1047200001212846FEF71DFF4FF0805084490860A4
:10473000BFF34F8FBFF36F8F00F046FF00F018FFFD
:104740007E480068846D4CB126B100207B49096821
:10475000886503E0601E794909688865002077490B
:10476000096881F85C0000F02FFF204670BD2DE93C
:10477000F0410746884614461D4600F0F9FE6F4892
:10478000006890F85C00022818D06C49096801F1B3
:104790005800896DB943016001206849096881F8B2
:1047A0005C005DB101212846FEF7DBFE4FF0805032
:1047B00063490860BFF34F8FBFF36F8F00F004FFB2
:1047C00000F0D6FE1CB15D480068806D20605B483B
:1047D000006890F85C00012801D1002608E05749E4
:1047E000096801F15800896D21EA0801016001267C
:1047F00000205249096881F85C0000F0E5FE30466F
:10480000BDE8F0812DE9F05F06460D461746984653
:104810004FF0010A8EB900BF4A48B0F800B001203D
:104820004849088041F2FD02474901F114000DF0AA
:104830008DFF4448A0F800B000BF344600F098FE59
:10484000B8F1000F02D0A06DC8F8000094F85C9099
:10485000022084F85C00052F17D2DFE807F015036B
:10486000070B0D00A06D2843A0650EE0A06D401C55
:10487000A0650AE0A56508E0B9F1020F01D0A565C1
:1048800001E04FF0000A00E000BF00BFB9F1010FE6
:104890003AD1201DFDF7A4FB94F82C10012088408C
:1048A0002A490968084329490860E16A01EB810146
:1048B000164A02EB8100211DFDF76CFBA06A08B9C6
:1048C000012000E0002088B900BF1E48B0F800B009
:1048D00001201C49088041F235121B4901F11400E6
:1048E0000DF034FF1748A0F800B000BF1349E06A8C
:1048F0000968C96A884207D94FF08050104908609A
:10490000BFF34F8FBFF36F8F22E00000701C0020B9
:1049100058000020092563092575092575092575A5
:104920000D0A00000925750909257525250D0A00C0
:1049300009257509093C3125250D0A00480000208C
:1049400004ED00E0DC0000200034010860000020DD
:1049500000F03AFE5046BDE8F09F2DE9FC5F0746A7
:104960000E4690469946DDF830B0012001908FB98F
:1049700000BF94480088009001209249088041F2CD
:104980006812914901F114000DF0E0FE8D49009884
:10499000088000BF00F051FE3C4600BF5021EFF3FD
:1049A000118081F31188BFF34F8FBFF36F8F00BF6A
:1049B0000546B9F1000F02D0A06DC9F8000094F8C7
:1049C0005CA0022084F85C00B8F1050F17D2DFE884
:1049D00008F01503070B0D00A06D3043A0650EE035
:1049E000A06D401CA0650AE0A66508E0BAF1020FC0
:1049F00001D0A66501E00020019000E000BF00BFEB
:104A0000BAF1010F45D1A06A08B9012000E00020E9
:104A100088B900BF6B480088009001206949088070
:104A200041F2AF12684901F114000DF08FFE6549A3
:104A30000098088000BF65480068A8B9201DFDF7F0
:104A4000CFFA94F82C100120884061490968084386
:104A50005F490860E16A01EB81015E4A02EB810077
:104A6000211DFDF797FA04E004F118015A48FDF7FB
:104A700091FA5A49E06A0968C96A884209D9BBF1C2
:104A8000000F03D00120CBF8000002E001205449C0
:104A9000086000BF85F3118800BF0198BDE8FC9F46
:104AA0002DE9F04705460F468DB900BF4548B0F8DF
:104AB000009001204349088041F2E312424901F18C
:104AC00014000DF043FE3F48A0F8009000BF00F036
:104AD000B4FD2C4600BF5021EFF3118081F3118803
:104AE000BFF34F8FBFF36F8F00BF064694F85C8013
:104AF000022084F85C00A06D401CA065B8F1010F95
:104B000042D1A06A08B9012000E0002088B900BFA6
:104B10002C48B0F8009001202A49088041F209226F
:104B2000294901F114000DF011FE2648A0F800906B
:104B300000BF26480068A8B9201DFDF751FA94F877
:104B40002C10012088402249096808432049086048
:104B5000E16A01EB81011F4A02EB8100211DFDF793
:104B600019FA04E004F118011B48FDF713FA1B4978
:104B7000E06A0968C96A884206D917B1012038601D
:104B800002E001201649086000BF86F3118800BFCB
:104B9000BDE8F08770B5054615B91048006800E01B
:104BA0002846064600F0E4FC96F85C00022804D192
:104BB000002086F85C00012400E0002400F004FDE1
:104BC000204670BDDC000020003401088000002079
:104BD00060000020701C0020181F002048000020EA
:104BE0006C0000202DE9F04104460D4616461F4694
:104BF0004FF0000865602461B5420CD8F01BA16934
:104C0000884202D34FF0010811E0211DFE480068E0
:104C1000FDF7CCF90BE0BE4204D2BD4202D34FF007
:104C2000010804E0211DF9480068FDF7BFF940467E
:104C3000BDE8F0812DE9FF4704460D4616461F46A4
:104C4000DDF830804FF0000984B900BFF048B0F8BB
:104C500000A00120EE4908804FF4D372EDA1F3A02B
:104C60000DF074FDEA48A0F800A000BFF34800680A
:104C700010B3009501960294062D15DAFFF772FB2A
:104C8000022808D1002342466946EC480068FDF737
:104C900039FB814610E000231A466946E748006860
:104CA000FDF730FB814607E000233A466946E348BA
:104CB0000068FDF70FFE8146484604B0BDE8F08766
:104CC0002DE9F84338E0D1480068C0680568CF484E
:104CD0000068C068C468201DFDF782F92046616A3B
:104CE0008847E069012827D1A0694619AE4207D953
:104CF00066602461211DC5480068FDF757F91BE077
:104D0000002003462A46014600902046FFF792FF06
:104D1000074687B900BFBE48B0F800900120BC49E3
:104D2000088040F29232BBA1C0A00DF00FFDB84840
:104D3000A0F8009000BF00BFB4480068006808B940
:104D4000012000E000200028BDD0B048D0F800804D
:104D5000AD480068AD490860AB48C0F80080BDE8C8
:104D6000F88370B50446FFF73CF80546B448006880
:104D7000854204D2FFF7A4FF0120206001E000205B
:104D80002060AF480560284670BD2DE9F04186B02F
:104D90008DE00298002817DA03AE86B900BF9C4860
:104DA000B0F8008001209A49088040F2E72299A1DA
:104DB0009EA00DF0CBFC9648A0F8008000BFD6E97D
:104DC0000020B168904700BF029800286FDB049C68
:104DD000606908B9012000E0002010B9201DFDF72E
:104DE000FFF801A8FFF7BDFF054602980A285CD22C
:104DF000DFE800F00905073537570608363800BFE9
:104E000000BF00BF00BF0398A269811803462A466D
:104E10002046FFF7E7FE08B32046616A8847E0694D
:104E200001281BD1002000900398A169421800239B
:104E300019462046FFF7FEFE074677B900BF7448C3
:104E4000068801207249088040F2213271A177A0C2
:104E50000DF07CFC6E48068000BF00BF26E000BF5E
:104E600024E000BF0398A061A06908B1012000E020
:104E7000002070B900BF6648068801206449088098
:104E80004FF44E7263A169A00DF060FC604806808B
:104E900000BFA06941192B462A462046FFF7A2FE13
:104EA00004E0204600F03FFD00E000BF00BF00230B
:104EB0001A4602A961480068FDF7A3FB00287FF4A9
:104EC00068AF06B0BDE8F0812DE9F84305460F460E
:104ED0004E480068C068C468201DFDF781F8E0698D
:104EE000012823D1A06941192B463A462046FFF7F5
:104EF00079FED8B1002003462A460146009020469C
:104F0000FFF798FE064686B900BF4148B0F800801A
:104F100001203F4908804FF402723EA143A00DF0EA
:104F200015FC3B48A0F8008000BF00BF2046616A26
:104F30008847BDE8F883F8B505460C46FEF74FFBF9
:104F40006846FFF70EFF0646009820BB44B9B542FD
:104F500006D8FEF790FA31462846FFF7B5FF1CE069
:104F60003CB129480068006808B9012000E0002031
:104F70000446A91B224631480068FDF7ACFFFEF746
:104F80007AFA50B94FF080502E490860BFF34F8F26
:104F9000BFF36F8F01E0FEF76EFAF8BD01461B4AC2
:104FA000126812680AB9012200E000220A600A6849
:104FB00022B9164A1268D268106800E000207047D3
:104FC00008B500BF6846FFF7E9FF04462046009990
:104FD000FFF7B1FFFFF7D9FEF4E710B500F0C8FA0C
:104FE0001648006878B91848FCF7C4FF1748FCF762
:104FF000C1FF1548054908601448034908600022AC
:105000001021052024E02FE0900000208C000020DB
:10501000DC0000202E2E5C4672656552544F535CB6
:1050200074696D6572732E63000000004572726FC3
:10503000723A25732C25640D0A00000094000020AC
:105040009C00002004ED00E0541F0020681F002099
:10505000FDF740F8C24908600846006820B1C1A1C8
:10506000BF480068FDF711FF00F0AEFA10BD7CB537
:105070000024FFF7B2FFBA48006858B1BB481F21AF
:1050800000234FF48272CDE90010B9A1BA48FEF7AF
:105090006BF8044684B900BFB84805880120B749B9
:1050A000088040F23312AFF29401AFF280000DF0AD
:1050B0004DFBB248058000BF20467CBD2DE9F0477E
:1050C00006460D4617469846DDE908940DB10120C5
:1050D00000E0002090B900BFA848B0F800A001206F
:1050E000A64908804FF4C672AFF2D801AFF2C400EF
:1050F0000DF02CFBA148A0F800A000BF5CB1FFF7A9
:105100006CFF2660A561E761C4F82080C4F8249094
:10511000201DFCF73CFFBDE8F0872DE9FC47054664
:105120000E4617469846DDF828902C2000F057FBD5
:1051300004463CB143463A4631462846CDE9009400
:10514000FFF7BCFF2046BDE8FC8710B58748006824
:1051500008B1012000E0002080B900BF8748048822
:105160000120864908804FF4E872AFF25811AFF27F
:1051700044100DF0EBFA8148048000BF7B480068C2
:1051800010BD70B50446254684B900BF7B4806882B
:1051900001207A49088040F2D912AFF28811AFF2AB
:1051A00074100DF0D3FA7548068000BFA86970BD71
:1051B0002DE9F0410446254684B900BF6F480788B1
:1051C00001206E49088040F2E312AFF2B811AFF24D
:1051D000A4100DF0BBFA6948078000BF6E68304626
:1051E000BDE8F08170B50446254684B900BF634828
:1051F000068801206149088040F2ED12AFF2EC11FF
:10520000AFF2D8100DF0A2FA5C48068000BF286803
:1052100070BD2DE9F0410446264684B900BF5748C9
:10522000078801205549088040F2DA32AFF21C218C
:10523000AFF208200DF08AFA5048078000BF00F056
:1052400097F9706908B9012000E0002080F001059D
:1052500000F0BAF92846BDE8F0812DE9F041044696
:10526000254684B900BF4548078801204349088086
:1052700040F2EF32AFF26421AFF250200DF066FA47
:105280003E48078000BF00F073F92E6A00F09CF9D9
:105290003046BDE8F0812DE9F04104460D46264632
:1052A00084B900BF3548078801203449088040F29E
:1052B000FF32AFF2A021AFF28C200DF047FA2F4859
:1052C000078000BF00F054F9356200F07DF9BDE8B9
:1052D000F0812DE9FF4104460D4616461F466FF04A
:1052E0000100009001940295039600233A46694616
:1052F0001B480068FDF7EEFA8046404604B0BDE862
:10530000F0812DE9FF4704460D4616461F46144816
:10531000006890B900BF1948B0F800800120174913
:10532000088040F22B42AFF21431AFF200300DF0A2
:105330000DFA1248A0F8008000BF4FF0FF30009037
:1053400001940295039600233A4669460448006892
:10535000FCF7D8FF8146484604B0BDE8F08700005E
:1053600094000020546D725100000000980000204D
:10537000546D722053766300C14F0108DC00002099
:10538000CD480068401C08B9012000E0002070B939
:1053900000BFCA4804880120C849088040F20F12A3
:1053A000C7A1D2A00DF0D2F9C448048000BF00BF4D
:1053B000502080F31188BFF34F8FBFF36F8F00BF72
:1053C00000BFFEE7001F4FF080730360001F21F055
:1053D00001030360001FC94B036014380260001F03
:1053E0006FF00203036020387047C54800684FF42F
:1053F0007A71B0FBF1F0401E4FF0E02148610720C8
:10540000086170477CB5BF480068BF49884201D039
:10541000012000E0002070B900BFA84804880120E6
:10542000A649088040F25912A5A1B0A00DF08EF94E
:10543000A248048000BFB3480068B349491E8842AF
:1054400001D0012000E0002070B900BF9B48048813
:1054500001209A4908804FF4AD7299A1A3A00DF0E4
:1054600075F99648048000BFA84D28460078019041
:10547000FF20294608700846007800909DF800003B
:1054800000F0F0009DF80010884201D1012000E0FA
:10549000002070B900BF894804880120874908802E
:1054A00040F2731286A191A00DF050F98348048058
:1054B00000BF9DF8000000F05000954908700720DB
:1054C0009449086009E093480068401E91490860CB
:1054D0009DF800004006000E00909DF8000000F0CE
:1054E00080008028EFD08B4800680002894908605E
:1054F0000846008800F4E06008608449019808705C
:1055000080482030006840F470007E4920310860F7
:105510000846006840F070400860FFF766FF002012
:1055200065490860FAF70EFF7B48006840F040408C
:1055300079490860FAF7F6FE00207CBD10B55E4898
:105540000068B0F57A7F01D1012000E0002070B939
:1055500000BF5A48048801205849088040F2A91227
:1055600057A162A00DF0F2F85448048000BF10BDAE
:1055700010B500BF502080F31188BFF34F8FBFF3E9
:105580006F8F00BF4C480068401C4B4908600846BC
:105590000068012817D15B48001D0068C0B208B937
:1055A000012000E0002070B900BF444804880120B9
:1055B0004249088040F2B91241A14CA00DF0C6F852
:1055C0003E48048000BF10BD10B53B48006870B96C
:1055D00000BF3A4804880120384908804FF4E0723F
:1055E00037A142A00DF0B2F83448048000BF324821
:1055F0000068401E304908600846006820B9002055
:1056000080F3118800BF00BF10BD10B500BF50204F
:1056100080F31188BFF34F8FBFF36F8F00BFFDF78B
:105620005AFE20B14FF080503649091D086000BF76
:10563000002080F3118800BF10BD70B5FAF7BAFEE4
:105640000446102C1AD304F1E02090F8F0533048AF
:105650000078854201DB012000E0002070B900BF26
:10566000164806880120154908804FF4407214A19D
:105670001EA00DF06BF81148068000BF21480C30C9
:10568000006800F4E06023490968884201D80120DD
:1056900000E0002070B900BF0848068801200749D3
:1056A00008804FF4447206A110A00DF04FF8034893
:1056B000068000BF70BD0000A0000020DC000020BC
:1056C0002E2E5C4672656552544F535C706F727437
:1056D00061626C655C525644535C41524D5F434D70
:1056E00034465C706F72742E630000004572726FF6
:1056F000723A25732C25640D0A00000081530108BD
:105700000400002000ED00E071C20F4100E400E061
:10571000A4000020A800002034EF00E010B50146EE
:10572000AC4800E0006803688B42FBD30246436844
:1057300013448B4204D143684C68234443600146C0
:105740000A464B6813440468A34211D1A24C036873
:105750002468A34208D04B680468646823444B6003
:1057600003681B680B6005E09B4B1B680B6001E046
:1057700003680B60884200D0016010BD30B54FF463
:105780008033964800F007042CB1C01D20F00700BC
:10579000924C041B1B1B02468E4C226000248D4D34
:1057A0006C60D018083820F007008B4C2060002473
:1057B000894D2D686C60884D2D682C601146441A07
:1057C0004C60854C24680C60854D4C682C60854D80
:1057D0004C682C604FF00044834D2C6030BD2DE9A7
:1057E000F04704464FF00008FDF7F9FE7A480068DC
:1057F00008B9FFF7C3FF7C4800682040002875D136
:10580000FCB1083404F00700D8B104F00700C0F17F
:105810000800044404F0070008B9012000E000205B
:1058200078B900BF7148B0F8009001206F49088036
:10583000BF226FA178A00CF089FF6C48A0F80090FF
:1058400000BF002C52D06748006884424ED8614E99
:105850003046056801E02E462D686868A04202D2F5
:1058600028680028F7D15C48006885423ED030683F
:1058700000F10808286830606868001B10281ED9ED
:105880002F1907F0070008B9012000E0002078B9BF
:1058900000BF5648B0F80090012054490880EC221F
:1058A00053A15DA00CF052FF5048A0F8009000BF3B
:1058B0006868001B78606C603846FFF72FFF494925
:1058C00068680968081A474908600846006844493A
:1058D0000968884203D24348006841490860424948
:1058E000686809680843686000202860FDF7C3FD08
:1058F00008F0070008B9012000E0002080B900BFCF
:105900003A48B0F800900120384908804FF4967268
:1059100037A141A00CF01AFF3448A0F8009000BF56
:105920004046BDE8F0872DE9F04106463546002E99
:1059300047D0083D2C462C4960680968084008B1EA
:10594000012000E0002070B900BF2848078801202E
:10595000264908804FF4A07225A12FA00CF0F6FE76
:105960002248078000BF206808B9012000E000201D
:1059700070B900BF1D48078801201C49088040F20B
:1059800041121BA124A00CF0E1FE1848078000BFC3
:10599000154960680968084098B1206888B91249BB
:1059A0006068096888436060FDF719FE0D4960680A
:1059B000096808440B4908602046FFF7AFFEFDF771
:1059C0005AFDBDE8F0810748006870470448006848
:1059D00070477047AC000020B400002000000010A9
:1059E000BC000020B8000020C0000020DC00002027
:1059F0002E2E5C4672656552544F535C706F727404
:105A000061626C655C4D656D4D616E675C6865617A
:105A1000705F342E630000004572726F723A257316
:105A20002C25640D0A000000016000238380C380E0
:105A300002817047F0B503460C469D881E892E44AE
