:020000040800F2
:10F000000000000000000000000000000000000000
:10F0100000000000000000000000000000000000F0
:10F0200000000000000000000000000000000000E0
:10F0300000000000000000000000000000000000D0
:020000040801F1
:10000000C8520020F5180108510501087B040108B9
:1000100053050108570501085B05010800000000B1
:10002000000000000000000000000000BD02010808
:100030005F050108000000001103010871070108B5
:100040000F1901080F1901080F1901080F190108EC
:100050000F1901080F1901080F1901080F190108DC
:100060000F1901080F1901080F1901080F190108CC
:100070000F1901080F1901080F1901080F190108BC
:100080000F1901080F1901080F1901080F190108AC
:100090000F1901080F1901080F1901080F1901089C
:1000A0000F1901080F1901080F1901080F1901088C
:1000B0000F190108F15101080F1901080F19010862
:1000C0000F1901080F1901080F1901080F1901086C
:1000D0000F19010853160108D11601085B17010812
:1000E0000F1901080F1901080F1901080F1901084C
:1000F0000F1901080F1901080F1901080F1901083C
:100100000F1901080F1901080F1901080F1901082B
:10011000B71701080F1901080F1901080F19010875
:100120000F1901080F1901080F1901080F1901080B
:100130000F1901080F1901080F1901080F190108FB
:100140000F1901080F1901080F1901080F190108EB
:100150000F1901080F1901080F19010813180108D8
:100160000F1901080F1901080F1901080F190108CB
:100170000F1901080F1901080F1901080F190108BB
:100180000F1901080F19010800F002F800F07EF8BD
:100190000AA090E8000C82448344AAF10107DA45E2
:1001A00001D100F073F8AFF2090EBAE80F0013F0B6
:1001B000010F18BFFB1A43F00103184740D8000095
:1001C00070D800000A444FF0000C10F8013B13F007
:1001D000070408BF10F8014B1D1108BF10F8015BA0
:1001E000641E05D010F8016B641E01F8016BF9D193
:1001F00013F0080F1EBF10F8014BAD1C0C1B09D1EA
:100200006D1E58BF01F801CBFAD505E014F8016B5B
:1002100001F8016B6D1EF9D59142D6D370470000ED
:100220000023002400250026103A28BF78C1FBD8FF
:10023000520728BF30C148BF0B60704766290CF0D9
:10024000898464290AF0848675290AF081867829D0
:100250000AF0BA8663290BF04E8473290BF053849D
:10026000002070471FB50CF070FC0BF0AFFC0400D1
:10027000002000210CF0DCFB401C6060002000210D
:100280000CF0C0FBE0601FBD10B510BD0BF064FFAB
:100290001146FFF7E7FF00F0C0F80BF082FF03B450
:1002A000FFF7F2FF03BC00F0FFFA000030BF72B6A8
:1002B000704762B6704780F3088870472A4B196808
:1002C0000868B0E8F04F80F30988BFF36F8F4FF0F4
:1002D000000080F3118870470000000006480068A5
:1002E000006880F3088862B661B6BFF34F8FBFF332
:1002F0006F8F00DF00BF00BF08ED00E0DFF80C00EB
:10030000016841F470010160704700BF88ED00E0B2
:10031000EFF30980BFF36F8F134B1A681EF0100FB5
:1003200008BF20ED108A20E9F04F106008B44FF0AC
:10033000500080F31188BFF34F8FBFF36F8F02F02F
:1003400085FE4FF0000080F3118808BC196808682A
:10035000B0E8F04F1EF0100F08BFB0EC108A80F329
:100360000988BFF36F8F704748000020EFF30580C6
:100370007047000004F0E7FA07F04AFB07F08EFA36
:1003800007F00CFD07F039FC07F0F7FF07F034FF2A
:1003900007F0B5F904F0FCFA0CE04048007828B109
:1003A0004FF47A7002F025FD00F058FA4FF47A709D
:1003B00002F01FFDF1E710B50121080509F086FBE9
:1003C00004F02EFE5421642004F0E6FE07F0EAF863
:1003D00007F07EF810BD10B50121881E09F0E1FB81
:1003E0000121881E09F0EEFB0121881E09F00CFC9A
:1003F0000121881E09F019FC0021481E09F0D1FBDB
:100400000021481E09F0DEFB0021481E09F0FCFB1C
:100410000021481E09F009FC10BD1CB520482149E7
:100420000860FFF7D8FF4FF4407008F019F8A820D3
:1004300000F0A6F9642000F0E2F901F047F81AA0F4
:100440000AF016FD1AA00AF013FD22A129A00AF055
:100450000FFD2DA00AF00CFDFFF7ADFF3348012181
:1004600000230A02CDE9001031A1AFF2F70002F03B
:100470003AFA02F091FF00201CBD30A00AF0F8FC0F
:100480002EA00AF0F5FC2DA00AF0F2FC2BA00AF039
:10049000EFFC2AA00AF0ECFC00BFFEE7D40000202D
:1004A0000000010808ED00E00D0A0D0A0000000040
:1004B0002D2D2D2D2D2D2D2D2053797374656D200F
:1004C0005265626F6F74202D2D2D2D2D2D2D2D0D2C
:1004D0000A000000504C433253544D2D5375622096
:1004E00056312E303020323032322D31312D3239EA
:1004F000000000004150502056657273696F6E3ADB
:100500002025730D0A0000002D2D2D2D2D2D2D2DB4
:100510002D2D2D2D2D2D2D2D2D2D2D2D2D2D2D2D0B
:100520002D2D2D2D2D2D2D0D0A0000000000002059
:1005300073746172745F7461736B000048617264FC
:100540004661756C745F48616E646C65720D0A007B
:10055000704700BFFEE700BFFEE700BFFEE7704741
:100560000CB50020019000907648006840F480307F
:100570007449086000BF7348006800F400300090C0
:100580000198401C0190009818B90198B0F5A04F4F
:10059000F1D16C48006800F4003010B101200090E7
:1005A00001E0002000900098012846D165484030C5
:1005B000006840F08050634940310860624800683C
:1005C00040F44040604908605E48083000685D497A
:1005D000083108600846006840F40040086008469A
:1005E000006840F4A05008605848091F0860081FC0
:1005F000006840F08070091F086000BF5148006823
:1006000000F000700028F9D040F2057050490860F1
:100610004C480830006820F003004A49083108605F
:100620000846006840F00200086000BF45480830F6
:10063000006800F00C000828F8D10CBD10B5454842
:10064000006840F47000434908603E48006840F08C
:1006500001003C49086000203A49083108603948E7
:1006600000683D490840374908603C48091D08605A
:10067000081F006820F48020091F0860002031490D
:100680000C310860FFF76CFF4FF000603149803992
:10069000086010BD70B50020002202230024022152
:1006A000284D08352D6805F00C0020B1042806D02F
:1006B000082834D107E02A4D2A4E356033E02A4D10
:1006C000284E35602FE01F4D2D1D2D68C5F3805439
:1006D0001C4D2D1D2D6805F03F0154B1224DB5FB79
:1006E000F1F5184E361D3668C6F3881605FB06F27E
:1006F00009E01B4DB5FBF1F5124E361D3668C6F309
:10070000881605FB06F20F4D2D1D2D68C5F301451A
:100710006D1C6B00B2FBF3F5124E356003E0104D1B
:10072000104E356000BF00BF064D08352D68C5F37B
:1007300003150E4E705D0B4D2D68C540094E35609A
:1007400070BD0000003802400070004008544007AF
:10075000003C024088ED00E0FFFFF6FE1030002470
:100760000024F4000400002000127A000800002099
:1007700010B503F0E9F8012801D004F023F910BD09
:1007800070B50446042007F0BDFE324804702546CB
:100790004FF47A70454301202F4908804FF0E02044
:1007A000006940F002004FF0E02108610846456111
:1007B000006940F00100086170BD70B50346002279
:1007C0004FF0E0267569234E367803FB06F44FF0B0
:1007D000E026B16910E04FF0E026B06988420BD006
:1007E000884202D20E1A324402E02E1A0E443244DB
:1007F0000146A24200D300E0EDE700BF70BD70B536
:10080000044603F0A1F8012810D013480088844260
:1008100006D311480088B4FBF0F5284602F0E9FA47
:100820000D480088B4FBF0F100FB11444FF47A71DD
:1008300004FB01F0FFF7C1FF70BD30B50446002591
:1008400004E04FF47A70FFF7B8FF6D1CA542F8D3AF
:1008500030BD0000180000201A000020012080F3A5
:10086000138800BF00BF00BF00BF00BF00BFBFF3C1
:100870004F8F00BF00BF00BF0948006800F4E06070
:1008800008490843001D0649086000BF00BF00BFBB
:10089000BFF34F8F00BF00BF00BF00E000BFFDE708
:1008A0000CED00E00000FA0500BF704700BF704784
:1008B00070B504460D4600BF8021FD480AF076FA67
:1008C0000028F9D0A1B2FA480AF0C0F9204670BD5C
:1008D00010B588B004460121084609F0F7F8012157
:1008E000102009F04DF907220921F24808F0BBFE5B
:1008F00007220A21EF4808F0B6FE4FF4C0600690C8
:1009000002208DF81C008DF81D0000208DF81E00BF
:1009100001208DF81F0006A9E64808F019FE029490
:100920000020ADF80C00ADF80E00ADF81000ADF8E9
:1009300014000C20ADF8120002A9DD480AF0D3F82B
:10094000012240F22441DA480AF00BFA012240F277
:100950002661D7480AF005FA0122C021D4480AF0DE
:10096000F7F90121D2480AF046F925208DF8040054
:1009700005208DF8050000208DF8060001208DF877
:10098000070001A807F071FD08B010BD10B588B0D0
:1009900004460121084609F099F80121480409F0AC
:1009A000DEF807220221C34808F05DFE072203217A
:1009B000C04808F058FE0C20069002208DF81C005C
:1009C00003208DF81D0000208DF81E0001208DF8F9
:1009D0001F0006A9B74808F0BBFD0121084609F031
:1009E00075F80220069001208DF81C0003208DF878
:1009F0001D0000208DF81E0001208DF81F0006A9A3
:100A0000AC4808F0A5FD00BF0020AB49086000BF5E
:100A10000294ADF80C00ADF80E00ADF81000ADF882
:100A200014000C20ADF8120002A9A4480AF05BF8EB
:100A3000012240F22441A1480AF093F9012240F238
:100A400026619E480AF08DF90122C0219B480AF0D8
:100A50007FF9012199480AF0CEF826208DF804008C
:100A600006208DF8050000208DF8060001208DF885
:100A7000070001A807F0F9FC08B010BD10B588B058
:100A800004460121022009F021F80121880409F01F
:100A900066F807220A218A4808F0E5FD07220B21A3
:100AA000874808F0E0FD4FF44060069002208DF882
:100AB0001C0003208DF81D0000208DF81E00012071
:100AC0008DF81F0006A97E4808F042FD0294002020
:100AD000ADF80C00ADF80E00ADF81000ADF8140044
:100AE0000C20ADF8120002A9764809F0FCFF0122A3
:100AF00040F2244173480AF034F9012240F22661A1
:100B000070480AF02EF90122C0216E480AF020F93F
:100B100001216C480AF06FF827208DF804000620A8
:100B20008DF8050000208DF8060001208DF80700E3
:100B300001A807F09AFC08B010BD10B588B00446B3
:100B40000121084608F0C2FF0121C80409F007F896
:100B500008220021574808F086FD08220121554847
:100B600008F081FD0320069002208DF81C008DF80E
:100B70001D0000208DF81E0001208DF81F0006A921
:100B80004C4808F0E5FC02940020ADF80C00ADF8EC
:100B90000E00ADF81000ADF814000C20ADF81200F6
:100BA00002A9494809F09FFF012240F2244146482A
:100BB0000AF0D7F8012240F2266143480AF0D1F842
:100BC0000122C02140480AF0C3F801213E480AF042
:100BD00012F834208DF8040006208DF8050000205E
:100BE0008DF8060001208DF8070001A807F03DFCF4
:100BF00008B010BD10B588B004460121042008F0EB
:100C000065FF0121202008F0BBFF082206212F48A4
:100C100008F029FD082207212C4808F024FDC020F7
:100C2000069002208DF81C0003208DF81D00002086
:100C30008DF81E0001208DF81F0006A9234808F03A
:100C400087FC02940020ADF80C00ADF80E00ADF862
:100C50001000ADF814000C20ADF8120002A91C48D9
:100C600009F041FF012240F2244119480AF079F8C5
:100C7000012240F2266116480AF073F80122C021D1
:100C800013480AF065F80121114809F0B4FF472024
:100C90008DF8040006208DF8050000208DF8060070
:100CA00001208DF8070001A807F0DFFB08B010BD98
:100CB0000010014000000240840240420044004015
:100CC0000004024000480040004C00400008024080
:100CD000001401402DE9F04190B004460D4617463E
:100CE0001E46DDF85880FE48844204D9012188055B
:100CF00008F0ECFE03E00121480508F0E7FE20467D
:100D000007F082FE00BF204607F0A7FF0028FAD1B7
:100D10000195029703960490CDF8148006904FF445
:100D2000806007900020089009904FF480700A902E
:100D300000020B9000200C9003200D9000200E90DC
:100D40000F9001A9204607F001FF0121204607F07E
:100D500037FF10B0BDE8F0812DE9F04190B00446B6
:100D60000D4617461E46DDF85880DD48844204D9FA
:100D70000121880508F0AAFE03E00121480508F0DA
:100D8000A5FE204607F040FE00BF204607F065FFA5
:100D90000028FAD101950297039640200490CDF8DF
:100DA0001480002006904FF4806007900020089087
:100DB00009900A904FF480300B9000200C90032093
:100DC0000D9000200E900F9001A9204607F0BEFE66
:100DD0000021204607F0F4FE10B0BDE8F08108B510
:100DE0004FF4E130FFF774FD0020BE4BBE4A5106C0
:100DF0000090BB48B830FFF7AFFF4FF48070BB4B9B
:100E0000B94AC1040090B6488830FFF763FF4FF439
:100E10008072B649B64803F0A7FF032200210120E3
:100E200000F02FFEB349086000231A461946B14866
:100E3000006800F027FF03220021012000F021FEBE
:100E4000AD49086008BD08B54FF41650FFF79EFD88
:100E50000020AA4BAA4A51060090AA48FFF77CFF3F
:100E600040F6FC70A84BA64A51060090A5481838D9
:100E7000FFF730FF40F6FC72A349A44803F074FF6B
:100E800003220021012000F0FCFDA149086000239D
:100E90001A4619469E48006800F0F4FE032200211D
:100EA000012000F0EEFD9B49086008BD08B54FF435
:100EB000E130FFF7E3FD0020974B984A5106009080
:100EC00090484838FFF748FF4FF48070944B934A9E
:100ED000C10400908B487838FFF7FCFE4FF4807215
:100EE0008F49904803F040FF03220021012000F0C9
:100EF000C8FD8D49086000231A4619468A480068D3
:100F000000F0C0FE03220021012000F0BAFD874955
:100F1000086008BD08B54FF4E130FFF70EFE002071
:100F2000834B844A5106009076483038FFF714FF0F
:100F30004FF48070804B7F4AC10400907148603844
:100F4000FFF7C8FE4FF480727B497C4803F00CFF2A
:100F500003220021012000F094FD7949086000235C
:100F60001A4619467648006800F08CFE03220021DC
:100F7000012000F086FD7349086008BD08B54FF4F4
:100F8000E130FFF737FE00206F4B704A4FF02061D1
:100F900000905348A030FFF7DFFE4FF480706C4B99
:100FA0006A4A4FF0206100904D484030FFF792FEB2
:100FB0004FF480726649674803F0D6FE0322002191
:100FC000012000F05EFD6449086000231A461946BE
:100FD0006148006800F056FE03220021012000F065
:100FE00050FD5E49086008BD70B504460D4605B960
:100FF00070BD002340F6B83219463E48006800F044
:1010000091FF00231A4619463B48006800F08AFF0A
:1010100000213348B83007F0D3FD00BF3048B83066
:1010200007F01BFE0028F9D129462D48B83007F0FB
:10103000E8FD2B48C430046001212948B83007F08E
:10104000BFFD002340F6B83219462B48006800F077
:1010500069FF4FF020512248B83007F02AFE0021E6
:101060001F48B83007F0ACFD00231A461946214846
:10107000006800F007FE00BFBAE770B504460D46F1
:1010800005B970BD002340F6B83219462048006803
:1010900000F048FF00231A4619461E48006800F079
:1010A00041FF00BF01202E49086000BFFFF7A7FBEA
:1010B0000021144807F084FD00BF124807F0CDFD61
:1010C0000028FAD129460F4807F09BFD0D480C3047
:1010D000046001210B4807F073FD002342E000008B
:1010E000006402403402002004100140340100205A
:1010F000801500201C00002020000020401200204D
:1011000004440040A0600240440200208C150020EE
:101110002400002028000020501300200448004034
:1011200050120020981500202C00002030000020D4
:1011300060140020044C004060130020A41500201F
:1011400034000020380000207015002004140140F5
:1011500070140020B01500203C000020400000204A
:101160008402404240F6B8321946F948006800F05F
:10117000D9FEF849F84807F09CFD0021F64807F031
:101180001FFD00BF0020F549086000BF00231A467C
:101190001946F348006800F075FD00BF71E770B5AF
:1011A00004460D4605B970BD002340F6B832194615
:1011B000EC48006800F0B6FE00231A461946EA48DB
:1011C000006800F0AFFE0021E348483807F0F8FC63
:1011D00000BFE148483807F040FD0028F9D1294612
:1011E000DD48483807F00DFDDB48A0384466012192
:1011F000D948483807F0E4FC002340F6B8321946D5
:10120000D948006800F08EFE4FF0C051D2484838EF
:1012100007F04FFD0021D048483807F0D1FC0023EB
:101220001A461946CF48006800F02CFD00BFBAE707
:1012300070B504460D4605B970BD002340F6B832BE
:101240001946CA48006800F06DFE00231A46194688
:10125000C748006800F066FE0021BF48303807F03C
:10126000AFFC00BFBC48303807F0F7FC0028F9D1CC
:101270002946B948303807F0C4FCB748A038C467DD
:101280000121B548303807F09BFC002340F6B83206
:101290001946B748006800F045FEB649AE483038F8
:1012A00007F007FD0021AC48303807F089FC002327
:1012B0001A461946AD48006800F0E4FC00BFBBE7E1
:1012C00070B504460D4605B970BD002340F6B8322E
:1012D0001946A948006800F025FE00231A46194661
:1012E000A648006800F01EFE0021A54807F068FC33
:1012F00000BFA34807F0B1FC0028FAD12946A04856
:1013000007F07FFC9E480C30046001219C4807F0E8
:1013100057FC002340F6B83219469848006800F0A0
:1013200001FE8C49964807F0C4FC0021944807F060
:1013300047FC00231A4619468F48006800F0A2FCBB
:1013400000BFC1E770B504460026002514E00A205E
:10135000FFF755FA06F10A0086B28948183807F0F7
:1013600052FCC0F5807087498880084603F057FD1D
:1013700005460DB1284670BDA642E8DB2846FAE7CF
:1013800070B504460026002515E00A20FFF737FA5D
:1013900006F10A0086B27048183807F034FC40F6AF
:1013A000FC71081A78498880084603F038FD054624
:1013B0000DB1284670BDA642E7DB2846FAE770B5B6
:1013C00004460026002514E00A20FFF718FA06F16B
:1013D0000A0086B26048783807F015FCC0F58070C6
:1013E0006A498880084603F01AFD05460DB1284673
:1013F00070BDA642E8DB2846FAE770B50446002631
:10140000002514E00A20FFF7FAF906F10A0086B277
:101410005148603807F0F7FBC0F580705C49888060
:10142000084603F0FCFC05460DB1284670BDA642F7
:10143000E8DB2846FAE770B504460026002514E0EC
:101440000A20FFF7DCF906F10A0086B24C48603842
:1014500007F0D9FBC0F580704E498880084603F03C
:10146000DEFC05460DB1284670BDA642E8DB2846E5
:10147000FAE770B504460D462A462146414803F076
:1014800079FC70BD70B504460D462A4621463E489B
:1014900003F070FC70BD70B504460D462A46214627
:1014A0003A4803F067FC70BD70B504460D462A4605
:1014B0002146374803F05EFC70BD70B504460D460A
:1014C0002A462146334803F055FC70BD10B5FFF79E
:1014D00086FCFFF7B8FC10BD70B504460D461646F5
:1014E0002D48844204D131462846FFF77DFD1EE099
:1014F0002A48844204D131462846FFF7BEFD16E053
:101500002748844204D131462846FFF748FE0EE0C2
:101510002448844204D131462846FFF789FE06E07C
:101520002148844203D131462846FFF7C9FE70BDE9
:101530002DE9F04104460D46164600271648844220
:1015400034D131462846FFF794FF074651E00000AA
:101550002800002000002020A060024084024042B9
:10156000240000202C000020300000203400002047
:1015700038000020200000203C0000204000002017
:10158000A0640240801500208C15002098150020D2
:10159000A4150020B01500200010014000440040B8
:1015A00000480040004C004000140140BC48844208
:1015B00005D131462846FFF765FF074619E0B948CF
:1015C000844205D131462846FFF765FF074610E003
:1015D000B548844205D131462846FFF765FF0746E6
:1015E00007E0B248844204D131462846FFF765FF40
:1015F00007463846BDE8F08170B504460D46002622
:10160000AB48844204D12846FFF79CFE06461EE004
:10161000A348844204D12846FFF7B2FE064616E0EE
:10162000A048844204D12846FFF7C9FE06460EE0D2
:101630009D48844204D12846FFF7DFFE064606E0B7
:101640009A48844203D12846FFF7F5FE0646304605
:1016500070BD08B50020009040F22441944809F084
:10166000BBFB08B3924809F0F5FA924807F0CBFAB1
:10167000C0F580709049888040F224418C4809F080
:10168000E6FB8E48006810B369468C48006800F09D
:10169000FDFD0098D8B14FF0805089490860BFF334
:1016A0004F8FBFF36F8F12E040F22661804809F040
:1016B00093FB60B140F226617D4809F0C8FB814888
:1016C000006820B169467F48006800F0DFFD08BD72
:1016D00008B50020009040F22441714809F07CFBDD
:1016E00010B36F4809F0B6FA774807F08CFA40F665
:1016F000FC71081A7549888040F22441684809F055
:10170000A6FB7348006838B369467148006800F06A
:10171000BDFD009800B34FF0805069490860BFF3E9
:101720004F8FBFF36F8F17E040F226615C4809F0DE
:1017300053FB88B140F22661594809F088FB00BF8D
:1017400000206449086000BF6348006820B1694612
:101750006148006800F09AFD08BD08B500200090BF
:1017600040F224414F4809F037FB80B14D4809F061
:1017700071FA5548603807F046FAC0F5807057494D
:10178000888040F22441474809F061FB12E040F2B2
:101790002661444809F020FB60B140F226614148CF
:1017A00009F055FB4E48006820B169464C48006876
:1017B00000F06CFD08BD08B50020009040F2244107
:1017C000394809F009FB80B1374809F043FA3E482F
:1017D000483807F018FAC0F580704249888040F216
:1017E0002441314809F033FB12E040F226612E48D3
:1017F00009F0F2FA60B140F226612B4809F027FBAC
:101800003948006820B169463748006800F03EFD5D
:1018100008BD08B50020009040F22441234809F09B
:10182000DBFA80B1214809F015FA2248483807F060
:10183000EAF9C0F580702D49888040F224411B48A8
:1018400009F005FB12E040F22661184809F0C4FADD
:1018500060B140F22661154809F0F9FA24480068A1
:1018600020B169462248006800F010FD08BD70B53F
:1018700005460C4616460021204607F0A1F900BF98
:10188000204607F0EAF90028FAD13146204607F051
:10189000B8F9E5600121204607F092F970BD00001B
:1018A0000044004000480040004C0040001401404B
:1018B000001001408864024080150020DC000020F8
:1018C00004ED00E020000020886002408C1500201C
:1018D000D0000020840240422800002098150020FB
:1018E00030000020A415002038000020B015002092
:1018F000400000200948804709480047FEE7FEE70E
:10190000FEE7FEE7FEE7FEE7FEE7FEE7FEE7FEE7AF
:1019100004480549054A064B704700003D0601088A
:1019200089010108C84C0020C8520020C84E002080
:10193000C84E002000F1080141604FF0FF31816086
:1019400000F10801C16001610021016070470021C0
:101950000161704742684A6093688B609368596080
:101960009160086103685B1C0360704710B5024614
:101970000B685C1C0CB9106907E002F1080000E07C
:101980004068446824689C42FAD944684C604C68BA
:10199000A160886041600A611468641C146010BD15
:1019A00001460A69D1E901309860D1E90103586024
:1019B0005068884201D18868506000200861106832
:1019C000401E10601068704770B505460E462C46E4
:1019D0003CB900BF40F21B12F9A1FEA009F048FA81
:1019E00000BF02F0B0FFD4E90F12206801FB020033
:1019F00060600020A0632068A060E06B401E226C45
:101A0000216800FB0210E060FF2084F8440084F8A5
:101A100045009EB9206908B9012000E00020A8B95E
:101A200004F1100001F07FFE80B14FF08050ED49CD
:101A30000860BFF34F8FBFF36F8F07E004F1100012
:101A4000FFF778FF04F12400FFF774FF02F0A0FF16
:101A5000012070BD2DE9F04106460D461746984617
:101A6000069C0DB9246000E02760E663256401212F
:101A70002046FFF7A9FF84F850800020A064BDE84D
:101A8000F0812DE9F84305460E4690460DB1012040
:101A900000E0002038B900BF4FF4C472C8A1CDA047
:101AA00009F0E6F900BF0EB9002701E005FB06F7D3
:101AB00007F1540003F05FF8044644B104F15409FF
:101AC00043464A46314628460094FFF7C3FF204666
:101AD000BDE8F8832DE9F04104460F4615464FF066
:101AE0000008A66B206C40B9206860BB606801F0FC
:101AF00089FF80460020606025E07DB93946226C70
:101B0000A06809F090FC216CA0680844A060D4E9AA
:101B10000110884217D32068A06014E03946226C77
:101B2000E06809F080FC216CE068401AE060216800
:101B3000E068884203D2216C6068401AE060022DA0
:101B400001D106B1761E701CA0634046BDE8F0814D
:101B50002DE9F3410D460098846C00273CB900BF85
:101B600040F6CE1296A19BA009F082F900BFA06BAF
:101B7000E16B884201D2012000E0002038B900BFAB
:101B800040F6CF128EA193A009F072F900BFA06BAE
:101B9000E16B88421BD294F945602A46694620468B
:101BA000FFF798FF0746701C60B9606A08B901200A
:101BB00000E0002050B904F1240001F0B4FD28B188
:101BC000012703E0701C40B284F8450000BF38468E
:101BD000BDE8FC8170B5044602F0B5FE94F94550AD
:101BE0001AE0A06C38B100212046FFF7B1FF88B1A0
:101BF00001F098FE0EE0606A08B9012000E00020C4
:101C000038B904F1240001F08EFD18B101F08AFE0C
:101C100000E003E0681E45B2002DE2DC00BFFF20BB
:101C200084F8450002F0B4FE02F08DFE94F94450B1
:101C300010E0206908B9012000E0002048B904F153
:101C4000100001F070FD08B101F06CFE681E45B295
:101C500000E001E0002DECDC00BFFF2084F8440030
:101C600002F096FE70BD70B5054602F06CFEA86BE2
:101C7000E96B884201D1012400E0002402F088FED3
:101C8000204670BD2DE9FF4383B0064688461D46B9
:101C90004FF0000934463CB900BF40F2D92248A1B8
:101CA0004CA009F0E5F800BFB8F1000F01D1206C9D
:101CB00008B9012000E0002038B900BF40F2DA2264
:101CC0003FA144A009F0D4F800BF022D02D1E06B7F
:101CD000012801D1012000E0002038B900BF40F206
:101CE000DB2237A13BA009F0C3F800BF01F02CFEB6
:101CF00008B9059808B9012000E0002038B900BFF4
:101D000040F2DE222EA133A009F0B2F800BF00BFDE
:101D100002F019FEA06BE16B884201D3022D38D18D
:101D20002A4641462046FFF7D5FE0746A06C68B11B
:101D300029462046FFF70CFF28B34FF08050294971
:101D40000860BFF34F8FBFF36F8F1CE0606A08B964
:101D5000012000E0002068B904F1240001F0E3FC58
:101D600088B14FF080501F490860BFF34F8FBFF319
:101D70006F8F08E03FB14FF080501A490860BFF301
:101D80004F8FBFF36F8F02F003FE012007B0BDE855
:101D9000F083059818B902F0FBFD0020F6E7B9F1D1
:101DA000000F04D101A801F048FD4FF0010902F035
:101DB000EFFD00F0B7FF02F0C6FD94F9440013E018
:101DC0002E2E5C4672656552544F535C7175657575
:101DD000652E63004572726F723A25732C25640D6F
:101DE0000A00000004ED00E0401C10B9002084F857
:101DF000440094F94500401C10B9002084F84500C7
:101E000002F0C6FD05A901A801F04AFDF8B9204677
:101E1000FFF729FFA8B104F11000059901F01DFC9E
:101E20002046FFF7D7FE00F0D0FE00287FF470AF09
:101E30004FF08050FE490860BFF34F8FBFF36F8FA4
:101E400066E72046FFF7C6FE00F0BFFE60E72046CB
:101E5000FFF7C0FE00F0B9FE002097E710B504467A
:101E60004CB1002060602060E06000231A461946F3
:101E70002046FFF707FF10BD2DE9F041044601267B
:101E80000027224600210120FFF7FBFD05462846DA
:101E9000FFF7E4FF2846BDE8F08170B506463446FA
:101EA0004CB900BF40F24122AFF2EC01AFF2DC00CE
:101EB00008F0DEFF00BF01F044FD616888420CD1EC
:101EC000E068401EE060E06828B900231A46194621
:101ED0002046FFF7D7FE012500E00025284670BD0B
:101EE00070B5054602F02FFDA86B08B9012400E08B
:101EF000002402F04DFD204670BD70B504460D462D
:101F0000206C70B1216CE0680844E0606168E068B2
:101F1000884201D32068E0602846226CE16809F01D
:101F200082FA70BD2DE9FF4782B005460E461F4676
:101F30004FF0000A2C464CB900BF40F2DC42AFF231
:101F40008011AFF2701008F093FF00BF0EB9206C43
:101F500008B9012000E0002048B900BF40F2DD428E
:101F6000AFF2A411AFF2941008F082FF00BF01F0AD
:101F7000EBFC08B9049808B9012000E0002048B93A
:101F800000BF4FF49C62AFF2C811AFF2B81008F076
:101F90006FFF00BF00BF02F0D6FCD4F83890B9F153
:101FA000000F3DD0D4F80C8031462046FFF7A5FF46
:101FB000DFB9A9F10100A063206810B901F060FE4B
:101FC0006060206908B9012000E0002010BB04F126
:101FD000100001F0A8FBE8B14FF080509449086070
:101FE000BFF34F8FBFF36F8F14E0C4F80C80606AAB
:101FF00008B9012000E0002060B904F1240001F0DC
:1020000092FB38B14FF0805089490860BFF34F8F81
:10201000BFF36F8F02F0BCFC012006B0BDE8F08773
:10202000049818B902F0B4FC0020F6E7BAF1000FEA
:1020300004D1684601F001FC4FF0010A02F0A8FC4F
:1020400000F070FE02F07FFC94F94400401C10B9CF
:10205000002084F8440094F94500401C10B9002089
:1020600084F8450002F094FC04A9684601F018FCCD
:1020700040BB2046FFF734FFF0B1206830B902F0D2
:1020800062FC606801F06CFC02F082FC04F1240048
:10209000049901F0E2FA2046FFF79CFD00F095FD5F
:1020A00000287FF478AF4FF0805061490860BFF39B
:1020B0004F8FBFF36F8F6EE72046FFF78BFD00F069
:1020C00084FD68E72046FFF785FD00F07EFD204691
:1020D000FFF706FF0028EED000209EE72DE9F04133
:1020E00006460F4634464CB900BF4FF41E72AFF29D
:1020F0003031AFF2203008F0BBFE00BF01F021FC10
:102100006168884204D1E068401CE06001250AE073
:1021100000233A4619462046FFF704FF054615B14D
:10212000E068401CE0602846BDE8F08170B50546D7
:102130000E460DB1012000E0002048B900BF40F27A
:10214000BD22AFF28431AFF2743008F091FE00BFCF
:10215000AE4201D8012000E0002048B900BF40F2A3
:10216000BE22AFF2A431AFF2943008F081FE00BF7E
:10217000022200212846FFF784FC044604B1A6632E
:10218000204670BD2DE9F05F80468A4615461E4602
:1021900044464CB900BF40F29F32AFF2DC31AFF29F
:1021A000CC3008F065FE00BFBAF1000F01D1206C01
:1021B00008B9012000E0002048B900BF4FF4687260
:1021C000AFF20441AFF2F43008F052FE00BF022E2D
:1021D00002D1E06B012801D1012000E0002048B9C4
:1021E00000BF40F2A132AFF22841AFF2184008F030
:1021F0003FFE00BF02F0FEFB00BF5021EFF3118055
:1022000081F31188BFF34F8FBFF36F8F00BF074675
:10221000A06BE16B884201D3022E2ED194F945B018
:10222000324651462046FFF755FC0BF1010001E014
:1022300004ED00E0C8B9A06C40B131462046FFF77C
:1022400087FCB8B1B5B10120286013E0606A08B915
:10225000012000E0002068B904F1240001F063FAD5
:1022600040B13DB10120286004E00BF1010040B213
:1022700084F845004FF0010901E04FF0000900BF6C
:1022800087F3118800BF4846BDE8F09F2DE9F0476D
:1022900007460D463C464CB900BF40F23C42AFF207
:1022A000E041AFF2D04008F0E3FD00BF206C08B978
:1022B000012000E0002048B900BF4FF48862AFF26F
:1022C0000051AFF2F04008F0D3FD00BF206808B91C
:1022D000606808B9012000E0002048B900BF40F262
:1022E0004542AFF22451AFF2145008F0C1FD00BFD7
:1022F00002F080FB00BF5021EFF3118081F31188C1
:10230000BFF34F8FBFF36F8F00BF0646D4F83890EE
:10231000E06B484529D994F945A009F10100A06373
:102320000AF10100C8B9A06C40B100212046FFF7B6
:102330000FFCB8B1B5B10120286013E0606A08B99C
:10234000012000E0002068B904F1240001F0EBF95D
:1023500040B13DB10120286004E00AF1010040B223
:1023600084F845004FF0010801E04FF0000800BF7D
:1023700086F3118800BF4046BDE8F0872DE9F05F85
:1023800006468946174634464CB900BF4FF4B4623E
:10239000AFF2D451AFF2C45008F06AFD00BFB9F1FA
:1023A000000F01D1206C08B9012000E0002048B9DD
:1023B00000BF40F2A152AFF2F851AFF2E85008F07E
:1023C00057FD00BF02F016FB00BF5021EFF3118054
:1023D00081F31188BFF34F8FBFF36F8F00BF0546A6
:1023E000D4F838A0BAF1000F22D094F944B049468D
:1023F0002046FFF782FDAAF10100A0630BF1010066
:1024000070B9206908B9012000E0002068B904F122
:10241000100001F088F940B13FB10120386004E0BC
:102420000BF1010040B284F844004FF0010801E0D4
:102430004FF0000800BF85F3118800BF4046BDE89B
:10244000F09F2DE9F0470646884634464CB900BF58
:1024500040F2FC52AFF29861AFF2886008F008FDDC
:1024600000BFB8F1000F01D1206C08B9012000E0D5
:10247000002048B900BF40F2FD52AFF2BC61AFF29C
:10248000AC6008F0F5FC00BF206C08B1012000E052
:10249000002048B900BF40F2FE52AFF2DC61AFF25B
:1024A000CC6008F0E5FC00BF02F0A4FA00BF5021A8
:1024B000EFF3118081F31188BFF34F8FBFF36F8F5C
:1024C00000BF0546A06B48B1D4F80C9041462046A9
:1024D000FFF713FDC4F80C90012700E0002700BFB0
:1024E00085F3118800BF3846BDE8F08770B5044613
:1024F0004CB900BF40F22F62AFF23C71AFF22C70CA
:1025000008F0B6FC00BF02F01EFAA56B02F040FA1C
:10251000284670BD70B5044625464DB900BF40F24F
:102520004162AFF26471AFF2547008F0A1FC00BFD9
:1025300002F009FAD5E90E10461A02F029FA3046DF
:1025400070BD70B504464CB900BF40F25162AFF2A5
:102550009071AFF2807008F08BFC00BFA56B28462D
:1025600070BD014600200EE0794A02EBC0025268BD
:102570008A4207D10022764B43F8302003EBC00398
:102580005A6002E0401C0828EED300BF704770B5C7
:10259000044625464DB900BF40F25D62AFF2E071DE
:1025A000AFF2D07008F064FC00BF2846FFF7D9FFF7
:1025B000284602F069FB70BD0146C86C7047C164D3
:1025C0007047014691F85000704770B505464DB907
:1025D00000BF40F29372AFF61801AFF6080008F0A2
:1025E00047FC00BFA86B08B9012400E00024204686
:1025F00070BD70B504464CB900BF40F2BA72AFF678
:102600004001AFF6300008F033FC00BFA06BE16B77
:10261000884201D1012500E00025284670BD024610
:1026200000200BE04A4B53F8303033B9484B43F8A5
:10263000301003EBC0035A6002E0401C0828F1D3BD
:1026400000BF70470246002000210AE0404B03EB28
:10265000C1035B68934203D13D4B53F8310002E064
:10266000491C0829F2D300BF70472DE9F041054607
:102670000E4617462C4602F066F994F94400401CB9
:1026800010B9002084F8440094F94500401C10B9AA
:10269000002084F8450002F07BF9A06B28B93A4687
:1026A000314604F1240001F021F82046FFF792FAA8
:1026B000BDE8F08170B50446002204212046FFF7F2
:1026C000E0F90546284670BD70B504460E4602F096
:1026D0003AF9A06C08B1002505E0A06B08B100250F
:1026E00001E0A664012502F053F9284670BD2DE9EA
:1026F000F04105460F462E46B06CB84201D000248A
:102700000AE0B06B08B1002406E002F01CF90020DA
:10271000B06402F03DF901242046BDE8F08138B5EF
:1027200005460C46002000900023224669462846B4
:10273000FFF7F8FB009838BD38B50446002000903C
:10274000002269462046FFF719FE009838BD0000B8
:10275000BC15002010B5002407E004EB8401F84A02
:1027600002EB8100FFF7E6F8641C202CF5D3F54856
:10277000FFF7E0F8F448FFF7DDF8F448FFF7DAF880
:10278000F348FFF7D7F8F348FFF7D4F8ED48F249DC
:102790000860ED48F149086010BD10B5044602F02C
:1027A000D2F8EF480068401CED490860ED48006829
:1027B00040B9EC4804600846006801280DD1FFF7D5
:1027C000C9FF0AE0E848006838B9E6480068C06A0E
:1027D000E16A884201D8E3480460E4480068401C8C
:1027E000E249086008460068606494F82C100120F3
:1027F0008840DF4909680843DD490860E16A01EB68
:102800008101CF4A02EB8100211DFFF7A3F802F0FE
:10281000BFF8D548006868B1D2480068C06AE16A6C
:10282000884207D24FF08050D2490860BFF34F8FE3
:10283000BFF36F8F10BD2DE9F05F82460F469046C3
:102840009B460A9E0C9C4FEA8801A522206B08F04B
:1028500061FEA8F10100216B01EB800929F0070955
:1028600009F0070008B9012000E0002038B900BFD6
:1028700040F22B32C0A1C5A008F0FAFA00BF002533
:1028800007E0795D04F134004155785D00B902E05C
:102890006D1C102DF5D300BF002143200155202EC3
:1028A00000D31F26E662E66400202065201DFFF7A6
:1028B0004EF804F11800FFF74AF82461C6F1200031
:1028C000A061646200206065A06584F85C005A46DF
:1028D0005146484601F07DFF20600B9808B10B98E7
:1028E0000460BDE8F09F2DE9FF4F85B08046894622
:1028F0001746DDE912ABB80002F03DF9064656B1C5
:10290000602002F038F904460CB1266304E030463A
:1029100002F0BAF900E000247CB10020CDE900AB60
:10292000CDE902403A4649464046089BFFF783FFFF
:102930002046FFF732FF012501E04FF0FF35284622
:1029400009B0BDE8F08F84490968096809B9012117
:1029500000E0002121B14FF0FF31904A116006E004
:102960007D490968C968C8688C4A41681160704728
:1029700010B50446206B02F087F9204602F084F976
:1029800010BD70B5054601F0DEFF15B97548006849
:1029900000E028460446201DFFF702F878B9E06AF7
:1029A00000EB8000664951F8200040B994F82C10E3
:1029B000012088406E49096881436D480160A06A22
:1029C00018B104F11800FEF7EBFF68480068401CDE
:1029D0006649086063480068844209D1211D5C484B
:1029E000FEF7B8FF6E480068401C6D49086009E0BA
:1029F0005B480068401E5A4908602046FFF7B8FF50
:102A0000FFF7A1FF01F0C4FF57480068D0B1554857
:102A10000068844216D16348006808B9012000E0CC
:102A2000002038B900BF40F2654253A157A008F01A
:102A30001FFA00BF4FF080504E490860BFF34F8F20
:102A4000BFF36F8F70BD2DE9F0414FF0000855487E
:102A50000068002873D154480068451C524805603E
:102A6000FDB93D480068006808B9012000E0002079
:102A700038B900BF40F6D9123FA144A008F0F8F9D8
:102A800000BF354807683548006833490860334857
:102A9000076046480068401C44490860FFF753FF40
:102AA00000BF3E48006885423CD300BF2A4800680A
:102AB000006808B9012000E0002020B14FF0FF308D
:102AC000364908602DE024480068C068C46866681C
:102AD000B54202D23148066023E0201DFEF760FFB8
:102AE000A06A18B104F11800FEF75AFF94F82C10F0
:102AF000012088401E49096808431D490860E16AB1
:102B000001EB81010E4A02EB8100211DFEF722FF3D
:102B10001449E06A0968C96A8842C7D34FF00108BE
:102B2000C4E700BF0F480068C06A00EB800004499A
:102B300051F82000012801D94FF001083DE037E0AD
:102B4000FC1500207C18002090180020A4180020FC
:102B5000B8180020CC1800204C00002050000020A5
:102B6000580000204800002064000020740000206D
:102B70006000002004ED00E02E2E5C467265655278
:102B8000544F535C7461736B732E63004572726FA4
:102B9000723A25732C25640D0A000000780000208D
:102BA00054000020800000205C0000207000002005
:102BB000FE480068401CFD490860FD48006808B1F7
:102BC0004FF001084046BDE8F08170B500240026B2
:102BD000F848006848B900BF4FF4FD62AFF26801E1
:102BE000AFF2580008F044F900BF01F0ACFEF14824
:102BF0000068401EEF4908600846006800284FD171
:102C0000ED48006800284BD024E0EC48C068C46858
:102C100004F11800FEF7C4FE201DFEF7C1FE94F873
:102C20002C1001208840E64909680843E4490860FF
:102C3000E16A01EB8101E34A02EB8100211DFEF70D
:102C400089FEE149E06A0968C96A884202D3012025
:102C5000D7490860D948006808B9012000E0002081
:102C60000028D2D00CB1FFF76EFED048056865B1E0
:102C700000BFFFF7E8FE10B10120CD4908606D1ECE
:102C8000002DF6D10020C9490860C948006838B154
:102C900001263007CD490860BFF34F8FBFF36F8F18
:102CA00001F076FE304670BD2DE9F04105460E4636
:102CB000C7480768C4480068001DFEF771FE50B998
:102CC000C148006890F82C1001208840BC49096870
:102CD0008143BB480160681C38B936B1BA48016805
:102CE000091DBC48FEF736FE1AE07C19B64800689C
:102CF0004460BC4207D2B4480168091DB648006868
:102D0000FEF734FE0CE0B0480168091DB3480068C6
:102D1000FEF72CFEB2480068844201D2B04804603D
:102D2000BDE8F081A3480068401CA24908607047D4
:102D30002DE9F04704460F464FF000094CB900BF9B
:102D400040F27942AFF2D011AFF2C01008F090F823
:102D500000BF0FB1012000E0002048B900BF40F2E1
:102D60007A42AFF2EC11AFF2DC1008F081F800BF4C
:102D70009048006808B9012000E0002048B900BF71
:102D800040F27B42AFF21021AFF2002008F070F861
:102D900000BFFFF7C7FF8E4806682068C519206886
:102DA000B04207D92068A8420BD9B54209D94FF0E3
:102DB000010906E02068A84201D8B54201D94FF0C8
:102DC00001092560B9F1000F03D0A81B0021FFF70E
:102DD0006BFFFFF7FAFE8046B8F1000F07D14FF006
:102DE00080507A490860BFF34F8FBFF36F8FBDE803
:102DF000F08770B504460025CCB16E48006808B96C
:102E0000012000E0002048B900BF40F2CF42AFF2FD
:102E10009821AFF2882008F02BF800BFFFF782FF5F
:102E200000212046FFF740FFFFF7CFFE05463DB9E2
:102E30004FF0805065490860BFF34F8FBFF36F8F2D
:102E400070BD2DE9F04107463E464EB900BF40F245
:102E5000FB42AFF2DC21AFF2CC2008F009F800BF52
:102E600059480068864201D100241EE001F06BFD44
:102E7000756901F08DFD59480068854203D05648B8
:102E80000068854201D102240FE05248854205D1F5
:102E9000B06A08B9032408E0022406E051488542DC
:102EA00000D00DB9042400E001242046BDE8F081E3
:102EB00070B5044601F047FD14B94348006800E0CE
:102EC00020460646F56A01F063FD284670BD2DE9EF
:102ED000F041054601F08EFD00BF5021EFF3118057
:102EE00081F31188BFF34F8FBFF36F8F00BF04468C
:102EF00015B93548006800E028460746FE6A00BF5D
:102F000084F3118800BF3046BDE8F0812DE9F04719
:102F100080460D464FF00009202D01D2012000E02F
:102F2000002048B900BF4FF4B062AFF2B431AFF245
:102F3000A43007F09DFF00BF202D00D31F2501F016
:102F400002FDB8F1000F02D11F48006800E04046C2
:102F50000446E66CAE4275D0B5420BD91A480068FB
:102F600084420DD018480068C06AA84208D84FF0C3
:102F7000010905E014480068844201D14FF00109BD
:102F8000E76AE16AE06C884200D1E562E564A06925
:102F900000F0004010B9C5F12000A06107EB8701E7
:102FA000084A02EB8101606988421DE06800002048
:102FB0006C0000208000002058000020A418002091
:102FC00060000020FC1500204800002004ED00E017
:102FD0005C000020CC180020500000204C00002095
:102FE00078000020B818002001D1012000E0002066
:102FF000E0B1201DFEF7D4FC30B90120B840FC49F7
:1030000009688143FA48016094F82C100120884037
:10301000F74909680843F6490860E16A01EB810154
:10302000F44A02EB8100211DFEF794FCB9F1000F78
:1030300007D04FF08050F0490860BFF34F8FBFF3C7
:103040006F8F00BF01F0A4FCBDE8F08710B5EB481E
:10305000006818B10120EA4908604BE00020E84907
:103060000860E8480068E849086008460068E749E1
:10307000096888420BD9E649096801F15400496D95
:10308000E14A1268E14B1B68D21A11440160DE4824
:103090000068DE490860D6480068B0FA80F0C0F1E8
:1030A0001F0404EB8400D34951F8200008B101202B
:1030B00000E0002048B900BF40F6F622AFF24851C8
:1030C000AFF2385007F0D4FE00BF04EB8401C94AC8
:1030D00002EB810041684968416000F108014268E3
:1030E0008A4202D14168496841604168C968C84A5A
:1030F000116000BF10BD70B5054601F024FC15B984
:10310000C348006800E028460446201DFEF748FC3E
:1031100078B9E06A00EB8000B64951F8200040B968
:1031200094F82C1001208840B14909688143B048C7
:103130000160A06A18B104F11800FEF731FC211DEE
:10314000B448FEF707FC01F023FCB348006828B13F
:1031500001F0F9FBFFF7F7FB01F01AFCAC4800683F
:10316000844228D1AC480068C8B1A448006808B9B6
:10317000012000E0002048B900BF40F25762AFF2E2
:103180000861AFF2F85007F073FE00BF4FF08050B7
:1031900099490860BFF34F8FBFF36F8F0BE09D48D5
:1031A00000689E490968884203D100209849086058
:1031B00001E0FFF74BFF70BD70B5054600262C46B9
:1031C0004DB900BF40F28162AFF25461AFF244608A
:1031D00007F04EFE00BF8F496069884201D101208F
:1031E00000E0002070B18E49A06A884201D1012020
:1031F00000E0002030B9A06A08B9012000E00020FA
:1032000000B10126304670BD70B505462C464DB95B
:1032100000BF40F2AB62AFF2A061AFF2906007F086
:1032200027FE00BF74B37A48006884422AD001F0B8
:103230008AFB2046FFF7C0FF10B3201DFEF7B0FB4E
:1032400094F82C10012088406949096808436849AE
:103250000860E16A01EB8101664A02EB8100211DF1
:10326000FEF778FB6A49E06A0968C96A884207D3B1
:103270004FF0805060490860BFF34F8FBFF36F8FEE
:1032800001F086FB70BD2DE9F0410646002734466B
:103290004EB900BF40F2E262AFF22471AFF2147097
:1032A00007F0E6FD00BF01F0A5FB00BF5021EFF3E2
:1032B000118081F31188BFF34F8FBFF36F8F00BF71
:1032C00005462046FFF778FF20B34C480068E0B978
:1032D0004F49E06A0968C96A884200D30127201D66
:1032E000FEF75EFB94F82C100120884040490968E5
:1032F00008433F490860E16A01EB81013D4A02EB66
:103300008100211DFEF726FB04E004F1180144486A
:10331000FEF720FB00BF85F3118800BF3846BDE8EB
:10332000F08170B523E0FFF7FDFC3E48006808B966
:10333000012000E000200546FFF747FCBDB901F081
:1033400002FB3848C068C468201DFEF729FB3348DB
:103350000068401E3149086033480068401E324909
:10336000086001F015FB2046FFF702FB00BF2E4866
:1033700000680028D7D170BD00BFFFF7D2FF1D48FD
:1033800000680128F9D94FF080501B490860BFF34D
:103390004F8FBFF36F8FF0E71CB5244800210B4619
:1033A0008222CDE9001022A12348FFF79CFA0446AF
:1033B000012C02D101F09BF80446012C42D100BF40
:1033C000502080F31188BFF34F8FBFF36F8F00BF82
:1033D0004FF0FF301949086001200F4908600020B4
:1033E000174908600749086001F013FA3AE0000045
:1033F00060000020FC15002004ED00E080000020AB
:103400006C000020C4000020880000208400002000
:1034100048000020CC180020640000205800002044
:10342000A4180020B8180020540000207C000020C0
:1034300049444C4500000000793301087800002021
:103440005C000020601C08B1012000E0002048B9A9
:1034500000BF40F28472AFF6E001AFF6D00007F093
:1034600007FD00BF1CBD10B500BF502080F31188C0
:10347000BFF34F8FBFF36F8F00BF0020F949086083
:1034800001F04EFA10BDF8490868704770B501F0B8
:10349000B1FA0025F4480468204670BDF34800687E
:1034A000704770B5044614B9F148006800E0204642
:1034B00005464DB900BF40F68C02AFF64411AFF699
:1034C000341007F0D5FC00BF05F1340070BD024692
:1034D000002101E0521C491C1078A528FAD0890867
:1034E00088B270472DE9F04107460C4690461E46CB
:1034F00017B9DF48006800E038460546256005F149
:1035000034006060E86A2061286BE061686CA0604C
:10351000207B032807D1FFF705FCA86A08B1022029
:103520002073FFF752FBE86C6061686DA061052EA7
:1035300001D0267303E03846FFF783FC2073B8F10F
:10354000000F04D0286BFFF7C2FF208401E00020A9
:103550002084BDE8F0812DE9F04707460C469046EF
:103560000026206848B3204641684968416000F160
:10357000080142688A4202D1416849684160416855
:10358000D1F80C9000BF204641684968416000F1C5
:10359000080142688A4202D1416849684160416835
:1035A000CD6806EBC60007EB8001434601222846A2
:1035B000FFF798FF761C4D45E5D13046BDE8F08712
:1035C0002DE9F04105468846164600242027FFF7DE
:1035D000A9FBA648006880453AD300BF7F1E07EBD1
:1035E0008702A44B03EB820104EBC40205EB8200CB
:1035F0000122FFF7B0FF0444002FEFD104EBC40118
:1036000005EB810002229C490968FFF7A4FF0444EE
:1036100004EBC40105EB8100022298490968FFF719
:103620009AFF044404EBC40105EB81000422944991
:10363000FFF791FF044404EBC40105EB8100032272
:103640009049FFF788FF044416B18F480068306046
:10365000FFF7BBFA2046BDE8F08170B504460D4681
:103660004CB900BF40F60632AFF6F421AFF6E420C5
:1036700007F0FEFB00BF7E48016818312046FEF7C8
:1036800075F901212846FFF70FFB70BD70B50446A0
:103690000D4616464CB900BF40F61732AFF628313A
:1036A000AFF6183007F0E4FB00BF7848006808B1B7
:1036B000012000E0002048B900BF40F61B32AFF601
:1036C0004831AFF6383007F0D3FB00BF45F000407B
:1036D0006749096888616648016818312046FEF725
:1036E00039F901213046FFF7DFFA70BD70B50546A4
:1036F0000E4614464DB900BF40F63132AFF6883160
:10370000AFF6783007F0B4FB00BF594801681831B4
:103710002846FEF71FF90CB14FF0FF362146304620
:10372000FFF7C2FA70BD70B50646F068C4684CB9C0
:1037300000BF40F66132AFF6C031AFF6B03007F0EF
:1037400097FB00BF04F11800FEF72AF94F48006804
:10375000A8B9201DFEF724F994F82C100120884008
:103760004B49096808434A490860E16A01EB810155
:10377000404A02EB8100211DFEF7ECF804E004F161
:1037800018014448FEF7E6F83949E06A0968C96A51
:10379000884204D9012501203F49086000E0002546
:1037A000284670BD2DE9F04105460F4637480068B0
:1037B00008B1012000E0002048B900BF40F699326E
:1037C000AFF64C41AFF63C4007F052FB00BF47F06C
:1037D00000402860EC684CB900BF40F6A132AFF65B
:1037E0006841AFF6584007F043FB00BF2846FEF79C
:1037F000D7F8201DFEF7D4F894F82C10012088404B
:1038000023490968084322490860E16A01EB810104
:10381000184A02EB8100211DFEF79CF81449E06A6A
:103820000968C96A884204D9012601201A4908603A
:1038300000E000263046BDE8F08110B504464CB9E2
:1038400000BF40F6C132AFF6D041AFF6C04007F03E
:103850000FFB00BF114800682060034800686060EB
:1038600010BD0000640000205C0000205800002013
:1038700048000020FC1500204C00002050000020D3
:10388000B8180020CC180020C400002080000020C0
:1038900060000020A41800206C00002070000020B0
:1038A0002DE9F04104460D464CB900BF40F6CB323D
:1038B000AFF63C51AFF62C5007F0DAFA00BF4DB925
:1038C00000BF40F6CC32AFF65051AFF6405007F093
:1038D000CFFA00BF01F037F8FE4807682868401C9F
:1038E00008B9002619E0FC4920680968884204D01C
:1038F0006068B84201D801260FE06068381A29686C
:10390000884209D228686168791A401A28602046DE
:10391000FFF793FF002600E0012601F039F830465A
:10392000BDE8F0810120ED4908607047014611B102
:103930000A46906C00E00020704708B1024691648E
:103940007047E74908687047E649096809B90120E6
:1039500005E0E549096809B9022000E00020704748
:1039600070B505462C46002D4BD0DD49E06A09684C
:10397000C96A884245D2A06900F0004028B9D848F9
:103980000068C06AC0F12000A061E16A01EB81011A
:10399000D64A02EB81016069884201D1012000E032
:1039A000002050B3201DFDF7FBFF78B9E06A00EB63
:1039B0008000CE4951F8200040B994F82C10012025
:1039C0008840CB4909688143C9480160C448006800
:1039D000C06AE06294F82C1001208840C44909684C
:1039E0000843C3490860E16A01EB8101BF4A02EB69
:1039F0008100211DFDF7AEFF03E0B9480068C06AF1
:103A0000E06270BD70B505462C460026002D53D0EF
:103A1000B3480068844201D1012000E0002048B989
:103A200000BF40F6C762AFF6B061AFF6A06007F026
:103A30001FFA00BF206D48B900BF40F6C962AFF65B
:103A4000C861AFF6B86007F013FA00BF206D401EE2
:103A50002065E16CE06A88422ED0206D60BB201D9D
:103A6000FDF79EFF78B9E06A00EB80009F4951F8AE
:103A7000200040B994F82C10012088409C49096826
:103A800081439B480160E06CE062E06AC0F1200085
:103A9000A06194F82C1001208840954909680843DA
:103AA00093490860E16A01EB8101904A02EB8100D1
:103AB000211DFDF74FFF0126304670BD70B505464C
:103AC0000E463146284607F00BFC284607F041FC1D
:103AD000044602E020202855641C0F2CFAD3002055
:103AE0002855281970BD7FB50546002028708148EB
:103AF000006803907F49096801EBC101880001F06B
:103B00003AF80446002C53D0002220460399FFF7D0
:103B100057FD03900020029043E0029800EBC000A4
:103B200004EB8000007B012806D0022806D0032881
:103B300006D0042808D105E0522607E0422605E019
:103B4000532603E0442601E0002600BF00BF029890
:103B500000EBC00004EB800041682846FFF7AEFF91
:103B60000546029800EBC00004EB800080680299D3
:103B700001EBC10104EB8101098CCDE90010029831
:103B800000EBC00004EB800032465BA103692846CD
:103B900007F07AF9284607F0DCFB05440298401C40
:103BA0000290DDE902018842B7D3204601F06CF8AB
:103BB0007FBDFEB50546002028704E480068029083
:103BC0004C49096801EBC101880000F0D4FF0446AC
:103BD000002C48D06A4620460299FFF7F1FC02907B
:103BE00064210098B0FBF1F000900098002837D0D5
:103BF0000020019030E0019800EBC00004EB800051
:103C000080690099B0FBF1F6019800EBC00004EB6D
:103C1000800041682846FFF751FF05465EB10198D4
:103C200000EBC00004EB8000334637A182692846D0
:103C300007F02AF909E0019800EBC00004EB8000CE
:103C400034A18269284607F01FF9284607F081FB56
:103C500005440198401C0190DDE901018842CAD366
:103C6000204601F011F8FEBD1D49096888691C490C
:103C70000968C96AC1F12001194A12689161704747
:103C80001748006830B11649096801F15000096D04
:103C9000491C016012480068704770B506460D4621
:103CA00000F051FE0E480068806D88B901200C4973
:103CB000096881F85C005DB101212846FEF7F4FF38
:103CC0004FF0805016490860BFF34F8FBFF36F8FDE
:103CD00028E000005C000020700000206C00002044
:103CE000480000206400002080000020FC15002017
:103CF000600000205800002009256309257509256A
:103D0000750925750D0A0000092575090925752510
:103D1000250D0A0009257509093C3125250D0A00E4
:103D200004ED00E000F034FE00F00DFEF348006802
:103D3000846D4CB126B10020F0490968886503E024
:103D4000601EEE49096888650020EC49096881F821
:103D50005C0000F01DFE204670BD2DE9F0410746D5
:103D6000884614461D4600F0EEFDE448006890F8D1
:103D70005C00022818D0E149096801F15800896DFA
:103D8000B94301600120DD49096881F85C005DB13B
:103D900001212846FEF788FF4FF08050D84908607F
:103DA000BFF34F8FBFF36F8F00F0F2FD00F0CBFD3C
:103DB0001CB1D2480068806D2060D048006890F83F
:103DC0005C00012801D1002608E0CC49096801F116
:103DD0005800896D21EA0801016001260020C749C9
:103DE000096881F85C0000F0D3FD3046BDE8F08141
:103DF0002DE9F04706460D46174698464FF0010A52
:103E000046B900BF41F2FD02BE4901F1140007F0BE
:103E10002FF800BF344600F096FDB8F1000F02D035
:103E2000A06DC8F8000094F85C90022084F85C0053
:103E3000052F17D2DFE807F01503070B0D00A06D63
:103E40002843A0650EE0A06D401CA0650AE0A565B2
:103E500008E0B9F1020F01D0A56501E04FF0000ABA
:103E600000E000BF00BFB9F1010F31D1201DFDF707
:103E700097FD94F82C1001208840A3490968084355
:103E8000A1490860E16A01EB8101A04A02EB8100CF
:103E9000211DFDF75FFDA06A08B9012000E00020A8
:103EA00040B900BF41F23512964901F1140006F005
:103EB000DFFF00BF9149E06A0968C96A884207D9F3
:103EC0004FF080508E490860BFF34F8FBFF36F8F64
:103ED00000F05EFD5046BDE8F0872DE9F84F07463B
:103EE0000E4690469946DDF828B00120009047B96B
:103EF00000BF41F26812834901F1140006F0B8FFD7
:103F000000BF00F077FD3C4600BF5021EFF3118069
:103F100081F31188BFF34F8FBFF36F8F00BF05464A
:103F2000B9F1000F02D0A06DC9F8000094F85CA0B0
:103F3000022084F85C00B8F1050F17D2DFE808F022
:103F40001503070B0D00A06D3043A0650EE0A06DBA
:103F5000401CA0650AE0A66508E0BAF1020F01D096
:103F6000A66501E00020009000E000BF00BFBAF1AC
:103F7000010F3CD1A06A08B9012000E0002040B93F
:103F800000BF41F2AF125F4901F1140006F070FF6B
:103F900000BF5F480068A8B9201DFDF701FD94F837
:103FA0002C10012088405849096808435649086088
:103FB000E16A01EB8101554A02EB8100211DFDF709
:103FC000C9FC04E004F118015248FDF7C3FC4B4959
:103FD000E06A0968C96A884209D9BBF1000F03D0B9
:103FE0000120CBF8000002E001204B49086000BF2F
:103FF00085F3118800BF0098BDE8F88F2DE9F041E6
:1040000005460F4645B900BF41F2E3123D4901F1B3
:10401000140006F02DFF00BF00F0ECFC2C4600BFA2
:104020005021EFF3118081F31188BFF34F8FBFF35D
:104030006F8F00BF064694F85C80022084F85C0015
:10404000A06D401CA065B8F1010F39D1A06A08B974
:10405000012000E0002040B900BF41F209222949B7
:1040600001F1140006F004FF00BF29480068A8B958
:10407000201DFDF795FC94F82C1001208840224962
:104080000968084320490860E16A01EB81011F4A81
:1040900002EB8100211DFDF75DFC04E004F1180135
:1040A0001C48FDF757FC1549E06A0968C96A88424F
:1040B00006D917B10120386002E0012016490860D6
:1040C00000BF86F3118800BFBDE8F08170B50546DA
:1040D00015B90A48006800E02846064600F033FC9F
:1040E00096F85C00022804D1002086F85C000124C8
:1040F00000E0002400F04CFC204670BD4800002089
:1041000004ED00E0782B010860000020FC15002081
:1041100080000020A41800206C0000202DE9F04150
:1041200004460D4616461F464FF0000865602461A0
:10413000B5420CD8F01BA169884202D34FF00108A8
:1041400011E0211DF9480068FDF710FC0BE0BE42AC
:1041500004D2BD4202D34FF0010804E0211DF4480F
:104160000068FDF703FC4046BDE8F0812DE9FF47FC
:1041700004460D4616461F46DDF830804FF0000914
:104180003CB900BF4FF4D372EAA1F0A006F070FE74
:1041900000BFF248006810B3009501960294062D06
:1041A00015DAFFF7D1FB022808D100234246694601
:1041B000EA480068FDF766FD814610E000231A46D4
:1041C0006946E6480068FDF75DFD814607E000238B
:1041D0003A466946E1480068FDF7D4FF8146484603
:1041E00004B0BDE8F0872DE9F8432FE0D04800681F
:1041F000C0680568CE480068C068C468201DFDF727
:10420000CFFB2046616A8847E06901281ED1A0697A
:104210004619AE4207D966602461211DC448006872
:10422000FDF7A4FB12E0002003462A460146009059
:104230002046FFF79BFF07463FB900BF40F292328E
:10424000BCA1C2A006F014FE00BF00BFB8480068C1
:10425000006808B9012000E000200028C6D0B4485A
:10426000D0F80080B1480068B1490860AF48C0F894
:104270000080BDE8F88370B50446FFF704F90546F1
:10428000B7480068854204D2FFF7ADFF01202060E7
:1042900001E000202060B2480560284670BDF0B5FE
:1042A00087B076E0039800280EDA04AE3EB900BF6E
:1042B00040F2E7229FA1A5A006F0DAFD00BFD6E9F3
:1042C0000020B168904700BF0398002861DB059C7F
:1042D000606908B9012000E0002010B9201DFDF739
:1042E0005FFB02A8FFF7C7FF054603980A284ED2D6
:1042F000DFE800F00905072E304906082F3100BF1E
:1043000000BF00BF00BF0498A269811803462A4677
:104310002046FFF703FFD0B12046616A8847E06975
:10432000012814D1002000900498A16942180023AC
:1043300019462046FFF71AFF07463FB900BF40F273
:1043400021327CA181A006F093FD00BF00BF1FE0D9
:1043500000BF1DE000BF0498A061A06908B1012062
:1043600000E0002038B900BF4FF44E7271A177A071
:1043700006F07EFD00BFA06941192B462A46204663
:10438000FFF7CCFE04E0204600F07EFC00E000BF1A
:1043900000BF00231A4603A970480068FDF7C2FD5C
:1043A00000287FF47FAF07B0F0BDF8B505460F4693
:1043B0005F480068C068C468201DFDF7F1FAE06935
:1043C00001281AD1A06941192B463A462046FFF729
:1043D000A5FE90B1002003462A46014600902046E3
:1043E000FFF7C4FE06463EB900BF4FF4027251A16A
:1043F00056A006F03DFD00BF00BF2046616A884719
:10440000F8BDF8B505460C46FEF78CFC6846FFF78C
:1044100032FF0646009820BB44B9B54206D8FEF7E5
:10442000D4FB31462846FFF7C0FF1CE03CB13F48B3
:104430000068006808B9012000E000200446A91BBC
:10444000224646480068FEF710F9FEF7BEFB50B959
:104450004FF0805043490860BFF34F8FBFF36F8F19
:1044600001E0FEF7B2FBF8BD0146314A126812685E
:104470000AB9012200E000220A600A6822B92C4A27
:104480001268D268106800E00020704708B500BFCD
:104490006846FFF7E9FF044620460099FFF7B1FFA1
:1044A000FFF7FDFEF4E710B500F04DFA2B48006869
:1044B000D0B92D48FDF73EFA2C48FDF73BFA2A48C3
:1044C0001B4908602948194908600022102105206D
:1044D000FDF7D7FA214908600846006820B124A1F9
:1044E0001E480068FEF79BF800F052FA10BD1CB59C
:1044F0000024FFF7D8FF1948006858B11E481F2153
:1045000000234FF48272CDE900101CA11D48FEF774
:10451000EAF904463CB900BF40F2331205A10BA0F2
:1045200006F0A6FC00BF20461CBD00009000002045
:104530008C0000202E2E5C4672656552544F535CF1
:1045400074696D6572732E63000000004572726FAE
:10455000723A25732C25640D0A0000009400002097
:104560009C00002004ED00E0E0180020F41800207A
:10457000546D72510000000098000020546D7220AC
:10458000537663008D4401082DE9F04706460D4639
:1045900017469846DDE908940DB1012000E000209F
:1045A00048B900BF4FF4C672AFF27801AFF26400B1
:1045B00006F05EFC00BF5CB1FFF775FF2660A561E9
:1045C000E761C4F82080C4F82490201DFDF7BFF9EE
:1045D000BDE8F0872DE9FC4705460E46174698468C
:1045E000DDF828902C2000F0C6FA04463CB1434682
:1045F0003A4631462846CDE90094FFF7C5FF2046EC
:10460000BDE8FC8710B56348006808B1012000E0F0
:10461000002048B900BF4FF4E872AFF2E801AFF2F2
:10462000D40006F025FC00BF5A48006810BD70B5E4
:10463000044625464CB900BF40F2D912AFF20C1126
:10464000AFF2F80006F014FC00BFA86970BD70B5A9
:10465000044625464CB900BF40F2E312AFF22C11DC
:10466000AFF2181006F004FC00BF6E68304670BD53
:1046700070B5044625464CB900BF40F2ED12AFF2CA
:104680004C11AFF2381006F0F3FB00BF286870BD84
:1046900070B5044626464CB900BF40F2DA32AFF29C
:1046A0006C11AFF2581006F0E3FB00BF00F04BF9BD
:1046B000706908B9012000E0002080F0010500F0D9
:1046C00067F9284670BD70B5044626464CB900BF50
:1046D00040F2EF32AFF2A411AFF2901006F0C8FB37
:1046E00000BF00F030F9356A00F052F9284670BD7D
:1046F00070B504460D4626464CB900BF40F2FF3265
:10470000AFF2D011AFF2BC1006F0B2FB00BF00F068
:104710001AF9356200F03CF970BD2DE9FF410446FD
:104720000D4616461F466FF0010000900194029559
:10473000039600233A46694617480068FDF722FDB4
:104740008046404604B0BDE8F0812DE9FF410446B3
:104750000D4616461F461048006848B900BF40F293
:104760002B42AFF23021AFF21C2006F081FB00BFDC
:104770004FF0FF30009001940295039600233A46D3
:10478000694605480068FDF77DFA8046404604B05A
:10479000BDE8F0819800002094000020AD4800683A
:1047A000401C08B9012000E0002038B900BF40F2E9
:1047B0000F12A9A1B3A006F05BFB00BF00BF502001
:1047C00080F31188BFF34F8FBFF36F8F00BF00BF1F
:1047D000FEE7001F4FF080730360001F21F001030C
:1047E0000360001FAB4B036014380260001F6FF0C2
:1047F0000203036020387047A74800684FF47A71BD
:10480000B0FBF1F0401E4FF0E02148610720086145
:1048100070471CB5A1480068A149884201D0012019
:1048200000E0002038B900BF40F259128AA195A0DB
:1048300006F01EFB00BF994800689949491E88424E
:1048400001D0012000E0002038B900BF4FF4AD7264
:1048500081A18CA006F00CFB00BF924C2046007892
:104860000190FF20214608700846007800909DF8CE
:10487000000000F0F0009DF80010884201D10120F6
:1048800000E0002038B900BF40F2731272A17DA091
:1048900006F0EEFA00BF9DF8000000F050008249DB
:1048A000087007208149086009E080480068401EC0
:1048B0007E4908609DF800004006000E00909DF8BB
:1048C000000000F080008028EFD0784800680002E7
:1048D000764908600846008800F4E0600860714985
:1048E000019808706D482030006840F470006B49F2
:1048F000203108600846006840F070400860FFF70B
:104900007BFF002053490860FBF7F8FC684800680B
:1049100040F0404066490860FBF7E0FC00201CBD09
:1049200010B54C480068B0F57A7F01D1012000E055
:10493000002038B900BF40F2A91247A151A006F0EB
:1049400097FA00BF10BD10B500BF502080F311884A
:10495000BFF34F8FBFF36F8F00BF3E480068401C0E
:104960003C49086008460068012810D14B48001DEA
:104970000068C0B208B9012000E0002038B900BFCB
:1049800040F2B91234A13FA006F072FA00BF10BD88
:1049900010B53048006838B900BF4FF4E0722EA15E
:1049A00038A006F065FA00BF2A480068401E294971
:1049B00008600846006820B9002080F3118800BF15
:1049C00000BF10BD10B500BF502080F31188BFF3A9
:1049D0004F8FBFF36F8F00BFFEF735F820B14FF058
:1049E00080502E49091D086000BF002080F3118807
:1049F00000BF10BD70B5FBF7B9FC0546102D13D3F1
:104A000005F1E02090F8F04327480078844201DB6C
:104A1000012000E0002038B900BF4FF440720EA121
:104A200018A006F025FA00BF1C480C30006800F4FE
:104A3000E0601E490968884201D8012000E000209A
:104A400038B900BF4FF4447203A10EA006F010FA6B
:104A500000BF70BDA00000202E2E5C46726565521E
:104A6000544F535C706F727461626C655C52564453
:104A7000535C41524D5F434D34465C706F72742EEF
:104A8000630000004572726F723A25732C25640D25
:104A90000A0000009D4701080400002000ED00E02E
:104AA00071C20F4100E400E0A4000020A800002033
:104AB00034EF00E010B50146974800E00068036855
:104AC0008B42FBD30246436813448B4204D14368B4
:104AD0004C682344436001460A464B68134404680B
:104AE000A34211D18D4C03682468A34208D04B68BF
:104AF0000468646823444B6003681B680B6005E02E
:104B0000864B1B680B6001E003680B60884200D095
:104B1000016010BD30B54FF48033814800F00704C8
:104B20002CB1C01D20F007007D4C041B1B1B02464E
:104B3000794C22600024784D6C60D018083820F041
:104B40000700764C20600024744D2D686C60734D16
:104B50002D682C601146441A4C60704C24680C601F
:104B6000704D4C682C60704D4C682C604FF00044C8
:104B70006E4D2C6030BD2DE9F04104464FF0000829
:104B8000FEF7D0F86548006808B9FFF7C3FF67482B
:104B900000682040002863D1B4B1083404F0070055
:104BA00090B104F00700C0F10800044404F00700CD
:104BB00008B9012000E0002030B900BFBF225CA18D
:104BC00065A006F055F900BF002C49D05648006892
:104BD000844245D8504E3046056801E02E462D6887
:104BE0006868A04202D228680028F7D14B480068C4
:104BF000854235D0306800F1080828683060686860
:104C0000001B102815D92F1907F0070008B901203B
:104C100000E0002030B900BFEC2245A14EA006F014
:104C200027F900BF6868001B78606C603846FFF7A2
:104C300041FF3D4968680968081A3B490860084611
:104C4000006838490968884203D237480068354906
:104C50000860364968680968084368600020286071
:104C6000FDF7B3FF08F0070008B9012000E00020BD
:104C700038B900BF4FF496722DA137A006F0F8F8AE
:104C800000BF4046BDE8F08170B506463546002EAF
:104C900039D0083D2C46254960680968084008B1AC
:104CA000012000E0002038B900BF4FF4A07220A11D
:104CB00029A006F0DDF800BF206808B9012000E057
:104CC000002038B900BF40F2411219A122A006F01D
:104CD000CFF800BF154960680968084098B120689E
:104CE00088B912496068096888436060FEF71AF85D
:104CF0000D496068096808440B4908602046FFF7C1
:104D0000D9FEFDF762FF70BD07480068704705488F
:104D10000068704770470000AC000020B40000201D
:104D200000000010BC000020B8000020C0000020DF
:104D30002E2E5C4672656552544F535C706F7274D0
:104D400061626C655C4D656D4D616E675C68656147
:104D5000705F342E630000004572726F723A2573E3
:104D60002C25640D0A000000016000238380C380AD
:104D700002817047F0B503460C469D881E892E447B
:104D8000DF88F61B1F8996FBF7FC07FB1C66B0B299
:104D9000904200DD104600210BE0DE880E441F89A2
:104DA00096FBF7FC07FB1C661F68BE5D66544E1C35
:104DB000B1B28142F1DBDE8806441F8996FBF7FC25
:104DC00007FB1C66DE80F0BDF0B503460C46DD88AF
:104DD0001E8935449E88AD1B6D1E1E8995FBF6F716
:104DE00006FB1755A8B2904200DD104600210BE0EB
:104DF0009D880D441E8995FBF6F706FB1755675CE9
:104E00001E6877554D1CA9B28142F1DB9D8805448F
:104E10001E8995FBF6F706FB17559D80F0BD10B572
:104E200001468A880B891A44CB88D21A0B8992FBD7
:104E3000F3F403FB142290B210BD00000146086891
:104E4000704701464848814201D2002070474748D8
:104E5000814201D20820F9E74548814201D2102061
:104E6000F4E74448814201D21820EFE742488142EA
:104E700001D22020EAE74148814201D22820E5E71B
:104E80003F48814201D23020E0E73E48814201D2D2
:104E90003820DBE73C48814201D24020D6E73B483E
:104EA000814201D24820D1E73948814201D25020C5
:104EB000CCE75820CAE72DE9F04704460E461746CE
:104EC0004FF009080025A9463248844202D304F075
:104ED000030008B1BDE8F08703F0A8FF002003F04D
:104EE00088FF254604EB87092B48854215D211E03F
:104EF0002846FFF7A3FF401C58B12846FFF7A1FF43
:104F00008246022103F0E6FF8046B8F1090F01D086
:104F100002E02D1D4D45EBD300BFB8F1090F0CD1B8
:104F200008E02046316804F0EEF8092800D003E0DC
:104F3000241D361D4C45F4D300BF012003F059FF5A
:104F400003F081FF00BFC5E730B503460C461546A8
:104F5000002206E01846FFF771FF44F822001B1DEF
:104F6000521CAA42F6D330BD004000080080000861
:104F700000C000080000010800000208000004084A
:104F8000000006080000080800000A0800000C08DD
:104F900000000E0800F000080000FF1F2DE9F0419E
:104FA00090B004460D4617461E46DDF858807548F9
:104FB000844204D90121880504F088FD03E0012121
:104FC000480504F083FD204603F01EFD00BF204687
:104FD00003F043FE0028FAD101950297039604904E
:104FE000CDF8148006904FF4806007904000089040
:104FF0008000099040110A9000020B9000200C9054
:1050000001200D9000200E900F9001A9204603F082
:105010009DFD0121204603F0D3FD10B0BDE8F081D5
:1050200000B58DB00121084604F050FD0121022099
:1050300004F04CFD0121080204F0A2FD0121080248
:1050400004F0F3FD00214FF4807004F0EEFD102019
:105050000B9003208DF8300000208DF833000BA951
:10506000494804F075FA20200B9003208DF8300099
:1050700000208DF833000BA9434804F069FA402062
:105080000B9003208DF8300000208DF833000BA921
:105090003D4804F05DFA80200B9003208DF830002D
:1050A00000208DF833000BA9374804F051FA012095
:1050B0000B9003208DF8300000208DF833000BA9F1
:1050C000324804F045FA002007900A9009904FF406
:1050D0008030089007A803F06DFA002001900120AD
:1050E0008DF808008DF80900002003900590062037
:1050F0008DF8180001A9264803F02DFA4FF4967098
:10510000244B234A4C32002100901E481030FFF7F8
:1051100045FF012003F083FA0723012204211C48E4
:1051200003F09FFA072302220521194803F099FA98
:10513000072303220621164803F093FA07230422CB
:105140001946134803F08DFA072305220821104859
:1051500003F087FA0723062211210D4803F081FA94
:1051600001210B4803F028FB0121094803F019FB3A
:105170000121074803F035FA054803F0CEFA0DB0D7
:1051800000BD000000640240000002400004024034
:1051900000200140081900207FB505460C4601217A
:1051A000022004F0DCFC0295ADF804400020ADF8CC
:1051B0000600ADF80C0001A9164804F088FE012293
:1051C0001146144805F024FB0121124804F008FFA1
:1051D0001D208DF800000F208DF8010000208DF8B3
:1051E000020001208DF80300684603F03EF97FBD00
:1051F00010B50121074805F022FB012804D106481B
:105200000068401C044908600121024805F028FBA1
:1052100010BD000000040040C40000207CB504461E
:105220001F492068401A282190FBF1F0192190FBBA
:10523000F1F1012000FA01F50121284604F046FCB5
:10524000A0880090A0798DF8040000208DF8060059
:1052500003208DF8050001208DF8070069462068BD
:1052600004F076F97CBD10B50446A188206804F0EE
:10527000EBF910BD10B50446A188206804F0E6F9EA
:1052800010BD10B50446A188206804F0D0F910BD07
:1052900010B50446A188206804F0BCF910BD0000D8
:1052A0000000024010B5F848FFF7B8FFF648C07993
:1052B000012802D1F448FFF7D6FF10BD70B50546AE
:1052C0000C46F148C07940B91CB9EF48FFF7D2FF4E
:1052D0000BE0ED48FFF7C7FF07E01CB1EA48FFF716
:1052E000C9FF02E0E848FFF7BEFF70BD10B50446F5
:1052F000E548C079012807D1E348FFF7C9FF08B99D
:10530000012010BD0020FCE7DF48FFF7C1FFF8E7F0
:1053100010B50446DC48C079012807D1DA48FFF708
:10532000B0FF08B9012010BD0020FCE7D648FFF708
:10533000A8FFF8E710B5D548FFF770FFD348C0794C
:10534000012802D1D148FFF78EFF10BD70B5054688
:105350000C46CE48C07940B91CB9CC48FFF78AFF4B
:105360000BE0CA48FFF77FFF07E01CB1C748FFF713
:1053700081FF02E0C548FFF776FF70BD10B5044617
:10538000C248C079012807D1C048FFF781FF08B99A
:10539000012010BD0020FCE7BC48FFF779FFF8E7CB
:1053A00010B50446B948C079012807D1B748FFF7BE
:1053B00068FF08B9012010BD0020FCE7B348FFF7E3
:1053C00060FFF8E710B5B248FFF728FFB048C07992
:1053D000012802D1AE48FFF746FF10BD70B5054663
:1053E0000C46AB48C07940B91CB9A948FFF742FF49
:1053F0000BE0A748FFF737FF07E01CB1A448FFF711
:1054000039FF02E0A248FFF72EFF70BD10B5044639
:105410009F48C079012807D19D48FFF739FF08B997
:10542000012010BD0020FCE79948FFF731FFF8E7A5
:1054300010B504469648C079012807D19448FFF773
:1054400020FF08B9012010BD0020FCE79048FFF7BD
:1054500018FFF8E710B58F48FFF7E0FE8D48C079D8
:10546000012802D18B48FFF7FEFE10BD70B505463E
:105470000C468848C07940B91CB98648FFF7FAFE47
:105480000BE08448FFF7EFFE07E01CB18148FFF70F
:10549000F1FE02E07F48FFF7E6FE70BD10B504465E
:1054A0007C48C079012807D17A48FFF7F1FE08B996
:1054B000012010BD0020FCE77648FFF7E9FEF8E781
:1054C00010B504467348C079012807D17148FFF729
:1054D000D8FE08B9012010BD0020FCE76D48FFF799
:1054E000D0FEF8E710B56C48FFF798FE6A48C0791F
:1054F000012802D16848FFF7B6FE10BD70B5054619
:105500000C466548C07940B91CB96348FFF7B2FE44
:105510000BE06148FFF7A7FE07E01CB15E48FFF70C
:10552000A9FE02E05C48FFF79EFE70BD10B5044680
:105530005948C079012807D15748FFF7A9FE08B993
:10554000012010BD0020FCE75348FFF7A1FEF8E75B
:1055500010B504465048C079012807D14E48FFF7DE
:1055600090FE08B9012010BD0020FCE74A48FFF773
:1055700088FEF8E710B54948FFF750FE4748C07964
:10558000012802D14548FFF76EFE10BD70B50546F3
:105590000C464248C07940B91CB94048FFF76AFE42
:1055A0000BE03E48FFF75FFE07E01CB13B48FFF70A
:1055B00061FE02E03948FFF756FE70BD10B50446A3
:1055C0003648C079012807D13448FFF761FE08B991
:1055D000012010BD0020FCE73048FFF759FEF8E736
:1055E00010B504462D48C079012807D12B48FFF794
:1055F00048FE08B9012010BD0020FCE72748FFF74E
:1056000040FEF8E710B52648FFF708FE2448C079A9
:10561000012802D12248FFF726FE10BD70B50546CD
:105620000C461F48C07940B91CB91D48FFF722FE3F
:105630000BE01B48FFF717FE07E01CB11848FFF707
:1056400019FE02E01648FFF70EFE70BD10B50446C5
:105650001348C079012807D11148FFF719FE08B98E
:10566000012010BD0020FCE70D48FFF711FEF8E710
:1056700010B504460A48C079012815D10848FFF73B
:1056800000FE78B9012010BD30CC010838CC0108EB
:1056900040CC010848CC010850CC010858CC010886
:1056A00060CC01080020EEE7FA48FFF7EAFDEAE7E0
:1056B00010B5F948FFF7B2FDF748C079012802D1CB
:1056C000F548FFF7D0FD10BD70B505460C46F24811
:1056D000C07940B91CB9F048FFF7CCFD0BE0EE48AB
:1056E000FFF7C1FD07E01CB1EB48FFF7C3FD02E087
:1056F000E948FFF7B8FD70BD10B50446E648C0792B
:10570000012807D1E448FFF7C3FD08B9012010BD07
:105710000020FCE7E048FFF7BBFDF8E710B50446C2
:10572000DD48C079012807D1DB48FFF7AAFD08B999
:10573000012010BD0020FCE7D748FFF7A2FDF8E7E5
:1057400010B5D648FFF76AFDD448C079012802D1C8
:10575000D248FFF788FD10BD70B505460C46CF480E
:10576000C07940B91CB9CD48FFF784FD0BE0CB48A8
:10577000FFF779FD07E01CB1C848FFF77BFD02E0A9
:10578000C648FFF770FD70BD10B50446C348C07928
:10579000012807D1C148FFF77BFD08B9012010BDE2
:1057A0000020FCE7BD48FFF773FDF8E710B504469D
:1057B000BA48C079012807D1B848FFF762FD08B997
:1057C000012010BD0020FCE7B448FFF75AFDF8E7C0
:1057D00010B5B348FFF722FDB148C079012802D1C6
:1057E000AF48FFF740FD10BD70B505460C46AC480C
:1057F000C07940B91CB9AA48FFF73CFD0BE0A848A6
:10580000FFF731FD07E01CB1A548FFF733FD02E0CB
:10581000A348FFF728FD70BD10B50446A048C07925
:10582000012807D19E48FFF733FD08B9012010BDBC
:105830000020FCE79A48FFF72BFDF8E710B5044677
:105840009748C079012807D19548FFF71AFD08B994
:10585000012010BD0020FCE79148FFF712FDF8E79A
:1058600010B59048FFF7DAFC8E48C079012802D1C4
:105870008C48FFF7F8FC10BD70B505460C4689480A
:10588000C07940B91CB98748FFF7F4FC0BE08548A4
:10589000FFF7E9FC07E01CB18248FFF7EBFC02E0F0
:1058A0008048FFF7E0FC70BD10B504467D48C07924
:1058B000012807D17B48FFF7EBFC08B9012010BD98
:1058C0000020FCE77748FFF7E3FCF8E710B5044653
:1058D0007448C079012807D17248FFF7D2FC08B993
:1058E000012010BD0020FCE76E48FFF7CAFCF8E776
:1058F00010B56D48FFF792FC6B48C079012802D1C2
:105900006948FFF7B0FC10BD70B505460C46664807
:10591000C07940B91CB96448FFF7ACFC0BE06248A1
:10592000FFF7A1FC07E01CB15F48FFF7A3FC02E012
:105930005D48FFF798FC70BD10B504465A48C07921
:10594000012807D15848FFF7A3FC08B9012010BD72
:105950000020FCE75448FFF79BFCF8E710B504462D
:105960005148C079012807D14F48FFF78AFC08B990
:10597000012010BD0020FCE74B48FFF782FCF8E750
:1059800010B54A48FFF74AFC4848C079012802D1BF
:105990004648FFF768FC10BD70B505460C46434805
:1059A000C07940B91CB94148FFF764FC0BE03F489F
:1059B000FFF759FC07E01CB13C48FFF75BFC02E035
:1059C0003A48FFF750FC70BD10B504463748C0791F
:1059D000012807D13548FFF75BFC08B9012010BD4D
:1059E0000020FCE73148FFF753FCF8E710B5044608
:1059F0002E48C079012807D12C48FFF742FC08B98E
:105A0000012010BD0020FCE72848FFF73AFCF8E72A
:105A100010B52748FFF702FC2548C079012802D1BC
:105A20002348FFF720FC10BD70B505460C46204802
:105A3000C07940B91CB91E48FFF71CFC0BE01C489C
:105A4000FFF711FC07E01CB11948FFF713FC02E057
:105A50001748FFF708FC70BD10B504461448C0791C
:105A6000012807D11248FFF713FC08B9012010BD27
:105A70000020FCE70E48FFF70BFCF8E710B50446E2
:105A80000B48C079012817D10948FFF7FAFB88B9FC
