:020000040800F2
:10000000E8360020E5020008F52A0008EF25000880
:10001000212800084D1D0008893800080000000054
:10002000000000000000000000000000352E000865
:10003000F521000800000000852B0008992F00081A
:10004000FF020008FF020008FF020008FF0200088C
:10005000FF020008FF020008FF020008FF0200087C
:10006000FF020008FF020008FF020008FF0200086C
:10007000FF020008FF020008FF020008FF0200085C
:10008000FF020008FF020008FF020008FF0200084C
:10009000FF020008FF020008FF020008FF0200083C
:1000A000FF020008FF020008FF020008FF0200082C
:1000B000FF02000805300008FF020008FF020008E8
:1000C000FF020008FF020008FF020008FF0200080C
:1000D000FF020008F13100083932000875320008CB
:1000E000FF020008FF020008FF020008FF020008EC
:1000F000FF020008FF020008FF020008FF020008DC
:10010000FF020008FF020008FF020008FF020008CB
:10011000AD310008FF020008FF020008FF020008DE
:10012000FF020008FF020008FF020008FF020008AB
:10013000FF020008FF020008FF020008FF0200089B
:10014000FF020008FF020008FF020008FF0200088B
:10015000FF020008FF020008FF020008BD3200088D
:10016000FF020008FF020008FF020008FF0200086B
:10017000FF020008FF020008FF020008FF0200085B
:10018000FF020008FF02000800F002F800F092F8F9
:100190000AA090E8000C82448344AAF10107DA45E2
:1001A00001D100F087F8AFF2090EBAE80F0013F0A2
:1001B000010F18BFFB1A43F001031847103D000060
:1001C000303D0000103A24BF78C878C1FAD85207F1
:1001D00024BF30C830C144BF04680C6070470000C1
:1001E0000023002400250026103A28BF78C1FBD840
:1001F000520728BF30C148BF0B6070476E2900F01E
:10020000A781702900F0DD82662903F0DC8465296E
:1002100003F0D984672903F0D684612903F0D584DB
:1002200003681B0A28BF41F08001692900F054814E
:10023000642900F05181752900F04E816F2900F08A
:100240006A82782900F0A982E92900F00582E42970
:1002500000F00282F52900F0FF81EF2900F06782AB
:10026000F82900F0A8820368DB0928BF41F080016B
:10027000632900F0F587732900F0FA87E32901F07C
:100280000580F32901F00A80002070471FB503F0B4
:1002900095FC01F059F804000020002103F078FCDF
:1002A000401C60600020002103F05CFCE0601FBD8A
:1002B00010B510BD01F01AF81146FFF7E7FF03F083
:1002C0008FFB01F0F7F803B4FFF7F2FF03BC03F074
:1002D000FCFA000030BF72B6704762B6704780F318
:1002E000088870470948804709480047FEE7FEE74D
:1002F000FEE7FEE7FEE7FEE7FEE7FEE7FEE7FEE7D6
:1003000004480549054A064B704700009D2F000828
:1003100089010008E8300020E8360020E83200209B
:10032000E8320020704700000A46014900F024B975
:1003300004000020032A40F2308010F0030C00F08B
:10034000158011F8013BBCF1020F624498BF11F80F
:1003500001CB00F8013B38BF11F8013BA2F10402C8
:1003600098BF00F801CB38BF00F8013B11F0030340
:1003700000F0F682083AC0F0088051F8043B083AD1
:1003800051F804CBA0E80810F5E7121D5CBF51F846
:10039000043B40F8043BAFF30080D20724BF11F8C0
:1003A000013B11F801CB48BF11F8012B24BF00F825
:1003B000013B00F801CB48BF00F8012B70474FF01C
:1003C000000200B5134694469646203922BFA0E8A5
:1003D0000C50A0E80C50B1F12001BFF4F7AF0907B1
:1003E00028BFA0E80C5048BF0CC05DF804EB8900A2
:1003F00028BF40F8042B08BF704748BF20F8022BE5
:1004000011F0804F18BF00F8012B704770477047FC
:100410007047704770B5044685690068C10601D50C
:10042000302600E02026C00707D070BDD4E90121A6
:1004300030469047206A401C20626D1EF6D570BD84
:1004400070B5044685690078C00707D170BDD4E94E
:10045000012120209047206A401C20626D1EF6D5A5
:1004600070BD09684A0501D540B27047C905FCD581
:1004700000B2704709684A0501D5C0B27047C90586
:10048000FCD580B2704770B50C460546012A05D0F0
:100490002878800600D5EA69002302E0012305E000
:1004A0005B1C934202D2E05C0028F9D1A869E618EF
:1004B000C01AA861286A184428622846FFF7AAFFD4
:1004C00004E0D5E9012114F8010B9047B442F8D3B8
:1004D0002846FFF7B5FF70BD2DE9F0410646002420
:1004E00010687529314616A510D0FFF7BAFF00280D
:1004F00002DA404213A507E031688A0701D512A548
:1005000002E0490704D511A5012401E0FFF7B2FF7D
:1005100000210A2206F1240709E0B0FBF2FCB0FB3F
:10052000F2F302FB1C00303078541846491C0028B6
:10053000F3D123462A463046BDE8F04100F087BAA1
:10054000000000002D0000002B0000002000000033
:1005500011680268006A530501D508700AE0D305E6
:1005600001D5088006E0130603D5C217C1E90002D1
:1005700000E0086001207047074B70B50D467B44D2
:1005800000F051FE0446284600F08CFE10B14FF0FA
:10059000FF3070BD204670BD0F3400002DE9FF5FB5
:1005A00015468A460446DFF8AC80F8440027D8E9AF
:1005B00000103E46CDE9001010E03AF816106A46E9
:1005C00002A800F073FE411C07D02178890603D5EC
:1005D000E269391891420DD80744761C20788006CC
:1005E00002D5E069B84205DDAE42E6DB3AF8160016
:1005F0000028E2D1A069C01BA0612046FFF70AFFD6
:10060000D8E90010CDE90010002017E03AF81810E2
:100610006A4602A800F04AFEB0F1FF3F81460BD0C7
:1006200000250DF1080B05E0D4E901211BF80500B8
:1006300090476D1C4D45F7D308F10100B04280464C
:10064000E4DB206A384420622046FFF7F9FEBDE86B
:10065000FF9F0000223800002DE9F0418046D21DA6
:1006600022F007020025D2E90002F52915A614D0D0
:10067000011E72F1000106DA0023D0EB030063EBE8
:10068000020211A608E0D8F800108B0701D50FA6CA
:1006900002E0490701D50EA601251146002408F104
:1006A000240704E000F08EF930323A55641C50EA19
:1006B0000102F7D12B46324621464046BDE8F041C3
:1006C00000F0C5B9000000002D0000002B00000064
:1006D0002000000030B4002100F1240408E002F002
:1006E0000705D208303542EA4372DB086554491CDD
:1006F00052EA0305F3D10468002310A2250707D5A9
:10070000A40600D421B1C46901230DA2641EC461F2
:1007100030BC00F09CB910B5044621461068FFF7C4
:10072000A9FE02462046BDE810400023D2E7D21DB4
:1007300022F00701D1E90023CCE70000000000000F
:1007400030000000F0B40D460188090502D5214CA7
:100750007C4402E01F4C7C440E34002100F124064E
:1007600008E002F00F071209E75D42EA03721B0975
:100770007754491C52EA0307F3D102780023120789
:1007800004D5702D06D009B1022311342246F0BCE5
:1007900000F05DB901231034F8E770B504460D464A
:1007A00021461068FFF766FE024629462046BDE84E
:1007B00070400023C6E7D21D22F00703D3E90023CF
:1007C000C0E70368126843F0200303600823C36195
:1007D0000023B7E7843600002DE9F05F8946044620
:1007E0004FF0000ADFF874B1FB44C0F820A02046A7
:1007F000E1688847002874D0252806D0D4E9012173
:100800009047206A401C2062F1E700265F462046A0
:10081000E16888472028054607DB312D05D2781985
:1008200010F8200C08B10643F1E7B00701D526F017
:100830000406C4F81CA00027C4F818A02A2D09D06B
:10084000284603F03BF838B304EB8708303DC8F87E
:10085000185019E059F8041B204604EB87029161F7
:10086000E1688847012F054618D1E069002820DAA1
:1008700026F020061DE0D8F8180000EB800005EBFC
:1008800040003038C8F818002046E168884705461F
:1008900003F014F80028EED1012F0AD02E2D08D134
:1008A0002046E16888477F1C0546022F46F0200657
:1008B000C4DBA069002803DA404246F00106A061CB
:1008C000F00701D026F010066C2D0BD0682D09D052
:1008D0004C2D39D06A2D35D0742D35D07A2D33D0AA
:1008E00016E038E0E1682F4620468847B8420546C2
:1008F00009D16C2F26D04FF48060E1680643204672
:100900008847054604E06C2F1AD04FF480700643E8
:100910000DB3A5F14100192802D8203546F4006630
:100920004A462946204626604E46FFF767FC80B1BE
:1009300001280BD0F61D26F0070000F1080956E744
:100940004020E4E78020D8E70020D6E706F104093C
:100950004DE7284652E7206ABDE8F09F14360000B4
:1009600010B5203AC0F00B80B1E81850203AA0E84A
:100970001850B1E81850A0E81850BFF4F5AF5FEA7E
:10098000027C24BFB1E81850A0E8185044BF18C931
:1009900018C0BDE810405FEA827C24BF51F8043BD8
:1009A00040F8043B08BF7047D20728BF31F8023B2C
:1009B00048BF11F8012B28BF20F8023B48BF00F8C0
:1009C000012B704730B5B0F10A024FEA900E71F179
:1009D00000034EEA817EB0EB0E0061EB91014FEA1D
:1009E000101E4EEA017E10EB0E0041EB11114FEA92
:1009F000102E4EEA016E10EB0E0041EB11214FEA72
:100A0000104E4EEA014E10EB0E0041EB1141401822
:100A100041F100014FEAD00040EA41704FEAD101B4
:100A200010EB80054FEA810444EA907444EB010422
:100A30006D1944EB0404521BA3414FF0000348BF5F
:100A40000A3200D530BD401C41F1000130BD2DE916
:100A5000F0470D4699469246044600F12408016885
:100A6000880604D5E06921F01001216000E0012032
:100A7000A84201DD471B00E00027A1697A1902EBBB
:100A80000900081AA0612078C00602D42046FFF7AA
:100A9000C1FC002608E0D4E901211AF806009047BD
:100AA000206A401C761C20624E45F4DB2078C0068C
:100AB0000AD52046FFF7AEFC06E0D4E9012130203C
:100AC0009047206A401C2062381EA7F10107F4DC21
:100AD00007E0D4E9012118F805009047206A401C7E
:100AE0002062281EA5F10105F3DC2046FFF7A8FCD3
:100AF0002078000602D50220BDE8F0870120FBE740
:100B000070472DE9FF4F0C461E464FF0FF378BB064
:100B1000D2E90001DDF860800A908A46C1F30A55E7
:100B200005B93D46002108464FF00000BAF1000F1C
:100B300000F4400005DA00EB80004FF4400101EAC8
:100B400050004FEA9059B9F1010F00DDB9460A98FB
:100B500050EA4A000ED044F61050A5F2FF35454346
:100B60002F14B8F1000F1ED07542291E1EDDC9F1E9
:100B700000021CE0B8F1010F4FF0000001D030215D
:100B800003E0F24305E02154401CB042FBDB304659
:100B90000022002121540B99C1F80880C1E90020EE
:100BA0000FB0BDE8F08FBD1B6D1CDEE74A4600DAD2
:100BB000694206A800F00CFC06AB93E8070003AB03
:100BC00083E8070050460A9900F0C2FC8DE8070050
:100BD000A0F500501F3800900398002D0ADD42F266
:100BE0001F014A460844002303A90390684600F009
:100BF0002BFF09E0A0F500504A461F38002303A947
:100C00000390684600F035FF8DE807000004000CF3
:100C100003D04FF0FF30410800E01046B8F1000F5C
:100C200003D00022009215461EE0751E05D4FFF782
:100C3000C9FE303262556D1EF9D5B3460122084314
:100C400002D000227F1C04E02078302801D100224D
:100C50007F1E002A099784D01DE0112D07DAFFF7C7
:100C6000B1FE303262556D1C50EA0102F5D10843E5
:100C700002D00098C8B10EE00021681E05E0235C98
:100C8000625C63542254401E491C8142F7DBAB4630
:100C9000A81B401E0990002004F80B000B98099A2D
:100CA000C0F80880C0E9002B7AE711264FF0000851
:100CB00057E72DE9F04F88460446D21D22F0070180
:100CC00091B0D1E90001CDE90A0102F0DFFD024651
:100CD0000B98C00F01D02D2007E02068810701D5B7
:100CE0002B2002E0202101EAC000032A099001D054
:100CF000072A05DB03464146204600F029FB0BE1AD
:100D00002078800601D5E06900E00620B8F1650F83
:100D1000814606D0B8F1660F18D0B8F1670F70D1D0
:100D200031E00020B9F1110F009001DB112301E047
:100D300009F101030AAA01A90CA8FFF7E2FEDDE907
:100D40000C70002609F10105834647E001204B465F
:100D500000904FF000470AAA01A90CA8FFF7D1FEA6
:100D6000DDE90DB00C995D46002610B909F10100CE
:100D70000D18B9EB050003D4C0F1FF3609F10105E8
:100D8000A5EB09002BE0B9F1010F01DA4FF00109E1
:100D90000020B9F1110F0090484601DD112300E059
:100DA00003460AAA01A90CA8FFF7ABFEDDE90C7007
:100DB0004D4600268346207800070AD4AB4500DA6A
:100DC0005D4601A8012D04DD411911F8011C3029EF
:100DD00007D04F4502DA17F1040F04DA01208246EA
:100DE0000FE06D1EEEE7002F02DCED1B3E4403E03A
:100DF000781CA84200DD7D1CB81B00F1010A4FF0F1
:100E000000472078000703D4AA4501DB4FF0FF3AE2
:100E10000021B7F1004F0DF143088DF8431024D0A5
:100E200002202B23002F01DA7F422D230A21021EEC
:100E3000A0F1010000DC5FB197FBF1FC97FBF1F240
:100E400001FB1C7C17460CF1300C08F801CDEEE7D5
:100E5000A8F1010003702188090501D5452100E0B2
:100E60006521A0F1010800F8011C09980FA9A1EB68
:100E70000807FF1D00B10120411901EBEA70A169CB
:100E80003844081A401EA0612078C00602D42046CB
:100E9000FFF7C0FA099828B1D4E901219047206AE8
:100EA000401C20622078C00622D52046FFF7B2FA07
:100EB0001EE0002E04DBB34502DD01A8805D00E0EA
:100EC0003020D4E901219047206A401C2062761C22
:100ED000AAF101005FEA000A0AD100F035FAC06801
:100EE0000168405CD4E901219047206A401C2062DF
:100EF000281EA5F10105DCDC07E0D4E9012118F882
:100F0000010B9047206A401C2062381EA7F10107A0
:100F1000F3DC2046FFF794FA032011B041E600000D
:100F20002DE9F04F04460D46D21D22F0070089B08E
:100F3000D0E900974846394602F0A8FC0246F80F6F
:100F400001D02D2307E02068810701D52B2302E083
:100F5000202101EAC0038DF820300BB1012000E010
:100F60000020032A824601D0072A04DB29462046B6
:100F700000F0EEF93FE12078800601D40D2500E075
:100F8000E569C7F30A560D2D49DA00214FEA175BD0
:100F900008464FF00000002F00F4400007DA00EB95
:100FA00080004FF4400100EBD07001EA6000811531
:100FB000012901DD4FF0FF3100224FEA850CBCF121
:100FC000180F06D31346ACF118004FF08052C24000
:100FD00003E04FF4801323FA0CF30CF10C0CBCF17A
:100FE000200F04D3ACF1200C09FA0CF001E007FA51
:100FF0000CF000294FF0004801DD18B90FE00ED1C8
:1010000040450CD319EB02095F4121B9404502D19B
:101010009F4329EA0209BBEB175F00D0761C2088AA
:10102000000502D57B48784402E07A4878441938B4
:1010300008AA302302F80A30037C0AF10101002ECD
:101040000AF1020A53546A4602DC4FF0300101E013
:101050004FF031014FF001088DF8001002D0A6F2D8
:10106000FF3603E059EA470100D06B4E002D02DC49
:101070002178090704D54FF002082E218DF80110C0
:10108000C44600210BE0C7F303433F01C35C491C86
:101090006D1E02F80830052908F1010801DA002D5B
:1010A000F1DC00210CE000EB1973491C1B786D1E6C
:1010B000082902F808304FEA091908F1010801DA95
:1010C000002DF0DC21688B0602D516E0A8F101089E
:1010D000E04505DD02EB080313F8013C302BF5D0A9
:1010E000B8F1000F09DD02EB080313F8013C2E2BC9
:1010F00003D1090701D4A8F10108002D05DD3E2127
:1011000002F808106D1E08F10108407C002E02F85C
:10111000080008F1010804DA2D20764202F80800E0
:1011200002E02B2002F808000A214FF47A70864270
:1011300008F101080BDB96FBF0F3303302F80830BE
:1011400096FBF0F308F1010800FB136601E0642E42
:101150000CDB642096FBF0F3303302F8083096FB8A
:10116000F0F308F1010800FB136601E00A2E06DB2C
:1011700096FBF1F0303002F8080008F1010896FB08
:10118000F1F001FB1060303002F80800A16908F1AD
:10119000010808EB050202EB0A00081AA06120789A
:1011A000C00602D42046FFF735F9216A08AE01EBEC
:1011B0000A00206204E0D4E9012116F8010B9047EF
:1011C000BAF1010AF7D22078C00602D52046FFF70F
:1011D00021F96E4609E016F8010B3E280FD0D4E93C
:1011E00001219047206A401C2062B8F10108F2D228
:1011F0002046FFF725F909B00320BDE8F08F206AEB
:101200002844206203E0D4E90121302090476D1E7C
:10121000EBD3F8E7FA2D000002FCFFFF01694A1C3E
:1012200002610878704700B58FB0CDE90131002127
:10123000059105497944CDE9031011466846FFF749
:10124000CBFA0FB000BD0000E5FFFFFF10B543690A
:1012500013B1AFF3008001E0FFF715F9012010BDD5
:10126000127800F124010A7000224A700122EDE791
:1012700011684FF0FF32E9E710B5436913B1AFF3DE
:10128000008001E0FFF78AF9012010BD128800F10B
:10129000240182840022C2840122EDE711684FF00C
:1012A000FF32E9E7007B00F08000704770B516461A
:1012B0000C46054600F040F8036893F80101012848
:1012C00006D0FF2C0FD8185D68B101202C7070BDBE
:1012D000D3F807013246214603F207130344284698
:1012E000BDE8704018474FF0FF3070BD754600F004
:1012F000EBF8AE4605006946534620F007008546E8
:1013000018B020B5FEF7FCFFBDE820404FF0000606
:101310004FF000074FF000084FF0000B21F00701DD
:10132000AC46ACE8C009ACE8C009ACE8C009ACE820
:10133000C0098D467047000010B500F005F8001D8B
:1013400010BD00BF4D28000000487047A4300020A9
:101350002DE9F0411F46044603260168072A01F4DF
:10136000006004DB08B116A505E016A503E008B18E
:1013700015A500E015A521F010002060A069C01E91
:10138000A0610FB1401EA0612046FFF743F84FB1A6
:10139000D4E9012138469047206A401C2062C01CD5
:1013A000206206E0206AFAE7D4E9012115F8010B72
:1013B0009047761EF8D22046FFF742F8BDE8F0814C
:1013C0004E414E006E616E00494E4600696E6600E9
:1013D0002DE9F047814616468AB0354878440DC855
:1013E0008DE80D0032487844801C03AC0DC884E8B9
:1013F0000D0041F69B300844372190FBF1F290FB41
:10140000F1F5A5F1800501FB12041B3C02D56442F5
:10141000012000E00020DFF898A080460027FA4471
:10142000AAF1BE0A0EE0E0070AD03246684607EB92
:10143000470101230AEB810100F01BFB8DE8070047
:1014400064107F1C002CEED1194F7F44AE3F19E091
:10145000E80715D007EB04100DF1180A90E80E000C
:101460008AE80E00C068F04201D19819089032460F
:10147000012306A903A800F0FCFA03AB83E80700E8
:101480006D10641C002DE3D14FF001033246694614
:10149000B8F1000F03A802D000F0D6FA01E000F086
:1014A000E8FAC9E90001C9F808200AB0BDE8F087E8
:1014B000D42A000010B50446AFF300802046BDE8F2
:1014C0001040FEF700BF0000004870478430002045
:1014D0004FF0013C50F8042B51F8043B9A4221D1C3
:1014E000A2EB0C03934313EACC1317D150F8042B4F
:1014F00051F8043B9A4215D1A2EB0C03934313EA33
:10150000CC130BD150F8042B51F8043B9A4209D16B
:10151000A2EB0C03934313EACC13DBD04FF0000093
:10152000704700BFD01A01BAB1FA81F101F0180179
:1015300022FA01F0CB40C1F12001DBB2C0B2C01AE7
:101540002CFA01F3D11A914311EAC311E6D1704785
:101550005FEA400C08BF91F0000F4FEA8C234FEA7E
:10156000C12243EA51514FEA1C5018BF00F5F04028
:101570004FEA300018BF41F000415FEA6C5C00F0B8
:101580002980BCF1FF3F08BF40F080407047130C3A
:1015900006BF12044FF0100C4FF0000C130E04BFE6
:1015A00012020CF1080C130F04BF12010CF1040C11
:1015B000930F04BF92000CF1020CD30F04BF520032
:1015C0000CF1010C11464FF00002A0F11F00A0EB3E
:1015D0000C00704711F0004F08BF704731F0004118
:1015E0003FF4D5AF0B0C06BF09044FF0100C4FF0C1
:1015F000000C0B0E04BF09020CF1080C0B0F04BF0A
:1016000009010CF1040C8B0F04BF89000CF1020CD2
:10161000CB0F04BF49000CF1010CCCF12003A0EB6F
:101620000C0022FA03F302FA0CF241EA030100F182
:101630000100704720F07F4C80EA030023F07F47D1
:10164000ACEB070303F57C5300F0004003F1FF030C
:101650002DE980494FEA154B09B44FEA144325EAB6
:101660000B4E24EA03480FF2042606EB1327490821
:101670003E785FEA320203FB0667C7F5000707FB07
:1016800006F64FEA54374FEAD64606F1020607FB44
:10169000066CCCF1005C4FEA1C472CEA074C07FBB8
:1016A00006F40CFB06F504EB15464FEA961634BF1C
:1016B00000204FF000404FEAD13706FB07FC4FEA0D
:1016C0001C4C0CFB0BF7D21B03FB0CF761EB070167
:1016D0000CFB0EF7B0EB074072EB17420CFB08F760
:1016E00034BFA2EB0742B2EB074261EB17414FEA6E
:1016F0000C444FEA910706FB07FC4FEA1C4C0CFB1D
:101700000BF7B0EBC74072EB573203FB0CF734BF5B
:10171000A2EBC742B2EBC74261EB57310CFB0EF7AD
:10172000B0EBC70072EB57720CFB08F734BFA2EBAB
:10173000C702B2EBC70261EB5771039F4FEA8161A9
:1017400041EA921104EBCC044FEAD1374FEA8262AE
:1017500006FB07FC42EA90124FEA80604FEA1C4CFD
:101760000CFB0BF7D21B03FB0CF761EB07010CFB27
:101770000EF7B0EB074072EB17420CFB08F734BFD3
:10178000A2EB0742B2EB074261EB17414FEA8C55DF
:101790004FEA910704EB9C2406FB07FC4FEA1C4C24
:1017A0000CFB0BF7B0EBC74072EB573203FB0CF7A7
:1017B00034BFA2EBC742B2EBC74261EB57310CFB1F
:1017C0000EF7B0EBC70072EB57720CFB08F734BF93
:1017D000A2EBC702B2EBC70261EB577115EB4C25C8
:1017E0004FEA816141EA92114FEA82624FEAD137B2
:1017F00042EA901206FB07FC44F100044FEA8060C5
:101800004FEA1C4C0CFB0BF7D21B03FB0CF761EBF4
:1018100007010CFB0EF7B0EB074072EB17420CFB15
:1018200008F734BFA2EB0742B2EB074261EB174166
:1018300015EB1C154FEA813141EA92414FEA8232A1
:1018400042EA90424FEA80304FEA0C7644F10004BD
:1018500048EA03434EEA0B484FF0000EB2EB080C87
:1018600071EB030724BF624639464EEB0E0E4FF074
:10187000000B0018524149414BEB0B0BB2EB080C2B
:1018800071EB03077BF1000B24BF624639464EEB38
:101890000E0E4FF0000B0018524149414BEB0B0B61
:1018A000B2EB080C71EB03077BF1000B24BF62461F
:1018B00039464EEB0E0E51EA020718BF46F00106FC
:1018C00016EB0E7655F1000254F1000103D5BDE888
:1018D0008901BDE80088BDE88901BDE80048B61966
:1018E000524141EB0101A3F10103704780807F7EEB
:1018F0007D7C7B7A79787776767574737271717086
:101900006F6E6E6D6C6C6B6A6A6968686766666537
:101910006464636362616160605F5F5E5E5D5D5CC5
:101920005C5B5B5A5A595958585757565655555536
:101930005454535352525251515050504F4F4F4E96
:101940004E4D4D4D4C4C4C4B4B4B4A4A4A494949E4
:101950004848484747474746464645454544444426
:10196000444343434342424242414141002B9C464F
:1019700030D477002BD01CB54FEA370703B44FF0B3
:1019800010004FF01001BAF1000F06D0BCF1000FAB
:10199000DCBF40F0080040F008014FF000000FBC31
:1019A000BDE810400BF1010BBBF1010F08BF5FEA6E
:1019B000170722BF12F1010211F101014FF000419E
:1019C00043F1000300F0004043EA00007047F9D300
:1019D0005708D0E746EA064613F1400F4FEA16468D
:1019E0001FDD13F1200FDFBF16430A46002120330D
:1019F0005B42BED0C3F1200746EA064602FA07F76B
:101A00004FEA164646EA0706C3F1200722FA03F218
:101A100001FA07F721FA03F14FF0000342EA070247
:101A2000A7E746EA020646EA06464FEA164646EAAF
:101A30000106BCBF46EA0646360C4FF000034FF0E5
:101A400000024FF0000194E72DE9804C9A4693463E
:101A500070B491E8380007C831EA400C48BF34EA56
:101A6000430C03D5FFF7E6FDFFF780FFF0BCBDE8B0
:101A7000008C2DE9804C9A46934670B491E838006A
:101A800007C810F0804F08BF13F0804F03D100F05B
:101A900005F8FFF76BFFF0BCBDE8008C20F07F4736
:101AA00080EA030023F07F4C07EB0C03A3F57C5383
:101AB00000F00040A3F1FE0392F0000F00F0B380AD
:101AC00095F0000F00F077802DE901494FEA1140B1
:101AD0004FEA144621EA004800FB06FC24EA0647C8
:101AE00008FB06F607FB08F800FB07F718EB0648AB
:101AF0004CEB164C4FEA124B18EB07484FEA1546D1
:101B00004CEB174022EA0B4E0BFB06FC25EA06477E
:101B10000EFB06F607FB0EFE0BFB07F71EEB064E51
:101B20004CEB164C4FF000061EEB074E4CEB174BE0
:101B300018EB0B0840F1000018EB0E0B58EB0008F7
:101B400040F100008F1A4FF000013CBFC943661BF3
:101B500014BFB5EB040C00213CBFC943F61B4FEA90
:101B600017444EEA8E0E27EA04454FEA1C4704FB51
:101B700007622CEA074C05FB07F70CFB05F604FB94
:101B80000CFC16EB074642EB174216EB0C4642EBF9
:101B90001C421BEB060658EB0202414146EA9E0638
:101BA00001D5BDE80189B619524141EB0101A3F10C
:101BB0000103BDE801894FEA14454FEA114724EAC1
:101BC000054621EA074C05FB07F406FB07F70CFB6B
:101BD00006F105FB0CFC11EB074144EB17444FEAFF
:101BE000124711EB0C4144EB1C4422EA074C05FB65
:101BF00007F206FB07F70CFB06F605FB0CFC16EBE1
:101C0000074642EB174216EB0C4642EB1C456A189E
:101C100054F1000148BF7047B619524141EB010130
:101C2000A3F10103704795F0000F37D04FEA11423E
:101C30004FEA144721EA024624EA074C02FB07F167
:101C400006FB07F70CFB06F402FB0CFC14EB074445
:101C500041EB17414FEA154714EB0C4441EB1C4193
:101C600025EA074C02FB07F506FB07F70CFB06F617
:101C700002FB0CFC16EB074645EB174516EB0C4632
:101C800045EB1C42121951F1000148BF7047B619CB
:101C9000524141EB0101A3F1010370474FEA1445A2
:101CA0004FEA114724EA054621EA074C05FB07F1F4
:101CB00006FB07F70CFB06F24FF0000605FB0CFCD9
:101CC00012EB074241EB174112EB0C4251EB1C4166
:101CD00048BF7047921841EB0101A3F1010370471F
:101CE00070B500260121080300F04EFF1048066879
:101CF000001F046816B10CB1601C00B970BD00F083
:101D0000C7F8201F81080A48001D00F0AFF80546FB
:101D1000B5420BD10648001D406800F07F40B0F18D
:101D2000006F03D10248001D01F044FE00BFE5E74B
:101D3000FCFF000810B500F00BF800F0AFFC4FF40A
:101D4000527142F2107001F06FF910BD00BFFEE752
:101D50007CB50025002424480068244908602248F6
:101D6000001D006848602048083000688860084608
:101D700080680090084643681DA10268032000F0B7
:101D8000B3FC0C21194801F0D1FE064632461DA1D4
:101D9000032000F0A9FC00BF11E0A00046FA00F00B
:101DA00000F00F050A2D04DB05F1370001A90855E5
:101DB00003E005F1300001A90855601CC4B2042CF1
:101DC000EBDB9DF80700144908709DF80600487089
:101DD0009DF8050088709DF80400C8700A460FA1A0
:101DE000032000F081FC7CBD107AFF1F78100020DA
:101DF0004370754944203D20307825782578257832
:101E00000D0A000049645F6372633136203D203063
:101E10007825780D0A0000000800002063707549DD
:101E20004473203D2025730D0A00000030B50246A2
:101E30004FF6FF7001B9012111E0147860400023D2
:101E40000AE000F0010424B140104AF201046040AD
:101E500000E040105C1CE3B2082BF2DB521C0C1EAD
:101E6000A1F10105A9B2E8D130BD000010B50246CC
:101E70000B46002100BF04E052F82100034C206013
:101E8000491C9942F8D30148006810BD0030024057
:101E900001200149886070470030024070B52E482B
:101EA0000078002857D02D482D49086002152D498B
:101EB0002B48006801F072FC2B4908600846006856
:101EC00005280ADA294826490860021525492448C8
:101ED000006801F063FC2449086023480068052875
:101EE0002DDB21480088801E81B21E48FFF79EFF2F
:101EF00004461D480068801E1A49095C1A4800689B
:101F0000401E184A105C41EA0020A04217D110463A
:101F10004578032D06D0062D07D0102D08D0152D9D
:101F20000CD108E000F046FD08E000F0CBFD05E034
:101F300000F0E6FC02E000F075FC00BF00BF0C48BA
:101F4000007828B14FF47A7001F0E0FC00F0EAFF6D
:101F500000200149087070BD0D00002000100140F4
:101F600010000020841000201400002000500040C9
:101F70000C00002029B1064A52680243044B5A6003
:101F800004E0034A52688243014B5A6070470000E4
:101F9000002004E00246094B9A4201D2084801E0C1
:101FA0000648103801F000531BB1064B0B40C360CC
:101FB00002E0044B0B408360704700001064024055
:101FC000006002407D0F7D0F21B1026842F00102E6
:101FD000026003E0026822F0010202607047000024
:101FE000016821F001010160002101604160816010
:101FF000C1600161212141614A49884204D13D21EA
:10200000484A103A91608CE046491831884205D11F
:102010004FF47461434A103A916082E04149303193
:10202000884205D14FF474113E4A103A916078E02D
:102030003C494831884205D14FF07461394A103A21
:1020400091606EE037496031884204D13649354AA3
:10205000103AD16065E033497831884204D1334980
:10206000304A103AD1605CE02E499031884204D168
:102070002F492C4A103AD16053E02A49A8318842AE
:1020800005D14FF03D51274A103AD16049E0294926
:10209000884204D13D21274A083A116041E0254990
:1020A0001831884205D14FF47461224A083A116010
:1020B00037E020493031884205D14FF474111D4A70
:1020C000083A11602DE01B494831884205D14FF094
:1020D0007461184A083A116023E016496031884259
:1020E00004D11149134A121F11601AE011497831C5
:1020F000884204D10D490F4A121F116011E00D49A9
:102100009031884204D10A490A4A121F116008E03E
:102110000849A831884204D14FF03D51054A121FA9
:1021200011607047106002403D000020400F002009
:1021300000003D2010640240014600200A6802F0C1
:1021400001020AB1012000E0002070470146486802
:1021500080B2704730B503460A46002000240B4D7C
:10216000AB4201D20A4901E00849103902F000559A
:102170000DB14C6800E00C68064D2C4004EA0205E5
:102180000DB1012000E0002030BD000010640240CD
:10219000006002407D0F7D0F10B500220268134BD6
:1021A0001A40CC680B6823434C6923438C69234352
:1021B000CC6923430C6A23434C6A23438C6A234330
:1021C0004C6B23438C6B23431A430260426922F019
:1021D0000702D1E90B3423431A4342610B69436080
:1021E0004B6883608B68C36010BD00003F801CF0AB
:1021F000416070477047000030B10749096841F4F9
:102200008061054A116005E00349096821F4806195
:10221000014A116070470000003C024070B504465E
:102220000A460026092502B909E0012A01D1160251
:1022300005E0022A01D1160201E04FF4407600F0D9
:102240009FF80546092D28D11548006820F44070F4
:102250001349086008460068304308600846006873
:1022600020F0F80008600846006844F002010843C6
:102270000B4908600846006840F48030086000F0B0
:102280007FF805460648006820F00200044908600F
:102290000846006820F0F8000860284670BD00007D
:1022A000103C024009201349096801F48031B1F55E
:1022B000803F01D101201CE00E49096801F01001A6
:1022C00009B1062015E00B49096801F4807109B1D4
:1022D00002200EE00749096801F0E00109B107207A
:1022E00007E00449096801F0020109B1082000E093
:1022F000092070470C3C02400348006840F0004051
:102300000149086070470000103C024030B50246A9
:102310000C46092500F034F80546092D19D10E4860
:10232000006820F440700C4908600846006840F4DA
:10233000007008600846006840F001000860146002
:1023400000F01EF805460448006820F0010002492C
:102350000860284630BD0000103C02400548006877
:1023600000F0004028B1044802490C3908600348D5
:1023700008607047103C024023016745AB89EFCDF0
:1023800008B509200090FFF78DFF009002E0FFF7ED
:1023900089FF00909DF800000128F8D09DF800000A
:1023A00008BDF0B503460C469D881E892E44DF8883
:1023B000F61B1F8996FBF7FC07FB1C66B0B2904228
:1023C00000DD104600210BE0DE880E441F8996FBDD
:1023D000F7FC07FB1C661F68BE5D66544E1CB1B25D
:1023E0008142F1DBDE8806441F8996FBF7FC07FB80
:1023F0001C66DE80F0BD016000238380C380028103
:10240000704700002DE9F04781460F46164600242C
:102410003D464FF400711348FDF7D1FFB208114952
:10242000484600F0A5FCA04617E00E4810F824002E
:1024300028700C4830F82400000A6870094850F8E9
:102440002400000CA870074850F82400000EE87023
:102450002D1D601C84B208F10408B045E5D30120AD
:10246000BDE8F087841800202DE9F047044689462E
:1024700092464FF000084D4604F0030010B10020D2
:10248000BDE8F087002712E0E8780606A87846EA5B
:102490000046687846EA0026287806432D1D404607
:1024A000411C1FFA81F8144941F820603F1D57452F
:1024B000EAD31248844217D31148844214D24214FA
:1024C00010490E4800F054FC4FEA88020D4921449F
:1024D0000A4BC81A0849FDF72DFF4FF480620949DD
:1024E000064800F059FC04E042460349204600F04B
:1024F00053FC0120C4E700008418002000F000080D
:102500000000010884200020F0B50A4600210023C5
:10251000002400BF3DE0012505FA01F3156805EA36
:1025200003049C4234D105684F000326BE40B543E6
:10253000056015794E00B54006683543056015798C
:10254000012D02D01579022D16D185684F00032682
:10255000BE40B543856055794E00B5408668354329
:102560008560456801268E40B5434560456896798B
:102570008E40B6B235434560C5684F000326BE4065
:10258000B543C560D5794E00B540C6683543C560D2
:10259000491C1029BFD3F0BDF0B5002300244D071E
:1025A000ED0E02FA05F3CE1000F1200555F8265085
:1025B0004E07F70E0F26BE40B543CF1000F12006A0
:1025C00046F82750CE1000F1200555F8265045EA70
:1025D0000304CE1000F1200545F82640F0BD4183EC
:1025E00070470183704742694A404261704700BFAB
:1025F000FEE700004CF6CC4001490860704700003F
:102600000030004010B500F035F802210148FFF716
:10261000EAFF10BD000002401CB50121084600F091
:10262000B3FA01210803FFF7A5FC45F2555000F06D
:102630002FF8052000F026F8FFF7DCFF02200090BD
:1026400001208DF8040000208DF8060003208DF88D
:10265000050001208DF8070069460548FFF754FF83
:1026600002210348FFF7BDFFFFF7CCFF1CBD0000B0
:10267000000002404AF6AA200149086070470000A5
:1026800000300040014948607047000000300040C1
:102690000149086070470000003000401CB501216E
:1026A000102000F071FA1020009001208DF8040035
:1026B00000208DF8060003208DF8050001208DF81C
:1026C000070069460348FFF71FFF10210148FFF785
:1026D00086FF1CBD0010024010B510210148FFF715
:1026E00082FF10BD001002400FB438B50446032C21
:1026F00008DB06A800900099059801F0B3F90020C6
:10270000009000BF38BC5DF814FB00002DE9F041DB
:1027100090B004460D4617461E46DDF858801C480A
:10272000844204D90121880500F02EFA03E001213A
:10273000480500F029FA2046FFF752FC00BF20466A
:10274000FFF7FAFC0028FAD101950297039604904E
:10275000CDF8148006904FF4806007900020089018
:1027600009904FF480700A9000020B9000200C90AA
:1027700003200D9000200E900F9001A92046FFF736
:102780000BFD01212046FFF71FFC10B0BDE8F081D2
:10279000006402402DE9F04190B004460D46174612
:1027A0001E46DDF858801D48844204D90121880561
:1027B00000F0EAF903E00121480500F0E5F92046C0
:1027C000FFF70EFC00BF2046FFF7B6FC0028FAD149
:1027D00001950297039640200490CDF814800020C4
:1027E00006904FF4806007900020089009900A90AE
:1027F0004FF480300B9000200C9003200D900020AF
:102800000E900F9001A92046FFF7C6FC002120463C
:10281000FFF7DAFB10B0BDE8F08100000064024071
:1028200000BFFEE72DE9F0412348C67840792249F0
:10283000097900EB01201FFA80F81F48C0791E4972
:10284000897900EB012087B21B48407A1A49097A3E
:1028500000EB012085B2062E05D018A10220FFF75B
:1028600043FFBDE8F081802D04D01AA10220FFF7BC
:102870003BFFF6E71D480780014609881C4A02EB2A
:10288000C1102A460C490A31FFF7EEFD002405E08D
:102890000948005D17490855601C84B21648006855
:1028A0008442F5DB1448008882B21249134800685C
:1028B00000F0B4FF00BFD4E784100020D0B4CEC431
:1028C000BCFE20B2CEBFBCC0E0D0CD204552524F9E
:1028D00052000000D0B4CEC4BCFE20BCC7C2BCBAFB
:1028E000C5B3A4B6C8204552524F52002400002060
:1028F00000F00008841400201400002010000020C4
:102900002DE9F0412548C0782449897800EB012061
:1029100086B2224840792149097900EB012087B22B
:10292000B6F57F4F0DD1012F0BD100201B49097A3D
:102930001A4AD27901EB022010B90121184A11700C
:1029400011E04FF6027086420DD11448007A134907
:10295000C97900EB0120134908607A000F49C91DAD
:102960001148FFF781FD002405E00C48005D0F4988
:102970000855601CC4B2062CF7DB06210B48FFF794
:1029800055FA054609498D712812C8710822084870
:10299000006800F043FFBDE8F081000084100020D3
:1029A0000C0000201C00002008FF000884140020F8
:1029B00010000020F8B500243E4800783E49087019
:1029C000032048703B48C0783A49897800EB0120E1
:1029D00086B2384840793749097900EB012085B241
:1029E000B6F57F4F0CD1012D0AD101200324030A33
:1029F0002246641C30498B542246641C88543EE0B5
:102A00004FF6027086420AD103242B4801192A4648
:102A10002A48FFF7F7FC04EB450084B22FE04FF69D
:102A20000470864222D1022D20D10324042269465B
:102A30002248F030FFF7E6FC009800F6FC700090AA
:102A40009DF800202146641C1B4842549DF801203B
:102A50002146641C42549DF802202146641C4254C5
:102A60009DF803202146641C425408E003241248C8
:102A7000407840F080001049487002208870032C94
:102A800002DDE01E0C49887021460B48FFF7CEF9A5
:102A900007462046611C8CB207490F543A12204663
:102AA000611C8CB204490A5422460548006800F0B3
:102AB000B5FEF8BD841000208414002008FF000833
:102AC0001000002010B5002405E00748005D07490C
:102AD0000855601CC4B2082CF7DB082203490448DF
:102AE000006800F09BFE10BD8410002084140020BC
:102AF000100000207047000070B5002100230F2255
:102B0000C4781CB3174C246804F4E064C4F5E06492
:102B1000C4F30721C1F10404E3B20A4144789C40A4
:102B2000E1B28478144021430C07210E0E4C057845
:102B30006155047804F01F050124AC4005786D113F
:102B4000AD0005F1E025C5F8004109E0047804F086
:102B50001F050124AC40054D0678761145F8264046
:102B600070BD00000CED00E000E400E080E100E05A
:102B700002490143024A1160704700000000FA0553
:102B80000CED00E07047000029B1064A12680243CC
:102B9000044B1A6004E0034A12688243014B1A6036
:102BA000704700003038024029B1064A12680243DB
:102BB000044B1A6004E0034A12688243014B1A6016
:102BC000704700004038024029B1064A12680243AB
:102BD000044B1A6004E0034A12688243014B1A60F6
:102BE0007047000044380240F0B500210022002464
:102BF000022500260223324F3F6807F00C0121B165
:102C0000042905D0082937D105E02E4F076036E0AA
:102C10002D4F076033E02A4F3F1F3F68C7F38056B0
:102C2000274F3F1F3F6807F03F036EB1264FB7FBAA
:102C3000F3F7DFF88CC0ACF1040CDCF800C0CCF387
:102C4000881C07FB0CF40CE01E4FB7FBF3F7DFF812
:102C500070C0ACF1040CDCF800C0CCF3881C07FB9E
:102C60000CF4174F3F1F3F68C7F301477F1C7D00DF
:102C7000B4FBF5F7076002E0124F076000BF00BF2A
:102C80000F4F3F6807F0F0010909104F7A5C0768A1
:102C9000D74047600A4F3F6807F4E051890A0B4F5D
:102CA0007A5C4768D7408760054F3F6807F460410A
:102CB000490B064F7A5C4768D740C760F0BD0000FB
:102CC000083802400024F40000127A002C00002092
:102CD00001461C48814201D2002070471A488142B7
:102CE00001D20820F9E71948814201D21020F4E707
:102CF0001748814201D21820EFE71648814201D2DD
:102D00002020EAE71448814201D22820E5E7134851
:102D1000814201D23020E0E71148814201D23820BF
:102D2000DBE71048814201D24020D6E70E488142BD
:102D300001D24820D1E70D48814201D25020CCE792
:102D40005820CAE7004000080080000800C00008C2
:102D50000000010800000208000004080000060846
:102D60000000080800000A0800000C0800000E0817
:102D700030B503460C461546002206E0184600F022
:102D800007F844F822001B1D521CAA42F6D330BD9E
:102D900001460868704700002DE9F04704460E46DA
:102DA00017464FF009080025A9462048844202D35F
:102DB00004F0030008B1BDE8F087FFF7CFFA002068
:102DC000FFF71AFA254604EB87091948854215D200
:102DD00011E02846FFF7DCFF401C58B12846FFF7FA
:102DE00077FF82460221FFF719FA8046B8F1090FF2
:102DF00001D002E02D1D4D45EBD300BFB8F1090F06
:102E00000CD108E020463168FFF780FA092800D08D
:102E100003E0241D361D4C45F4D300BF0120FFF70D
:102E2000EBF9FFF769FA00BFC5E7000000F0000802
:102E30000000FF1F704700000CB5002001900090BB
:102E40003448006840F480303249086000BF31489F
:102E5000006800F4003000900198401C0190009838
:102E600018B90198B0F5A04FF1D12A48006800F4D4
:102E7000003010B10120009001E000200090009887
:102E8000012846D123484030006840F08050214955
:102E9000403108602048006840F440401E49086006
:102EA0001C48083000681B49083108600846006863
:102EB00040F4004008600846006840F4A0500860F4
:102EC0001648091F0860081F006840F08070091F3D
:102ED000086000BF0F48006800F000700028F9D0BB
:102EE00040F205700E4908600A480830006820F07A
:102EF00003000849083108600846006840F00200F5
:102F0000086000BF03480830006800F00C00082883
:102F1000F8D10CBD00380240007000400854400752
:102F2000003C0240012080F3138800BF00BF00BFB7
:102F300000BF00BF00BFBFF34F8F00BF00BF00BF87
:102F40000948006800F4E06008490843001D06498C
:102F5000086000BF00BF00BFBFF34F8F00BF00BFBE
:102F600000BF00E000BFFDE70CED00E00000FA0547
:102F7000042808D14FF0E021096941F004014FF025
:102F8000E022116107E04FF0E021096921F004011E
:102F90004FF0E022116170477047000010B51548EE
:102FA000006840F47000134908601348006840F05E
:102FB00001001149086000200F49083108600E48DF
:102FC00000680E4908400C4908600D48091D08605A
:102FD000081F006820F48020091F086000200649AF
:102FE0000C310860FFF728FF4FF00060014980397D
:102FF000086010BD88ED00E000380240FFFFF6FEDB
:103000001030002410B50121064800F04AF80128CC
:1030100003D1FFF761FBFFF7F5FA0121014800F04A
:1030200031F810BD000400407FB505460C46012173
:103030000220FFF7B9FD0295ADF804400020ADF87D
:103040000600ADF80C0001A90D4800F045F801227A
:1030500011460B4800F036F80121094800F015F838
:103060001D208DF800000F208DF8010000208DF844
:10307000020001208DF803006846FFF73DFD7FBD8B
:1030800000040040CA430282704721B1028842F026
:103090000102028004E002884FF6FE731A400280AB
:1030A000704730B50246002000230024158A05EA47
:1030B0000103958905EA010413B10CB1012000E078
:1030C000002030BD1AB183890B43838102E08389DC
:1030D0008B4383817047000000220288184B98427E
:1030E0000ED0184B98420BD0B0F1804F08D0164B41
:1030F000984205D0154B984202D0154B984204D106
:103100004FF68F731A404B881A43124B984207D0E0
:10311000114B984204D04FF6FF431A400B891A43D3
:1031200002804B68C3620B880385054B984202D02E
:10313000044B984201D18B7A038601238382704726
:10314000000001400004014000040040000800406D
:10315000000C0040001000400014004008B54FF47F
:10316000E13000F087FC00200B4B0C4A5106009028
:103170000B48FFF70FFB4FF400700A4B074A81041E
:10318000009007483038FFF7C1FA4FF40072054944
:103190000548FFF730F908BD3C020020041001404B
:1031A000B86402403C0000203C10002010B540F202
:1031B00024410A4800F0D1F870B1084800F086F9BF
:1031C0000748FEF7C3FFC0F580700649888040F2CB
:1031D0002441024800F090F810BD0000004C00406F
:1031E000406002406010002010B5FFF7B7FF10BD2F
:1031F00010B540F224410C4800F0AFF898B10A48ED
:1032000000F064F90948FEF7A1FFC0F50070084915
:10321000888040F22441044800F06EF805480078A8
:10322000401C0449087010BD001001408864024031
:103230003C1000200D00002010B540F224410A4847
:1032400000F08BF870B1084800F040F90748FEF72D
:103250007DFFC0F580700649888040F22441024815
:1032600000F04AF810BD00000044004088600240B1
:103270004810002010B540F224410C4800F06DF8D1
:1032800098B10A4800F022F90948FEF75FFFC0F53F
:1032900000700849888040F22441044800F02CF86E
:1032A00005480078401C0449087010BD00480040E3
:1032B00028600240541000200D00002010B540F29C
:1032C00024410A4800F049F870B1084800F0FEF8BF
:1032D0000748FEF73BFFC0F500700649888040F2C2
:1032E0002441024800F008F810BD0000001401401D
:1032F000406402406C10002010B50022002340F60C
:103300006A14A14200D100BF0A1201249440A3B262
:10331000DC43048010BD21B1828942F400528281D5
:1033200004E082894DF6FF731A40828170471AB11A
:10333000838A0B43838202E0838A8B4383827047B4
:1033400002460020B1F5007F00D100BF13880B407A
:103350000BB1012000E00020704770B50246002448
:1033600000230025002040F66A16B14200D100BFBC
:10337000C1F3421501F01F03012606FA03F3012DE4
:1033800002D19689334006E0022D02D1168A3340DD
:1033900001E0968A33400C12012606FA04F41688DE
:1033A000344013B10CB1012000E0002070BDF0B535
:1033B0000346002400260025002040F66A17B94283
:1033C00000D100BF1846C1F3421401F01F060127C7
:1033D00007FA06F5012C01D10C3004E0022C01D1D2
:1033E000103000E014301AB107682F43076002E084
:1033F0000768AF430760F0BD2DE9FF4705460E465D
:103400000024A14600BFA046B08900B100BF2C8AAD
:1034100024F44054F08804432C82AC8941F20C60BF
:103420008443B08831890843718908430443AC81DF
:10343000AC8A24F44074B0890443AC826846FFF738
:10344000D3FB2048854202D01F48854202D1DDF8D7
:103450000C9001E0DDF80890A88900F4004040B12C
:1034600009EBC90000EB091031684900B0FBF1F726
:1034700007E009EBC90000EB091031688900B0FBD7
:10348000F1F76420B7FBF0F004012009642101FB8F
:103490001078A88900F4004040B1322000EBC80049
:1034A000B0FBF1F000F00700044308E0322000EB2D
:1034B00008106421B0FBF1F000F00F0004432C81F0
:1034C000BDE8FF87001001400014014001468888D4
:1034D000C0F308007047C1F3080282807047000003
:1034E00070B504460D462A4621460248FEF759FFAC
:1034F00070BD00003C10002070B504460D4600264B
:1035000005B970BD00211848FEF75EFD00BF1648E2
:10351000FEF712FE0028FAD129461348FEF768FE8E
:1035200011480C30046001210F48FEF74DFD0026C4
:1035300010E04FF020510C48FEF70CFE28B14FF080
:1035400020510948FEF726FD06E00A2000F0DEF9CA
:10355000701CC6B2C82EECDB00BF00210248FEF78B
:1035600033FD00BFCDE70000B864024070B50446EB
:103570000D462A4621460248FEF713FF70BD0000A3
:103580004810002070B504460D46002605B970BDF0
:1035900000211748FEF718FD00BF1548FEF7CCFDC7
:1035A0000028FAD129461248FEF722FE10480C30B6
:1035B000046001210E48FEF707FD00260EE00D49CC
:1035C0000B48FEF7C7FD20B10A490948FEF7E2FCA7
:1035D00006E00A2000F09AF9701CC6B2C82EEEDB95
:1035E00000BF00210248FEF7EFFC00BFCFE700005C
:1035F000A06002400000202070B504460D462A4617
:1036000021460248FEF7CDFE70BD00005410002098
:1036100070B504460D46002605B970BD0021184856
:10362000FEF7D2FC00BF1648FEF786FD0028FAD14F
:1036300029461348FEF7DCFD11485838446601213D
:103640000F48FEF7C1FC002610E04FF0C0510C48B7
:10365000FEF780FD28B14FF0C0510948FEF79AFCF3
:1036600006E00A2000F052F9701CC6B2C82EECDB4E
:1036700000BF00210248FEF7A7FC00BFCDE7000015
:103680005860024070B504460D462A46214602485D
:10369000FEF787FE70BD00006010002070B5044684
:1036A0000D46002605B970BD00211748FEF78CFCB9
:1036B00000BF1548FEF740FD0028FAD12946124800
:1036C000FEF796FD10487038C46701210E48FEF7DA
:1036D0007BFC00260EE00D490B48FEF73BFD20B1B8
:1036E0000A490948FEF756FC06E00A2000F00EF9E8
:1036F000701CC6B2C82EEEDB00BF00210248FEF7E8
:1037000063FC00BFCFE70000706002402000002093
:1037100070B504460D462A4621460248FEF741FE92
:1037200070BD00006C10002070B504460D460026E8
:1037300005B970BD00211748FEF746FC00BF1548CB
:10374000FEF7FAFC0028FAD129461248FEF750FD90
:1037500010480C30046001210E48FEF735FC0026AD
:103760000EE00D490B48FEF7F5FC20B10A49094867
:10377000FEF710FC06E00A2000F0C8F8701CC6B284
:10378000C82EEEDB00BF00210248FEF71DFC00BF83
:10379000CFE70000A0640240000020202DE9F041A6
:1037A00004460D46164600271748844205D1314687
:1037B0002846FFF795FE074622E01448844205D1CB
:1037C00031462846FFF7D2FE074619E010488442EA
:1037D00005D131462846FFF70FFF074610E00D4898
:1037E000844205D131462846FFF74CFF074607E0E3
:1037F0000948844204D131462846FFF789FF07462D
:103800003846BDE8F081000000100140004400404F
:1038100000480040004C00400014014070B50446D0
:103820000D4616461348844204D131462846FFF718
:1038300063FE1EE01048844204D131462846FFF75B
:10384000A1FE16E00D48844204D131462846FFF718
:10385000DFFE0EE00A48844204D131462846FFF7D5
:103860001DFF06E00748844203D131462846FFF792
:103870005BFF70BD00100140004400400048004064
:10388000004C00400014014000BFFEE703B4019863
:103890004100009850EAC12018BF04204A0D18BF0B
:1038A00040F0010040F2FF72B2EB515F08BF40F000
:1038B0000200012808BF052002B0704730380A28EE
:1038C00001D2012070470020704700BF7047000000
:1038D00010B504466FF00400FFF74AFBE11704EB54
:1038E0005171C1F3C701074A11701046007800EB0F
:1038F0004001C1EBC0104FF6FF7101EAC000024960
:10390000088010BD000000200200002070B50446B1
:103910004FF4077094FBF0F0C6B24FF4077094FBBD
:10392000F0F100FB114085B205E04FF4077000F0A4
:1039300009F8701EC6B2002EF7D115B1284600F066
:1039400001F870BD0146114A12884A434FF0E02346
:103950005A6100229A611A46126942F001021A6104
:1039600000BF4FF0E022106900F001021AB100F42C
:103970008032002AF5D04FF0E022126922F00102D5
:103980004FF0E0231A6100229A6170470200002084
:1039900070B504460D4600BF80210548FFF7D0FCF6
:1039A0000028F9D0A1B20248FFF795FD204670BD6E
:1039B0000010014010B50446206807490840B0F1E6
:1039C000005F08D16068054908602068FCF787FC43
:1039D00002480068804710BD0000FE2F280000202C
:1039E000FEF77EF94FF44070FFF7C2F8A820FFF70A
:1039F0006FFFFFF7F9FBFEF70FFE07A10320FEF7AD
:103A000073FE0BA211A10320FEF76EFEFEF792F9E2
:103A100001E0FEF743FAFCE7456E74657220426FE1
:103A20006F746C6F6164204D6F64650D0A00000057
:103A3000426F6F744C6F616465722056322E303065
:103A400020323032302D31312D303500426F6F74DD
:103A50006C6F61642056657273696F6E3A202573CE
:103A60000D0A000013B5044620460199FCF75CFCE2
:103A70001CBD000010B588B0044601210220FFF7EC
:103A800083F801211020FFF79FF80722062125481F
:103A9000FEF782FD072211462248FEF77DFDC02079
:103AA000069002208DF81C008DF81D0000208DF876
:103AB0001E0001208DF81F0006A91A48FEF724FDFC
:103AC00002940020ADF80C00ADF80E00ADF8100027
:103AD000ADF814000C20ADF8120002A91248FFF74F
:103AE0008BFC012240F224410F48FFF760FC0122C9
:103AF000C0210D48FFF71BFC01210B48FFF70BFC11
:103B000025208DF8040005208DF8050000208DF893
:103B1000060001208DF8070001A8FEF7EDFF08B0B0
:103B200010BD0000000402400010014070B50246C4
:103B30000C46FF25FF2309E012F8010B80EA030180
:103B40000648405C80EA05030548455C201EA4F158
:103B50000106B4B2F0D143EA052070BDCE3B0008A7
:103B6000CE3C000810B500290AD00878002807D0FC
:103B700005487844FDF7ACFC002801D0002010BDBA
:103B80000248784410BD00007A0300007203000070
:103B900010B500290AD00878002807D005487844D5
:103BA000FDF796FC002801D0002010BD02487844A3
:103BB00010BD00006A030000620300004FF0407077
:103BC000E1EE100A7047FDF774B8FDF7A9B900C11E
:103BD000814001C0804101C0804100C1814001C0DD
:103BE000804100C1814000C1814001C0804101C0CD
:103BF000804100C1814000C1814001C0804100C1BD
:103C0000814001C0804101C0804100C1814001C0AC
:103C1000804100C1814000C1814001C0804100C19C
:103C2000814001C0804101C0804100C1814000C18C
:103C3000814001C0804101C0804100C1814001C07C
:103C4000804100C1814000C1814001C0804101C06C
:103C5000804100C1814000C1814001C0804100C15C
:103C6000814001C0804101C0804100C1814000C14C
:103C7000814001C0804101C0804100C1814001C03C
:103C8000804100C1814000C1814001C0804100C12C
:103C9000814001C0804101C0804100C1814001C01C
:103CA000804100C1814000C1814001C0804101C00C
:103CB000804100C1814000C1814001C0804100C1FC
:103CC000814001C0804101C0804100C1814000C0ED
:103CD000C101C30302C2C60607C705C5C404CC0C94
:103CE0000DCD0FCFCE0E0ACACB0BC90908C8D81804
:103CF00019D91BDBDA1A1EDEDF1FDD1D1CDC14D414
:103D0000D515D71716D6D21213D311D1D010F03043
:103D100031F133F3F23236F6F737F53534F43CFC53
:103D2000FD3DFF3F3EFEFA3A3BFB39F9F83828E803
:103D3000E929EB2B2AEAEE2E2FEF2DEDEC2CE424D3
:103D400025E527E7E62622E2E323E12120E0A06043
:103D500061A163A3A26266A6A767A56564A46CAC13
:103D6000AD6DAF6F6EAEAA6A6BAB69A9A86878B883
:103D7000B979BB7B7ABABE7E7FBF7DBDBC7CB47493
:103D800075B577B7B67672B2B373B17170B0509043
:103D900091519353529296565797559594549C5CD3
:103DA0005D9D5F9F9E5E5A9A9B5B99595898884883
:103DB00049894B8B8A4A4E8E8F4F8D4D4C8C448453
:103DC0008545874746868242438341818040000083
:103DD0000000000000000000303132333435363747
:103DE000383941424344454640305800303132333F
:103DF000343536373839616263646566403078003F
:103E000004000008000000000000000200010000A3
:103E10001030313233343536373839616263646596
:103E200066787000303132333435363738394142B4
:103E3000434445465850000002400000000000A0E6
:103E40000000000005400000000000C80000000065
:103E50000C4000000000409C0000000019400000E1
:103E60000020BCBE0000000034400000BFC91B8E13
:103E700000000004B5400000504BCFD06607E2CFF1
:103E8000010000006C4100003E8251AADFEEA73421
:103E900001000000D9420000DCB5A0E23A301F97D3
:103EA000FFFFFFFFB4450000FD25A0C8E9A3C14FF7
:103EB000FFFFFFFFFF3F0000000000800000000048
:103EC000FF3F0000000000800000000018400008D4
:103ED000000000203C000000C4010008544000081D
:103EE0003C000020AC360000E00100081C0000008F
:103EF00043000000F8FFFFFF0C0000000E00000070
:103F00000F0000002E000000100100004300000020
:103F1000F8FFFFFF004040404040404040404141EA
:103F2000414141404040404040404040404040408E
:103F30004040404040050202020202020202020228
:103F40000202020202202020202020202020200225
:103F500002020202020290909090909010101010B5
:103F60001010101010101010101010101010101051
:103F700002020202020288888888888808080808E5
:103F800008080808080808080808080808080808B1
:103F900002020202400000000000000000000000D9
:103FA0000000000000000000000000000000000011
:103FB0000000000000000000000000000000000001
:103FC00000000000000000000000000000000000F1
:103FD00000000000000000000000000000000000E1
:103FE00000000000000000000000000000000000D1
:103FF00000000000000000000000000000000000C1
:1040000000000000000000000000000000000000B0
:1040100000000000000000000000000000000000A0
:10402000000000000000000000100140000000003F
:104030000000000000000000000000000000000080
:10404000000000000000000001020304010203045C
:04405000060708094E
:040000050800018965
:00000001FF
